:101AA800410031004100320041002F004100300068
:101AB8005400330000000000000000000000000097
:071AC8000000000000000017
:100E3C00E4900000F0A3F0A3120E0B00000000E4FD
:100E4C00900006F0A3F0A3F0A3F0A3120E0B000089
:100E5C00000090000E120E0B00000000E490001237
:100E6C00F0A3F0121AF6121474121BDF121BBB1231
:100E7C00169E7F0A7E00121B66D2AFC2B67F01128D
:100E8C001A54AC06AD07E4120B3B900002120DFF96
:100E9C007F007E407D4E7C45900002E0F8A3E0F997
:100EAC00A3E0FAA3E0FB120906E4FBFA798078458B
:100EBC00120A0F900002120DFF7B007A40791C7809
:100ECC0046900002E0FCA3E0FDA3E0FEA3E0FF12CD
:100EDC000A0FE4FBFA79C878421209069000021254
:100EEC000DFF900000E0FEA3E0FFC3900007E09F21
:100EFC00900006E09E5006D2B6C2B58004C2B6D2AF
:100F0C00B57F327E00121BCE900007E004F0700615
:100F1C00900006E004F0900006E0B407C5A3E0B42E
:100F2C00E4C0E4900006F0A3F0A3E0FEA3E0FF7C95
:100F3C00007D32120C34ED4C70657F01121A54ACEA
:100F4C0006AD07E4120B3B900002120DFF7F007EF2
:100F5C00407D4E7C45900002E0F8A3E0F9A3E0FA56
:100F6C00A3E0FB120906E4FBFA79807845120A0F1C
:100F7C00900002120DFF7B007A40791C784690009D
:100F8C0002E0FCA3E0FDA3E0FEA3E0FF120A0FE4E5
:100F9C00FBFA79C87842120906900002120DFFE4A0
:100FAC00FF121A54E4FCFD90000A120DFFE47FE4DA
:100FBC007E0CFDFC90000AE0F8A3E0F9A3E0FAA394
:100FCC00E0FB120C9FE4FB7A10F9F8120D2A90004A
:100FDC000A120DFF90000AA3A3E0FEA3E0FF7BD052
:100FEC007A077DEE7C02121303900000EEF0A3EF63
:100FFC00F07F43121AD0900012EEF0A3EFF0C3EE84
:10100C00648094805015900012E0FEA3E0FFC3E4CE
:10101C009FFFE49E900012F0A3EFF0900012E0FE10
:10102C00A3E0FFEE3395E0FDFC900016120DFF904F
:10103C00001A7406F0A37410F0E4FD7F361212242B
:10104C007F45121AD0900012EEF0A3EFF0C3EE64BD
:10105C008094805015900012E0FEA3E0FFC3E49F43
:10106C00FFE49E900012F0A3EFF0900012E0FEA3BC
:10107C00E0FFEE3395E0FDFC900016120DFF9000A2
:10108C001A7406F0A37410F07D027F361212247FBE
:10109C0041121AD0900012EEF0A3EFF0C3EE648070
:1010AC0094805015900012E0FEA3E0FFC3E49FFF74
:1010BC00E49E900012F0A3EFF0900012E0FEA3E08B
:1010CC00FFEE3395E0FDFC900016120DFF90001A18
:1010DC007406F0A37410F07D02E4FF121224900049
:1010EC002FE0601FE4F090000E120DCA9000161253
:1010FC000DFF90001A7406F0A37410F0E4FD7F3617
:10110C00121224900030E06002E4F0900009E00438
:0C111C00F07006900008E004F0020EEEF7
:101AF60043BA8043B26053B19F439230439130530F
:101B060092FC43910353B2F353B1F3D2B3D2B2D2A0
:041B160095D29422AE
:0D1BDF0090FEA8743FF075DE0F75BC8022EB
:101A540043BC4053BCF0EF42BC0000E5BC30E5FBA6
:101A640053BCDF85BDA0AFBDEF75F010A4FFAEF091
:0A1A7400E5BEC4540FFDEF4DFF2244
:10130300900014EEF0A3EFF0A3ECF0A3EDF0A3EA4A
:04131300F0A3EBF068
:10131700A3120E0B00000000900014E0FEA3E0FFF4
:10132700C3900017E09FFF900016E09EFEAD07FCFC
:10133700120B3BE4FBFA7970784112090690001A08
:10134700120DFFE4FFFEFDFC90001AE0F8A3E0F9A0
:10135700A3E0FAA3E0FB120AAC501790001AE0FCD6
:10136700A3E0FDA3E0FEA3E0FF120B2590001A12F5
:101377000DFF900018E0FCA3E0FDE4120B3B90008A
:101387001AE0F8A3E0F9A3E0FAA3E0FB120AAC60C5
:10139700144012900018E0FCA3E0FDE4120B3B9010
:1013A700001A120DFF900016E0FEA3E0FFD3900095
:1013B70015E09F900014E09E40057E007F64229018
:1013C700001AE0FCA3E0FDA3E0FEA3E0FF120B740C
:0113D70022F3
:03000B00021815C3
:10181500C0E0C083C082C0D090003120B305E00491
:10182500F08002E4F090003220B205E004F080027E
:10183500E4F0900031E0D394784007E4F090002F75
:1018450004F0900032E0D394784007E4F090003043
:0B18550004F0D0D0D082D083D0E0326D
:101BBB00438E805389F0758A40758CA2C28DD28C6E
:031BCB00D2A9227A
:10000E000000000000000000002F000000000700AC
:10001E00070000147F147F1400242A7F2A12006226
:10002E0064081323003649552250000005030000D2
:10003E0000001C224100000041221C000014083E5A
:10004E0008140008083E0808000000A06000000820
:10005E000808080800006060000000201008040274
:10006E00003E5149453E0000427F40000042615132
:10007E004946002141454B31001814127F100027CC
:10008E0045454539003C4A4949300001710905038F
:10009E0000364949493600064949291E00003636C0
:1000AE000000000056360000000814224100001423
:1000BE001414141400004122140800020151090600
:1000CE0000324959513E007C1211127C007F494981
:1000DE004936003E41414122007F4141221C007FB2
:1000EE0049494941007F09090901003E4149497AC0
:1000FE00007F0808087F0000417F4100002040413A
:10010E003F01007F08142241007F40404040007FA5
:10011E00020C027F007F0408107F003E4141413EE9
:10012E00007F09090906003E4151215E007F091931
:10013E0029460046494949310001017F0101003F2E
:10014E004040403F001F2040201F003F4038403FAE
:10015E000063140814630007087008070061514912
:10016E00454300007F41410000552A552A550000A5
:10017E0041417F0000040201020400404040404023
:10018E00000001020400002054545478007F4844BB
:10019E00443800384444442000384444487F0038F2
:1001AE005454541800087E0901020018A4A4A47C1B
:1001BE00007F080404780000447D400000408084E5
:1001CE007D00007F102844000000417F4000007C2D
:1001DE0004180478007C0804047800384444443839
:1001EE0000FC242424180018242418FC007C080485
:1001FE00040800485454542000043F444020003C5E
:10020E004040207C001C2040201C003C4030403CE4
:10021E00004428102844001CA0A0A07C0044645474
:10022E004C441414141414140000000000000000B8
:10023E000000000000000000000000F800000000B8
:10024E00000000333000000000100C06100C0600F9
:10025E00000000000000000040C07840C078400060
:10026E00043F04043F040400007088FC08300000C2
:10027E00001820FF211E0000F008F000E01800001A
:10028E0000211C031E211E0000F0088870000000D3
:10029E001E2123241927211010160E000000000025
:1002AE000000000000000000000000E01804020042
:1002BE00000000071820400000020418E0000000B3
:1002CE000040201807000000404080F080404000B1
:1002DE000202010F01020200000000F00000000007
:1002EE000101011F010101000000000000000000DB
:1002FE0080B0700000000000000000000000000050
:10030E0000010101010101010000000000000000D8
:10031E000030300000000000000000008060180473
:10032E00006018060100000000E010080810E00050
:10033E00000F102020100F00001010F80000000019
:10034E000020203F20200000007008080888700060
:10035E0000302824222130000030088888483000E0
:10036E000018202020110E000000C02010F8000000
:10037E0000070424243F240000F808888808080099
:10038E000019212020110E0000E0108888180000AE
:10039E00000F112020110E0000380808C838080080
:1003AE000000003F00000000007088080888700000
:1003BE00001C222121221C0000E010080810E00081
:1003CE000000312222110F00000000C0C00000000A
:1003DE00000000303000000000000080000000002F
:1003EE000000806000000000000080402010080027
:1003FE0000010204081020004040404040404000F0
:10040E0004040404040404000008102040800000CA
:10041E000020100804020100007048080808F000CF
:10042E000000003036010000C030C828E810E0009F
:10043E000718272423140B000000C038E00000002A
:10044E00203C23020227382008F888888870000094
:10045E00203F202020110E00C03008080808380068
:10046E00071820202010080008F808080810E000DF
:10047E00203F202020100F0008F88888E808100080
:10048E00203F20202320180008F88888E808100054
:10049E00203F200003000000C0300808083800008C
:1004AE0007182020221E020008F808000008F8088D
:1004BE00203F210101213F20000808F80808000014
:1004CE000020203F2020000000000808F808080047
:1004DE00C08080807F00000008F888C028180800BF
:1004EE00203F20012638200008F8080000000000F8
:1004FE00203F20202020300008F8F800F8F80800EF
:10050E00203F003F003F200008F830C00008F808E8
:10051E00203F200007183F00E01008080810E000F8
:10052E000F10202020100F0008F808080808F0000F
:10053E00203F210101010000E01008080810E00032
:10054E000F18242438504F0008F8888888887000C7
:10055E00203F2000030C3020007088080808380067
:10056E000038202121221C00180808F8080818005D
:10057E000000203F2000000008F808000008F808DE
:10058E00001F202020201F000878880000C838088F
:10059E00000007380E010000F80800F80008F80007
:1005AE00033C0700073C03000818688080681808A1
:1005BE0020302C03032C30200838C800C83808001F
:1005CE000000203F2000000010080808C83808006E
:1005DE002038262120201800000000FE0202020012
:1005EE000000007F40404000000C30C000000000C2
:1005FE00000000010638C00000020202FE000000EA
:10060E00004040407F00000000000402020204008F
:10061E0000000000000000000000000000000000CC
:10062E0080808080808080800002020400000000B4
:10063E0000000000000000000000808080800000AC
:10064E000019242222223F2008F80080800000009A
:10065E00003F112020110E0000000080808000005D
:10066E00000E112020201100000000808088F8006C
:10067E00000E112020103F2000008080808000009E
:10068E00001F222222221300008080F08888881802
:10069E000020203F2020000000008080808080000D
:1006AE00006B94949493600008F8008080800000A2
:1006BE00203F210000203F2000809898000000007D
:1006CE000020203F202000000000008098980000AD
:1006DE0000C08080807F000008F8000080808000CD
:1006EE00203F24022D302000000808F800000000F2
:1006FE000020203F202000008080808080808000AD
:10070E00203F20003F20003F80800080808000003E
:10071E00203F210000203F200000808080800000CC
:10072E00001F202020201F008080008080000000FD
:10073E0080FFA12020110E0000000080808080002C
:10074E00000E112020A0FF8080808000808080001D
:10075E0020203F212000010000008080808080004A
:10076E000033242424241900008080E080800000BF
:10077E000000001F2020000080800000008080000C
:10078E00001F202020103F2080808000008080806D
:10079E0000010E30080601008080008000808080FD
:1007AE000F300C030C300F00008080008080800022
:1007BE000020312E0E31200080808000008080804D
:1007CE0080818E70180601000080808080808000FD
:1007DE000021302C2221300000000000807C02021B
:1007EE0000000000003F404000000000FF0000003D
:1007FE0000000000FF0000000002027C80000000EC
:10080E000040403F00000000000601010202040407
:10081E0000000000000000000000F010101010FF9B
:10082E0010101010F000000000000F04040404FF6C
:10083E00040404040F0000004040405F55555575F8
:10084E005555555F404040000040200F09498979B9
:10085E000909090F2040000000FE02424ACA4A4A16
:10086E00CA4A4A4202FE000000FF40504C4340403C
:10087E004F50505C40FF00000000F888888888FFC9
:10088E0088888888F800000000001F080808087F84
:10089E00888888889F80F00080828282828282E2AD
:1008AE00A2928A8682808000000000000040807F35
:1008BE000000000000000000101010FF10900888CB
:1008CE008888FF88888808000444827F01808040E1
:1008DE00432C1028468180000010101010D030FFDD
:1008EE0030D0121C1010000010080402010000FF8E
:0808FE000000010204081000D3
:101B4F00D295D2947F037E00121BCEC2947F037E68
:071B5F0000121BCEC295220B
:101BA700C294D2957F037E00121BCED2947F037E10
:041BB70000021BCE3F
:101B3600C295A20192947F037E00121BCED2957F9E
:091B4600037E00121BCEC29522A1
:10197C00E490002DF0A3F0D2947F01FE121BCED286
:10198C00957F017E00121BCE30941F90002EE00438
:10199C00F0700690002DE004F0D390002EE094E25D
:0D19AC0090002DE0940440E0D322C295C3CA
:0119B900220B
:0517060090002DEFF042
:10170B00C295C2947F037E00121BCE90002E7407ED
:10171B00F090002EE0FFC36480948040417E007403
:10172B0001A807088005C333CE33CED8F9FF90004C
:10173B002DE0FDEF5D6004D2948002C2947F037EA6
:10174B0000121BCED2957F037E00121BCEC2957F5B
:0E175B00037E00121BCE90002EE014F080B32F
:01176900225D
:1017C500E4900018F0A37407F0C2957F037E001221
:1017D5001BCED295309417900018E0FFA3E0FEF8D9
:1017E5007401088002C333D8FC4F900018F07F03C2
:1017F5007E00121BCE900019E014F0E0C3648094C3
:0F1805008050C6A2009201121B36900018E0FF1F
:0118140022B1
:10193800F583E5822FF582E5833EF583E493FF7D09
:01194800019D
:1019490090002BEFF0A3EDF0121B4F7F78121706D2
:1019590012197C90002CE060047F408002E4FF12A1
:10196900170612197C90002BE0FF12170612197C3A
:03197900021BA7A7
:101B1A00900061EFF07006FD7FA6121949900061EE
:0C1B2A00E0B40107E4FD7FA71219492276
:101A7E00900062EFF0700DFD7FC8121949E4FD7FF2
:101A8E00A1121949900062E0B4010EE4FD7FC0126C
:0A1A9E001949E4FD7FA01219492246
:0719F300E0FFA3E0FD04F09A
:1019FA0090002AEFF0ED24B0FFE4FD12194990009F
:101A0A002AE054F0C4540F4410FFE4FD121949901F
:0B1A1A00002AE0540FFFE4FD02194910
:101B7D00E4FD7F8D121949E4FD7F14121949E4FD2E
:051B8D007FAF021949C1
:101B9200E4FD7F8D121949E4FD7F10121949E4FD1D
:051BA2007FAE021949AD
:1018F200E4900014F0900014E0FFC394085036EF17
:1019020024B0FFE4FD121949E4FDFF121949E4FD78
:101912007F10121949E4900015F07D01E4FF1219BD
:1019220049900015E004F0E0C3948040ED9000146B
:05193200E004F080C09C
:01193700228D
:08112800900020EFF0A3EDF0B0
:10113000E4900024F0900023E0FFC313FD9000250D
:10114000F0E4A3F0A3F0EFB40809A3E4F0A374065D
:10115000F08031900023E0FF131313541FF58275C4
:101160008300EF54077E0060047F0180027F00EF60
:101170002582FFEE3583FE7C00120C22900028EEC3
:10118000F0A3EFF0EB24E0900024F0900020E0FFCB
:10119000A3E0FD1219FAE4900026F0A3F0900028D5
:1011A000E0FCA3E0FD900026E0FEA3E0FFC39DEE7F
:1011B0009C5070900025E0FD7C00120C34ED4C70CA
:1011C0000E900023E0640860069000201219F3904E
:1011D0000023E0B4081A900026E0FEA3E0FF900090
:1011E00024E075F006A4240EF582E5F03400801F9B
:1011F000900023E0B4102C900026E0FEA3E0FF90C6
:101200000024E075F010A42436F582E5F0340212D3
:101210001938900027E004F07006900026E004F0F2
:0312200002119D1B
:0112230022A8
:08186000900020EFF0A3EDF071
:10186800A3120E0B00000001900021E0FF14F0EF1E
:101878006020A3E0F8A3E0F9A3E0FAA3E0FB90005E
:1018880020E0FFE4FCFDFE120C9F900022120DFFE9
:1018980080D6900022E0FCA3E0FDA3E0FEA3E0FFD9
:0118A800221D
:08122400900014EFF0A3EDF0BF
:10122C00E490001EF0A3F090001BE0B408069000C0
:10123C001E7402F0E490001CF090001AE0FF900085
:10124C001CE0FEC39F4003021302C3EF9E14FD7FFC
:10125C000A121860A804A905AA06AB07900016E0AC
:10126C00FCA3E0FDA3E0FEA3E0FF120D2AE47B0A41
:10127C00FAF9F8120D2A90001DEBF090001FE070A7
:10128C003C90001AE014FF90001CE0FEC39F502D10
:10129C00A3E0702390001BE0FCC313FF90001EE042
:1012AC002F8EF0A4FF900014E02FFFA3E0FD900020
:1012BC0023ECF07B20803390001F7401F090001B16
:1012CC00E0FEC313FF90001EE02FFF90001CE0FD1A
:1012DC00EF8DF0A4FF900014E02FFFA3E0FD900031
:1012EC001DE02430FB900023EEF012112890001C1E
:0612FC00E004F0021245BF
:0113020022C8
:10162E0090005AEFF0A3EDF0A3EBF0A3EAF0A3E9DC
:01163E00F0BB
:10163F00E4900060F090005CE0FBA3E0FAA3E0F917
:10164F00900060E0F582758300120BF5604090000A
:10165F005AE0FFA3E0FD900060E0FE04F08E82757B
:10166F008300120BF5FB90005FE0900023F0121146
:10167F002890005FE0FFB4080990005AE02406F0BC
:0E168F0080B3EFC313FF90005AE02FF080A746
:01169D00222A
:0B13D800900052EFF0A3EDF0A3EBF04B
:1013E300A3E0FF131313541FFD7C00EF54077E008B
:1013F30060047F0180027F00EF2DFFEE3CFE900032
:1014030055E0FD7C00120C22900058EEF0A3EFF0A3
:10141300E4900056F0A3F0900058E0FCA3E0FD90A8
:101423000056E0FEA3E0FFC39DEE9C5043900055A1
:10143300E0FD7C00120C34ED4C7006900052121942
:10144300F3900055E0B41028A3E0FEA3E0FF900062
:1014530054E0C43354E02426F582E43408121938E6
:10146300900057E004F070AF900056E004F080A7BE
:011473002256
:0B150F00900047EFF0A3EDF0A3EBF01D
:10151A00E490004EF0A3F090004AE0FF1313135436
:10152A001FFEEF540760047F0180027F00EE2F90B8
:10153A00004AF0E4900050F090004AE0FF9000501A
:10154A00E0FEC39F5051900047E0FFA3E0FDEE2D5F
:10155A00FD1219FAE4900051F0900049E0FF900062
:10156A0051E0C39F502990004BE0FBA3E0FAA3E0AF
:10157A00F9A3E475F001120C8985F082F583120B48
:10158A00F5FF7D01121949900051E004F080CA90DC
:07159A000050E004F080A105
:0115A1002227
:05000300E4FD021949B3
:101474007FC87E00121B667FAE1200037FA8120095
:10148400037F1F1200037FD3120003E4FF12000343
:101494007F401200037FA01200037FC01200037F6D
:1014A400811200037F7F1200037FA41200037FA632
:1014B4001200037FD51200037F801200037F8D1278
:1014C40000037F141200037F2E1200037F201200FA
:1014D400037F101200037FDA1200037F021200035D
:1014E4007FD91200037F221200037FDB1200037FE7
:1014F400201200037FB0120003E4FF1200037F10E8
:0B1504001200037FAF1200030218F278
:101B66007DA07C0FED1D70011C144C70F7EF1F70EB
:061B7600011E144E70EA8E
:011B7C002246
:101BCE007C007D06120C22EF1F70011E144E70F762
:011BDE0022E4
:101A2500900017EFF0A3EDF0121B4F7FD0121706B1
:101A350012197C900017E0FF12170612197C90000E
:0F1A450018E0FF12170612197C121BA77F002250
:0519BA00900016EFF0A3
:1019BF00121B4F7FD012170612197C900016E0FFF2
:1019CF0012170612197C121B4F7FD112170612190C
:1019DF007CD2001217C5900017EFF0121BA79000D2
:0319EF0017E0FFFF
:0119F20022D2
:0C1BEC00EF33333354F8FD7F1B021A2541
:0C1BF800EF33333354F8FD7F1C021A2534
:1018A900E4FDC3EF94BCEE940040030D8036C3EF12
:1018B9009462EE940040047D028029C3EF942AEEDD
:1018C900940040047D03801CC3EF9414EE940040FF
:1018D900047D04800FC3EF940AEE940040047D0553
:0918E90080027D067F1A021A2517
:08176A00900014EEF0A3EFF073
:10177200D394E8EE9403400A9000147403F0A37427
:10178200E8F0C3900015E09404900014E094005037
:1017920006E4F0A37404F0900014E0FCA3E0FD7EE4
:1017A200037FE8120C34EF14A3F0FD7F19121A25FF
:1017B200900016EFF0900014E0C313FEA3E013FFB5
:0317C2000218A961
:10169E007D807F6B121A257F647E00121B66E4FD2F
:1016AE007F6B121A257F03121BECE4FF121BF87FCF
:1016BE00327E0012176AE4FD7F38121A25E4FD7F90
:1016CE006A121A257DFF7F23121A257D807F37121D
:1016DE001A257F751219BAEFB468177D017F6B1248
:1016EE001A25E4FD7F6C121A257FC87E0012176A38
:0716FE0080037F01227F0041
:0117050022C1
:051AD000900014EFF08E
:101AD5001219BA900015EFF0900014E004FF1219E6
:101AE500BAAD07900015E0FE7C00E42DFFEC3EFE4C
:011AF50022CE
:10090600EC4D6011E8497017ED33EC3304600DE4EB
:10091600FCFFFEFD22E933E8330470F8020BE01217
:100926000BAB58046009E4CC248150062850090218
:100936000BEA284003020BE7C0E0EB4A7044B9809B
:1009460006D0E0FB020BD6EF4E701CBD8008EBFF15
:10095600EAFEE9FD80EBE98DF0A4FEE5F00209EF81
:10096600E9CDF9EAFEEBFFEF89F0A4FCE5F0CE89CC
:10097600F0A42EFFE435F0CD89F0A42DFEE435F089
:100986008067EF4E7005BD80D780C3EF8BF0A4ACB7
:10099600F0EE8BF0A42CFCE435F0F8EF8AF0A42CF2
:1009A600E5F038FCE433CB8DF0A42CFCE5F03BF805
:1009B600EE8AF0A42CFCE5F038F8E433CF89F0A4F5
:1009C6002CFCE5F038CF3400CE89F0A42FFFE5F0FB
:1009D6003EFEE433C98DF0A42EFEE5F039CD8AF053
:1009E600A42FFFE5F03EFEE43DFD33D0E0FB5007CB
:1009F6000BBB000F020BEAEC2CFCEF33FFEE33FED1
:060A0600ED33FD020BC2FE
:100A0C00020BEAEC5D046005E859047003020BE08C
:100A1C00120BAB580460F6EC4860F2EC7004FDFE6F
:100A2C00FF22C860DB2481C85009C39860025006BD
:100A3C00020BE79850CAF582E9294B4A7005AB8244
:100A4C00020BD675F0007C1A7880C3EF9BEE9AED02
:100A5C0099400DC3EF9BFFEE9AFEED99FDE842F035
:100A6C00DC23ACF0D0E0FFD0E0FED0E0FDAB822088
:100A7C00E7101BEB60BAEC2CFCEF33FFEE33FEED12
:100A8C0033FD020BC2E803F830E705C0F075F00047
:100A9C00EF2FFFEE33FEED33FD40B830E7C280AAF6
:100AAC0074F8CC6480CCC86480C8F58204604FC3F1
:100ABC00EB9FF5F0EA9E42F0E99D42F0E89C45F090
:100ACC00603C501DE5825FFFE582D313CB5BCBF41A
:100ADC002B5582FB50280ABA002409B90020088043
:100AEC001DE5825BFBE582D313CF5FCFF4C3132FDD
:100AFC005582FF50090EBE00050DBD00010CC3EB65
:100B0C009FF5F0EA9E42F0E99D42F0E89C45F060CA
:090B1C0007CC4820E701B3EC22EC
:100B2500ED33EC33600A047003BD8004ECB2E7FCDE
:010B3500229D
:100B360075F020800E75F010800575F0087D007E3A
:100B4600007F003392D530D503120DBCEC33401034
:100B5600EF33FFEE33FEED33FDEC33FCD5F0ED2243
:0E0B6600E5F0247EA2D513CC92E7CDCEFF227F
:100B7400EDD2E7CD33EC3392D524814006E4FFFE79
:100B8400FDFC22FCE4CFCECDCC24E0501174FF80D8
:100B9400EDC3CC13CCCD13CDCE13CECF13CF047075
:070BA400F030D5DE020DBCAC
:100BAB00E9D2E7C933E833F892D5EDD2E7CD33EC90
:070BBB0033FC5002B2D52209
:100BC200EC30E7100FBF000C0EBE00080DBD000494
:100BD2000BEB6014A2D5EB13FCED92E7FD2274FF40
:100BE200FCFDFEFF22E480F8A2D574FF13FC7D8099
:030BF200E480EFAD
:030000000215A244
:0C15A200787FE4F6D8FD7581200215E981
:100BF500BB010CE58229F582E5833AF583E02250B5
:100C050006E92582F8E622BBFE06E92582F8E222FE
:0D0C1500E58229F582E5833AF583E4932218
:100C2200EF8DF0A4A8F0CF8CF0A428CE8DF0A42EE6
:020C3200FE22A0
:100C3400BC000BBE0029EF8DF084FFADF022E4CCA4
:100C4400F875F008EF2FFFEE33FEEC33FCEE9DEC6D
:100C5400984005FCEE9DFE0FD5F0E9E4CEFD22EDB3
:100C6400F8F5F0EE8420D21CFEADF075F008EF2FFD
:100C7400FFED33FD4007985006D5F0F222C398FDEE
:050C84000FD5F0EA228B
:100C8900A3F8E0C5F025F0F0E5821582700215831E
:060C9900E0C838F0E8227B
:100C9F00E88FF0A4CC8BF0A42CFCE98EF0A42CFCF4
:100CAF008AF0EDA42CFCEA8EF0A4CDA8F08BF0A472
:100CBF002DCC3825F0FDE98FF0A42CCD35F0FCEBD1
:100CCF008EF0A4FEA9F0EB8FF0A4CFC5F02ECD3996
:0F0CDF00FEE43CFCEAA42DCE35F0FDE43CFC2203
:100CEE0075F008758200EF2FFFEE33FECD33CDCCBD
:100CFE0033CCC58233C5829BED9AEC99E582984040
:100D0E000CF582EE9BFEED9AFDEC99FC0FD5F0D61C
:100D1E00E4CEFBE4CDFAE4CCF9A88222B800C1B946
:100D2E000059BA002DEC8BF084CFCECDFCE5F0CB84
:100D3E00F97818EF2FFFEE33FEED33FDEC33FCEBBD
:100D4E0033FB10D703994004EB99FB0FD8E5E4F978
:100D5E00FA227818EF2FFFEE33FEED33FDEC33FC65
:100D6E00C933C910D7059BE99A4007EC9BFCE99A59
:100D7E00F90FD8E0E4C9FAE4CCFB2275F010EF2F9E
:100D8E00FFEE33FEED33FDCC33CCC833C810D7079E
:100D9E009BEC9AE899400AED9BFDEC9AFCE899F8D9
:0E0DAE000FD5F0DAE4CDFBE4CCFAE4C8F9226C
:0E0DBC00C3E49FFFE49EFEE49DFDE49CFC2248
:100DCA007401FF3395E0FEFDFCA3A3A3E0CF2FF04F
:100DDA00E582158270021583E0CE3EF0E582158227
:100DEA0070021583E0CD3DF0E5821582700215830D
:050DFA00E0CC3CF022FA
:0C0DFF00ECF0A3EDF0A3EEF0A3EFF02267
:100E0B00A8828583F0D083D082120E22120E22127A
:100E1B000E22120E22E473E493A3C583C5F0C5839F
:100E2B00C8C582C8F0A3C583C5F0C583C8C582C831
:010E3B002294
:1015AE00020E3CE493A3F8E493A34003F68001F209
:1015BE0008DFF48029E493A3F85407240CC8C3333E
:1015CE00C4540F4420C8834004F456800146F6DF0D
:1015DE00E4800B0102040810204080901AA8E47EDB
:1015EE00019360BCA3FF543F30E509541FFEE49302
:1015FE00A360010ECF54C025E060A840B8E493A3C9
:10160E00FAE493A3F8E493A3C8C582C8CAC583CAF3
:10161E00F0A3C8C582C8CAC583CADFE9DEE780BEAB
:011ACF000016
:00000001FF
