:1023C5005365743A00506F773A00536C703A0000C9
:1023D50000000000000000000000000000000000F8
:0323E500000000F5
:101C46004100820041008300410006004100070078
:101C56004200800000420004000060780008000096
:101C6600000000000000000000000032005A0000E2
:101C7600000000000000006400FE000000000000FC
:101C860000000096015E000000000000000000C891
:101C960001E8000000000000000000FA026C0000ED
:101CA600000000000000012C0312000000000000EC
:101CB6000000015E039A0000000000000000019091
:101CC6000424000000000000000001C204E200003D
:101CD6000000000000004200000000420002000078
:100916009000841217170000000078887C007D0183
:100926007BFF7A2379D47E007F141214C99000AC21
:10093600121717000000009000B07401F0A3745E57
:10094600F0A37401F0A3745EF0E49000B6F0A3F097
:10095600A3F0A3F0A3F0A3F0A3F0A3F09000C0F0DF
:100966009000C0E0FF75F00CA4240AF582E4340080
:10097600F583E0FCA3E0FDEF75F00CA42416F582E8
:10098600E43400F583E0FEA3E0C39DFDEE9CFC127B
:10099600133FE4FBFA7948784212129D9000C0E0BA
:1009A600FB75F00CA4240CF582E43400F5831217D1
:1009B6000BEB75F00CA42408F582E43400F583E013
:1009C600FCA3E0FDEC12133F9000C0E075F00CA410
:1009D600240CF582E43400F583E0F8A3E0F9A3E003
:1009E600FAA3E0FB121194C004C005C006C007902C
:1009F60000C0E075F00CA4240AF582E43400F58307
:100A0600E0FCA3E0FDEC12133FD003D002D001D0EE
:100A16000012109F9000C0E075F00CA42410F5821F
:100A2600E43400F58312170B9000C0E004F0E06494
:100A36000960030209661223A1121BA412000E12FA
:100A46002445122458121F7AD2AFC2B67BFF7A23EE
:100A560079C59000C67408F0E4FD7F48121EA27B9B
:100A6600FF7A2379CA9000C67408F07D017F481288
:100A76001EA27BFF7A2379CF9000C67408F07D0210
:100A86007F48121EA29000B0E0FEA3E0FFE4FCFD4A
:100A96009000C312170B9000C77403F0A37408F0FC
:100AA600E4FD7F661219697F01122327AC06AD07A4
:100AB600E412133F90008412170B7F007E407D4E98
:100AC6007C45900084E0F8A3E0F9A3E0FAA3E0FBFC
:100AD600121194E4FBFA7980784512129D900084F5
:100AE60012170BE4FBFA797A7844900084E0FCA3B1
:100AF600E0FDA3E0FEA3E0FF12129D7433FBFAF9BA
:100B0600784112119490008412170BE4FFFE7D20A9
:100B16007C41900084E0F8A3E0F9A3E0FAA3E0FBAF
:100B26001211941213789000C312170B9000C77419
:100B360003F0A37408F07D017F661219697F011224
:100B46002327AC06AD07E412133F90008412170B5F
:100B56007F007E407D4E7C45900084E0F8A3E0F95E
:100B6600A3E0FAA3E0FB121194E4FBFA798078453E
:100B760012129D90008412170BE4FBFA797A7844DE
:100B8600900084E0FCA3E0FDA3E0FEA3E0FF1212C8
:100B96009D7433FBFAF97841121194900084121770
:100BA6000BE4FFFE7D207C41900084E0F8A3E0F991
:100BB600A3E0FAA3E0FB1211941213789000C3127B
:100BC600170B9000C77403F0A37408F07D017F66CD
:100BD600121969C2ABC2B6D2B57FFA7E0012248D55
:100BE600E4FF122327E4FCFD9000ACA3A3E0FAA3E4
:100BF600E090008875F004121748EA25E025E02504
:100C060083F58312170B9000ACA3A3E0FEA3E0903C
:100C1600008875F004121748EE25E025E02583F5D7
:100C260083E0FCA3E0FDA3E0FEA3E0FFE47BE47A1F
:100C36000CF9F81215CFE4FB7A10F9F812165A904F
:100C460000ACA3A3E0FAA3E090008875F0041217A5
:100C560048EA25E025E02583F58312170B9000ACC2
:100C6600E0FCA3E0FDA3E0FEA3E02401FFE43EFEDA
:100C7600E43DFDE43CFC9000AC12170BE47F05FE5E
:100C8600FDFC9000ACE0F8A3E0F9A3E0FAA3E0FBDA
:100C9600C31216FA700A9000AC1217170000000073
:100CA600D2AB7F4512237B9000B6EEF0FCA3EFF0AB
:100CB600FD9000BAE0FEA3E0FFC3ED9FFFEC9EFEB1
:100CC6009000B8F0A3EFF0A3ECF0A3EDF012246BC4
:100CD600C3EF9414EE6480948050109000BDE0043D
:100CE600F0700F9000BCE004F08007E49000BCF0C8
:100CF600A3F09000BCE0FEA3E0FF7C007D1412157B
:100D060083D3EF9458EE648094824009E49000B057
:100D1600F0A3F08025D3EF942CEE64809481400BF1
:100D26009000B0E4F0A374C8F0800F9000B2E0FF2A
:100D3600A3E09000B0CFF0A3EFF07F01122327AC21
:100D460006AD07E412133F90008412170B7F007E56
:100D5600407D4E7C45900084E0F8A3E0F9A3E0FADC
:100D6600A3E0FB121194E4FBFA7980784512129DF8
:100D760090008412170B7B007A40791C784690000D
:100D860084E0FCA3E0FDA3E0FEA3E0FF12129DE4D5
:100D9600FBFA79C8784212119490008412170BE47A
:100DA600FFFE7D207C41900084E0F8A3E0F9A3E0FB
:100DB600FAA3E0FB1211941213789000C312170BDA
:100DC6009000C77403F0A37408F07D017F661219C2
:100DD600699000BCE0FEA3E0FF7C007D1412158341
:100DE600EE3395E0FDFC9000C312170B9000C7741C
:100DF60003F0A37408F07D027F661219699000B0B3
:100E0600E0FEA3E0FF121A489000B4EEF0A3EFF064
:100E1600900088E0FCA3E0FDA3E0FEA3E0FF9000C5
:100E26009C12170B900088E0FCA3E0FDA3E0FEA354
:100E3600E0FF9000A012170B9000A41217170000F5
:100E46000000E49000C0F09000C0E0FFC3940540AD
:100E560003020F40EF25E025E02488F582E4340004
:100E6600F583E0FCA3E0FDA3E0FEA3E0FF9000A075
:100E7600E0F8A3E0F9A3E0FAA3E0FBD31216FA40E8
:100E8600229000C0E025E025E02488F582E43400C5
:100E9600F583E0FCA3E0FDA3E0FEA3E0FF9000A045
:100EA60012170B9000C0E025E025E02488F582E4C7
:100EB6003400F583E0FCA3E0FDA3E0FEA3E0FF9091
:100EC600009CE0F8A3E0F9A3E0FAA3E0FBC3121646
:100ED600FA50229000C0E025E025E02488F582E45F
:100EE6003400F583E0FCA3E0FDA3E0FEA3E0FF9061
:100EF600009C12170B9000A4E0FCA3E0FDA3E0FE0B
:100F0600A3E0FF9000C0E025E025E02488F582E418
:100F16003400F583E0F8A3E0F9A3E0FAA3E0FBEFE1
:100F26002BFFEE3AFEED39FDEC38FC9000A41217CB
:100F36000B9000C0E004F0020E4D90009CE0F8A378
:100F4600E0F9A3E0FAA3E0FB9000A4E0FCA3E0FD37
:100F5600A3E0FEA3E0C39BFFEE9AFEED99FDEC989D
:100F6600FC9000A0E0F8A3E0F9A3E0FAA3E0FBC33D
:100F7600EF9BFFEE9AFEED99FDEC98FCE47B03FAFD
:100F8600F9F812165A9000A812170B9000A8A3A3FE
:100F9600E0FEA3E0FF9000B4E0FCA3E0FD7BD07A86
:100FA60007121754900080EEF0A3EFF09000A8A36C
:100FB600A3E0FEA3E0FF121AF6E4FCFD9000C312C4
:100FC600170B9000C77403F0A37410F0E4FD7F20A4
:100FD600121969900006E0600BA3E06007E4900038
:100FE60006F0A3F0900006E0FF604E9000B1E02FFF
:100FF600F09000B0E03400F0D3A3E094C29000B0CB
:10100600E0940140077401F0A374C2F09000B0E0D0
:10101600FEA3E0FFA3EEF0A3EFF0E4FCFD9000C317
:1010260012170B9000C77403F0A37408F0E4FD7F59
:1010360066121969E4900006F0900007E0FF604C24
:10104600C39000B1E09FFF9000B0E09400FEF0A3D3
:10105600EFF0C3EE94005007E49000B0F0A3F090D8
:1010660000B0E0FEA3E0FFA3EEF0A3EFF0E4FCFD8A
:101076009000C312170B9000C77403F0A37408F016
:10108600E4FD7F66121969E4900007F07F327E0066
:06109600122404020BD934
:1023A10043BA8043B26053B19F439230439130535B
:1023B10092FC43910353B2F353B1F3D2B3D2B2D2ED
:0423C10095D29422FB
:0D000E0090FEA8743FF075DE0F75BC8022D7
:1023270043BC4053BCF0EF42BC0000E5BC30E5FBCA
:1023370053BCDF85BDA0AFBDEF75F010A4FFAEF0B5
:0A234700E5BEC4540FFDEF4DFF2268
:081A48009000C1EEF0A3EFF0E5
:101A5000E4A3F0F09000C3E0FFC39409504AEF758F
:101A6000F00CA42408F582E43400F583E0FEA3E042
:101A7000FF9000C1E0FCA3E0FDC39FEC9E4021A3CA
:101A8000E075F00CA42414F582E43400F583E0FE44
:101A9000A3E0FFC3ED9FEC9E50069000C1A3801011
:101AA0009000C3E004F080AC9000C1E0FCA3E0FD36
:101AB000E412133F9000C3E075F00CA4240CF582EF
:101AC000E43400F583E0F8A3E0F9A3E0FAA3E0FB37
:101AD0001211949000C3E075F00CA42410F582E478
:101AE0003400F583E0F8A3E0F9A3E0FAA3E0FB12E9
:051AF00010A3121378A1
:011AF50022CE
:081AF6009000C1EEF0A3EFF037
:101AFE00E4A3F0F09000C3E0FFC39409504AEF75E1
:101B0E00F00CA4240AF582E43400F583E0FEA3E091
:101B1E00FF9000C1E0FCA3E0FDC39FEC9E4021A31B
:101B2E00E075F00CA42416F582E43400F583E0FE93
:101B3E00A3E0FFC3ED9FEC9E50069000C1A3801062
:101B4E009000C3E004F080AC9000C1E0FCA3E0FD87
:101B5E00E412133F9000C3E075F00CA42410F5823C
:101B6E00E43400F583E0F8A3E0F9A3E0FAA3E0FB88
:101B7E0012109F9000C3E075F00CA4240CF582E4C3
:101B8E003400F583E0F8A3E0F9A3E0FAA3E0FB123A
:051B9E00129D121378F6
:011BA300221F
:081754009000C1EAF0A3EBF0E4
:10175C00E4FBFAC3ED9FFFEC9EFEA3F0A3EFF09029
:10176C000003E02FF0900002E03EF0D3A3E094B031
:10177C00900002E06480948440077404F0A374B079
:10178C00F0C3900003E09450900002E06480947BDE
:10179C00500774FBF0A37450F0900000E0FEA3E03F
:1017AC00FFC39000C4E09FFF9000C3E09E9000C573
:1017BC00F0A3EFF0900002E0FCA3E0FDEC12133F6D
:1017CC007B857AEB7951783F121194C004C005C027
:1017DC0006C0079000C3E0FCA3E0FDEC12133FE44D
:1017EC00FBFA79C87841121194A804A905AA06AB92
:1017FC0007D007D006D005D0041210A3C004C00532
:10180C00C006C0079000C5E0FCA3E0FDEC12133F3E
:10181C007B9A7A997999783F121194A804A905AA10
:10182C0006AB07D007D006D005D0041210A31213B4
:10183C0078AA06AB079000C3E0FFA3E0900000CFAE
:10184C00F0A3EFF09000C1E0FEA3E0FFC39BEA64BD
:10185C0080F8EE6480985004AA06AB07AE02AF0382
:01186C002259
:03000B0002203D93
:10203D00C0E0C083C082C0D090008220B305E00410
:10204D00F08002E4F090008320B205E004F08002FD
:10205D00E4F0900082E0D394504008E4F090000644
:10206D00E004F0900083E0D394504008E4F0900039
:0D207D0007E004F0D0D0D082D083D0E03254
:10244500438E805389F0758AC0758C63C28DD28C9A
:03245500D2A922E7
:03001B00021F12AF
:101F1200C0E0C083C082C0D075D000C000C006C07F
:101F220007900080E0FEA3E0FFD3900005E09FEE63
:101F32006480F8900004E06480985006D2B6C2B57E
:101F42008004C2B6D2B5900005E004F0700690009D
:101F520004E004F0D3900005E094D0900004E06423
:101F62008094874004E4F0A3F0D007D006D000D0DC
:081F7200D0D082D083D0E03210
:10245800438E8053890F758B18758DFCC28FD28E71
:03246800D2AB22D2
:10246B00C3EE648094805008C3E49FFFE49EFE2279
:01247B00223E
:10001E000000000000000000002F0000000007009C
:10002E00070000147F147F1400242A7F2A12006216
:10003E0064081323003649552250000005030000C2
:10004E0000001C224100000041221C000014083E4A
:10005E0008140008083E0808000000A06000000810
:10006E000808080800006060000000201008040264
:10007E00003E5149453E0000427F40000042615122
:10008E004946002141454B31001814127F100027BC
:10009E0045454539003C4A4949300001710905037F
:1000AE0000364949493600064949291E00003636B0
:1000BE000000000056360000000814224100001413
:1000CE0014141414000041221408000201510906F0
:1000DE0000324959513E007C1211127C007F494971
:1000EE004936003E41414122007F4141221C007FA2
:1000FE0049494941007F09090901003E4149497AB0
:10010E00007F0808087F0000417F41000020404129
:10011E003F01007F08142241007F40404040007F95
:10012E00020C027F007F0408107F003E4141413ED9
:10013E00007F09090906003E4151215E007F091921
:10014E0029460046494949310001017F0101003F1E
:10015E004040403F001F2040201F003F4038403F9E
:10016E000063140814630007087008070061514902
:10017E00454300007F41410000552A552A55000095
:10018E0041417F0000040201020400404040404013
:10019E00000001020400002054545478007F4844AB
:1001AE00443800384444442000384444487F0038E2
:1001BE005454541800087E0901020018A4A4A47C0B
:1001CE00007F080404780000447D400000408084D5
:1001DE007D00007F102844000000417F4000007C1D
:1001EE0004180478007C0804047800384444443829
:1001FE0000FC242424180018242418FC007C080475
:10020E00040800485454542000043F444020003C4D
:10021E004040207C001C2040201C003C4030403CD4
:10022E00004428102844001CA0A0A07C0044645464
:10023E004C441414141414140000000000000000A8
:10024E000000000000000000000000F800000000A8
:10025E00000000333000000000100C06100C0600E9
:10026E00000000000000000040C07840C078400050
:10027E00043F04043F040400007088FC08300000B2
:10028E00001820FF211E0000F008F000E01800000A
:10029E0000211C031E211E0000F0088870000000C3
:1002AE001E2123241927211010160E000000000015
:1002BE000000000000000000000000E01804020032
:1002CE00000000071820400000020418E0000000A3
:1002DE000040201807000000404080F080404000A1
:1002EE000202010F01020200000000F000000000F7
:1002FE000101011F010101000000000000000000CB
:10030E0080B070000000000000000000000000003F
:10031E0000010101010101010000000000000000C8
:10032E000030300000000000000000008060180463
:10033E00006018060100000000E010080810E00040
:10034E00000F102020100F00001010F80000000009
:10035E000020203F20200000007008080888700050
:10036E0000302824222130000030088888483000D0
:10037E000018202020110E000000C02010F80000F0
:10038E0000070424243F240000F808888808080089
:10039E000019212020110E0000E01088881800009E
:1003AE00000F112020110E0000380808C838080070
:1003BE000000003F000000000070880808887000F0
:1003CE00001C222121221C0000E010080810E00071
:1003DE000000312222110F00000000C0C0000000FA
:1003EE00000000303000000000000080000000001F
:1003FE000000806000000000000080402010080017
:10040E0000010204081020004040404040404000DF
:10041E0004040404040404000008102040800000BA
:10042E000020100804020100007048080808F000BF
:10043E000000003036010000C030C828E810E0008F
:10044E000718272423140B000000C038E00000001A
:10045E00203C23020227382008F888888870000084
:10046E00203F202020110E00C03008080808380058
:10047E00071820202010080008F808080810E000CF
:10048E00203F202020100F0008F88888E808100070
:10049E00203F20202320180008F88888E808100044
:1004AE00203F200003000000C0300808083800007C
:1004BE0007182020221E020008F808000008F8087D
:1004CE00203F210101213F20000808F80808000004
:1004DE000020203F2020000000000808F808080037
:1004EE00C08080807F00000008F888C028180800AF
:1004FE00203F20012638200008F8080000000000E8
:10050E00203F20202020300008F8F800F8F80800DE
:10051E00203F003F003F200008F830C00008F808D8
:10052E00203F200007183F00E01008080810E000E8
:10053E000F10202020100F0008F808080808F000FF
:10054E00203F210101010000E01008080810E00022
:10055E000F18242438504F0008F8888888887000B7
:10056E00203F2000030C3020007088080808380057
:10057E000038202121221C00180808F8080818004D
:10058E000000203F2000000008F808000008F808CE
:10059E00001F202020201F000878880000C838087F
:1005AE00000007380E010000F80800F80008F800F7
:1005BE00033C0700073C0300081868808068180891
:1005CE0020302C03032C30200838C800C83808000F
:1005DE000000203F2000000010080808C83808005E
:1005EE002038262120201800000000FE0202020002
:1005FE000000007F40404000000C30C000000000B2
:10060E00000000010638C00000020202FE000000D9
:10061E00004040407F00000000000402020204007F
:10062E0000000000000000000000000000000000BC
:10063E0080808080808080800002020400000000A4
:10064E00000000000000000000008080808000009C
:10065E000019242222223F2008F80080800000008A
:10066E00003F112020110E0000000080808000004D
:10067E00000E112020201100000000808088F8005C
:10068E00000E112020103F2000008080808000008E
:10069E00001F222222221300008080F088888818F2
:1006AE000020203F202000000000808080808000FD
:1006BE00006B94949493600008F800808080000092
:1006CE00203F210000203F2000809898000000006D
:1006DE000020203F2020000000000080989800009D
:1006EE0000C08080807F000008F8000080808000BD
:1006FE00203F24022D302000000808F800000000E2
:10070E000020203F2020000080808080808080009C
:10071E00203F20003F20003F80800080808000002E
:10072E00203F210000203F200000808080800000BC
:10073E00001F202020201F008080008080000000ED
:10074E0080FFA12020110E0000000080808080001C
:10075E00000E112020A0FF8080808000808080000D
:10076E0020203F212000010000008080808080003A
:10077E000033242424241900008080E080800000AF
:10078E000000001F202000008080000000808000FC
:10079E00001F202020103F2080808000008080805D
:1007AE0000010E30080601008080008000808080ED
:1007BE000F300C030C300F00008080008080800012
:1007CE000020312E0E31200080808000008080803D
:1007DE0080818E70180601000080808080808000ED
:1007EE000021302C2221300000000000807C02020B
:1007FE0000000000003F404000000000FF0000002D
:10080E0000000000FF0000000002027C80000000DB
:10081E000040403F000000000006010102020404F7
:10082E0000000000000000000000F010101010FF8B
:10083E0010101010F000000000000F04040404FF5C
:10084E00040404040F0000004040405F55555575E8
:10085E005555555F404040000040200F09498979A9
:10086E000909090F2040000000FE02424ACA4A4A06
:10087E00CA4A4A4202FE000000FF40504C4340402C
:10088E004F50505C40FF00000000F888888888FFB9
:10089E0088888888F800000000001F080808087F74
:1008AE00888888889F80F00080828282828282E29D
:1008BE00A2928A8682808000000000000040807F25
:1008CE000000000000000000101010FF10900888BB
:1008DE008888FF88888808000444827F01808040D1
:1008EE00432C1028468180000010101010D030FFCD
:1008FE0030D0121C1010000010080402010000FF7E
:08090E000000010204081000C2
:040003007F06DFFE97
:0100070022D6
:0F249E00D295D294120003C294120003C2952269
:0C24AD00C294D295120003D294020003E6
:10247C00C295A2019294120003D295120003C29548
:01248C00222D
:1021E500E49000DAF0A3F0D2947F01FE12248DD2A0
:1021F500957F017E0012248D30941F9000DBE00452
:10220500F070069000DAE004F0D39000DBE094E291
:0D2215009000DAE0940440E0D322C295C3AB
:012222002299
:0221A600AD0783
:1021A800C295C2941200037C077E007401A804083B
:1021B8008005C333CE33CED8F9FFEDFBEF5B600467
:1021C800D2948002C294120003D295120003C295E1
:0C21D8001200031CC3EC6480948050CD06
:0121E40022D8
:1022C700E4FE7D07C295120003D29530940DA80550
:1022D7007401088002C333D8FC4EFE1200031DC3ED
:1022E700ED6480948050DDA200920112247CAF0639
:0122F70022C4
:10216200F583E5822FF582E5833EF583E493FF7DD7
:01217200016B
:102173009000D8EFF0A3EDF012249E7F781221A6F1
:102183001221E59000D9E060047F408002E4FF1251
:1021930021A61221E59000D8E0FF1221A61221E525
:0321A3000224AD66
:1023E8009000EFEFF07006FD7FA61221739000EFCA
:0C23F800E0B40107E4FD7FA7122173226E
:102351009000F0EFF0700DFD7FC8122173E4FD7F56
:10236100A11221739000F0E0B4010EE4FD7FC012D0
:0A2371002173E4FD7FA01221732206
:07229500E0FFA3E0FD04F0EF
:10229C009000D7EFF0ED24B0FFE4FD122173900015
:1022AC00D7E054F0C4540F4410FFE4FD1221739096
:0B22BC0000D7E0540FFFE4FD02217387
:10241B00E4FD7F8D122173E4FD7F14122173E4FD23
:05242B007FAF022173E8
:10243000E4FD7F8D122173E4FD7F10122173E4FD12
:052440007FAE022173D4
:10211C00E49000C1F09000C1E0FFC394085036EF8A
:10212C0024B0FFE4FD122173E4FDFF122173E4FDE2
:10213C007F10122173E49000C2F07D01E4FF1221A4
:10214C00739000C2E004F0E0C3948040ED9000C1B5
:05215C00E004F080C06A
:01216100225B
:08186D009000CDEFF0A3EDF0B7
:10187500E49000D1F09000D0E0FFC313FD9000D2BA
:10188500F0E4A3F0A3F0EFB40809A3E4F0A3740611
:10189500F080319000D0E0FF131313541FF58275CB
:1018A5008300EF54077E0060047F0180027F00EF14
:1018B5002582FFEE3583FE7C0012151C9000D5EEC7
:1018C500F0A3EFF0EB24E09000D1F09000CDE0FF25
:1018D500A3E0FD12229CE49000D3F0A3F09000D584
:1018E500E0FCA3E0FD9000D3E0FEA3E0FFC39DEE86
:1018F5009C50709000D2E0FD7C0012152EED4C70CE
:101905000E9000D0E0640860069000CD12229590FC
:1019150000D0E0B4081A9000D3E0FEA3E0FF9000E9
:10192500D1E075F006A4241EF582E5F03400801F91
:101935009000D0E0B4102C9000D3E0FEA3E0FF901F
:1019450000D1E075F010A42446F582E5F0340212CA
:1019550021629000D4E004F070069000D3E004F01A
:031965000218E283
:01196800225C
:08208A009000CDEFF0A3EDF092
:10209200A3121717000000019000CEE0FF14F0EF2A
:1020A2006020A3E0F8A3E0F9A3E0FAA3E0FB90002C
:1020B200CDE0FFE4FCFDFE1215CF9000CF12170B0E
:1020C20080D69000CFE0FCA3E0FDA3E0FEA3E0FFFA
:0120D20022EB
:081969009000C1EFF0A3EDF0C6
:10197100E49000CBF0A3F09000C8E0B4080690001A
:10198100CB7402F0E49000C9F09000C7E0FF900032
:10199100C9E0FEC39F4003021A47C3EF9E14FD7FB7
:1019A1000A12208AA804A905AA06AB079000C3E081
:1019B100FCA3E0FDA3E0FEA3E0FF12165AE47B0ABC
:1019C100FAF9F812165A9000CAEBF09000CCE070C8
:1019D1003C9000C7E014FF9000C9E0FEC39F502D6A
:1019E100A3E070239000C8E0FCC313FF9000CBE09C
:1019F1002F8EF0A4FF9000C1E02FFFA3E0FD900027
:101A0100D0ECF07B2080339000CC7401F09000C8C2
:101A1100E0FEC313FF9000CBE02FFF9000C9E0FD73
:101A2100EF8DF0A4FF9000C1E02FFFA3E0FD900037
:101A3100CAE02430FB9000D0EEF012186D9000C97E
:061A4100E004F002198A26
:011A4700227C
:101EA2009000C1EFF0A3EDF0A3EBF0A3EAF0A3E9F9
:011EB200F03F
:101EB300E49000C7F09000C3E0FBA3E0FAA3E0F9CD
:101EC3009000C7E0F5827583001214EF6040900024
:101ED300C1E0FFA3E0FD9000C7E0FE04F08E827531
:101EE30083001214EFFB9000C6E09000D0F01218AC
:101EF3006D9000C6E0FFB408099000C1E02406F02D
:0E1F030080B3EFC313FF9000C1E02FF080A762
:011F110022AD
:0B1CE7009000E7EFF0A3EDF0A3EBF09E
:101CF200A3E0FF131313541FFD7C00EF54077E0073
:101D020060047F0180027F00EF2DFFEE3CFE900019
:101D1200EAE0FD7C0012151C9000EDEEF0A3EFF05E
:101D2200E49000EBF0A3F09000EDE0FCA3E0FD9066
:101D320000EBE0FEA3E0FFC39DEE9C50439000EA5F
:101D4200E0FD7C0012152EED4C70069000E7122289
:101D5200959000EAE0B41028A3E0FEA3E0FF900013
:101D6200E9E0C43354E02436F582E43408122162F7
:101D72009000ECE004F070AF9000EBE004F080A77C
:011D8200223E
:0B1D83009000DCEFF0A3EDF0A3EBF00C
:101D8E00E49000E3F0A3F09000DFE0FF1313135490
:101D9E001FFEEF540760047F0180027F00EE2F903C
:101DAE0000DFF0E49000E5F09000DFE0FF9000E54A
:101DBE00E0FEC39F50519000DCE0FFA3E0FDEE2D4E
:101DCE00FD12229CE49000E6F09000DEE0FF900011
:101DDE00E6E0C39F50299000E0E0FBA3E0FAA3E009
:101DEE00F9A3E475F0011215B985F082F58312148A
:101DFE00EFFF7D011221739000E6E004F080CA909F
:071E0E0000E5E004F080A1F3
:011E150022AA
:0524D100E4FD0221738F
:101BA4007FC87E001224047FAE1224D17FA81224A1
:101BB400D17F1F1224D17FD31224D1E4FF1224D168
:101BC4007F401224D17FA01224D17FC01224D17F60
:101BD400811224D17F7F1224D17FA41224D17FA625
:101BE4001224D17FD51224D17F801224D17F8D126B
:101BF40024D17F141224D17F2E1224D17F201224C9
:101C0400D17F101224D17FDA1224D17F021224D181
:101C14007FD91224D17F221224D17FDB1224D17FD9
:101C2400201224D17FB01224D1E4FF1224D17F10DA
:101C34001224D17FAF1224D17F2C7E0112240402FE
:021C4400211C61
:102404007DA07C0FED1D70011C144C70F7EF1F7044
:06241400011E144E70EAE7
:01241A00229F
:10248D007C007D0512151CEF1F70011E144E70F798
:01249D00221C
:1022F8009000C4EFF0A3EDF012249E7FD21221A625
:102308001221E59000C4E0FF1221A61221E59000F9
:0F231800C5E0FF1221A61221E51224AD7F00229D
:052223009000C3EFF084
:1022280012249E7FD21221A61221E59000C3E0FF5E
:102238001221A61221E512249E7FD31221A6122173
:10224800E5D2001222C79000C4EFF01224AD90002E
:03225800C4E0FFE0
:01225B002260
:0C24B900EF33333354F8FD7F1B0222F890
:0C24C500EF33333354F8FD7F1C0222F883
:1020D300E4FDC3EF94BCEE940040030D8036C3EFE0
:1020E3009462EE940040047D028029C3EF942AEEAB
:1020F300940040047D03801CC3EF9414EE940040CD
:10210300047D04800FC3EF940AEE940040047D0520
:0921130080027D067F1A0222F809
:081FE2009000C1EEF0A3EFF046
:101FEA00D394E8EE9403400A9000C17403F0A374FA
:101FFA00E8F0C39000C2E094049000C1E09400505D
:10200A0006E4F0A37404F09000C1E0FCA3E0FD7EB6
:10201A00037FE812152EEF14A3F0FD7F191222F8A0
:10202A009000C3EFF09000C1E0C313FEA3E013FFDA
:03203A000220D3AE
:101F7A007D807F6B1222F87F647E00122404E4FDC8
:101F8A007F6B1222F87F031224B9E4FF1224C57F63
:101F9A00327E00121FE2E4FD7F381222F8E4FD7F50
:101FAA006A1222F87DFF7F231222F87D807F371282
:101FBA0022F87F75122223EFB469177D017F6B1215
:101FCA0022F8E4FD7F6C1222F87FC87E00121FE21D
:071FDA0080037F01227F005C
:011FE10022DD
:05237B009000C1EFF02D
:102380001222239000C2EFF09000C1E004FF12225D
:1023900023AD079000C2E0FE7C00E42DFFEC3EFE82
:0123A000221A
:10225C007F411222239000F1EFF07F42122223AD36
:10226C00079000F1E0FE7C00E42DFFEC3EFEAD0794
:10227C00FC12133FE4FBFA79AA784312129D7BB847
:09228C007A1E791278420210A3B7
:10109C000213E4E86480F8E933E83360110460F08B
:1010AC00ED33EC337009E8FCE9FDEAFEEBFF2204BA
:1010BC0060DED3EB9FEA9EE99DE8C2E78CF0C2F7B5
:1010CC0095F0400CE8CCF8E9CDF9EACEFAEBCFFB81
:1010DC001213AF85D0F05804700320D5B3E8047018
:1010EC00075002B2D50213EE92D5EC0460F7E4CCB3
:1010FC00C0E0C398F8603B94186008400DD0E0FB4A
:10110C000213C6E4FBFAC9FC8028E830E406E4C903
:10111C00FBE4CAFCE830E305E4C9CACBFCE854079D
:10112C006010F8C3E913F9EA13FAEB13FBEC13FCA8
:10113C00D8F130F52FC3E49CFCEF9BFFEE9AFEED4B
:10114C0099FDD0E0FBEF4E4D4C701222DB030213E5
:10115C00EBEC2CFCEF33FFEE33FEED33FDED30E723
:10116C00EB0213C6EF2BFFEE3AFEED39FDD0E0FBA0
:10117C0050130BBB00030213EEED13FDEE13FEEF49
:08118C0013FFEC13FC0213C673
:10119400EC4D6011E8497017ED33EC3304600DE455
:1011A400FCFFFEFD22E933E8330470F80213E41275
:1011B40013AF58046009E4CC248150062850090276
:1011C40013EE2840030213EBC0E0EB4A7044B980ED
:1011D40006D0E0FB0213DAEF4E701CBD8008EBFF73
:1011E400EAFEE9FD80EBE98DF0A4FEE5F002127D54
:1011F400E9CDF9EAFEEBFFEF89F0A4FCE5F0CE8936
:10120400F0A42EFFE435F0CD89F0A42DFEE435F0F2
:101214008067EF4E7005BD80D780C3EF8BF0A4AC20
:10122400F0EE8BF0A42CFCE435F0F8EF8AF0A42C5B
:10123400E5F038FCE433CB8DF0A42CFCE5F03BF86E
:10124400EE8AF0A42CFCE5F038F8E433CF89F0A45E
:101254002CFCE5F038CF3400CE89F0A42FFFE5F064
:101264003EFEE433C98DF0A42EFEE5F039CD8AF0BC
:10127400A42FFFE5F03EFEE43DFD33D0E0FB500734
:101284000BBB000F0213EEEC2CFCEF33FFEE33FE2E
:06129400ED33FD0213C65C
:10129A000213EEEC5D046005E8590470030213E4DE
:1012AA001213AF580460F6EC4860F2EC7004FDFECD
:1012BA00FF22C860DB2481C85009C3986002500627
:1012CA000213EB9850CAF582E9294B4A7005AB82A2
:1012DA000213DA75F0007C1A7880C3EF9BEE9AED60
:1012EA0099400DC3EF9BFFEE9AFEED99FDE842F09F
:1012FA00DC23ACF0D0E0FFD0E0FED0E0FDAB8220F2
:10130A00E7101BEB60BAEC2CFCEF33FFEE33FEED7B
:10131A0033FD0213C6E803F830E705C0F075F000A4
:10132A00EF2FFFEE33FEED33FD40B830E7C280AA5F
:10133A0075F020800E75F010800575F0087D007E2E
:10134A00007F003392D530D5031216ECEC334010EF
:10135A00EF33FFEE33FEED33FDEC33FCD5F0ED2237
:0E136A00E5F0247EA2D513CC92E7CDCEFF2273
:10137800EDD2E7CD33EC3392D524814006E4FFFE6D
:10138800FDFC22FCE4CFCECDCC24E0501174FF80CC
:10139800EDC3CC13CCCD13CDCE13CECF13CF047069
:0713A800F030D5DE0216EC67
:1013AF00E9D2E7C933E833F892D5EDD2E7CD33EC84
:0713BF0033FC5002B2D522FD
:1013C600EC30E7100FBF000C0EBE00080DBD000488
:1013D6000BEB6014A2D5EB13FCED92E7FD2274FF34
:1013E600FCFDFEFF22E480F8A2D574FF13FC7D808D
:0313F600E480EFA1
:03000000021E16C7
:0C1E1600787FE4F6D8FD758120021E5D87
:1013F900E709F608DFFA8046E709F208DFFA803ED6
:1014090088828C83E709F0A3DFFA8032E309F608C2
:10141900DFFA8078E309F208DFFA807088828C832A
:10142900E309F0A3DFFA806489828A83E0A3F608DE
:10143900DFFA805889828A83E0A3F208DFFA804CB8
:1014490080D280FA80C680D4806980F2803380108F
:1014590080A680EA809A80A880DA80E280CA8033F8
:1014690089828A83ECFAE493A3C8C582C8CCC58370
:10147900CCF0A3C8C582C8CCC583CCDFE9DEE78040
:101489000D89828A83E493A3F608DFF9ECFAA9F0BF
:10149900EDFB2289828A83ECFAE0A3C8C582C8CC15
:1014A900C583CCF0A3C8C582C8CCC583CCDFEADE2E
:1014B900E880DB89828A83E493A3F208DFF980CC90
:1014C90088F0EF60010E4E60C388F0ED2402B40489
:1014D9000050B9F582EB2402B4040050AF23234530
:0614E900822390144973F8
:1014EF00BB010CE58229F582E5833AF583E02250B2
:1014FF0006E92582F8E622BBFE06E92582F8E222FC
:0D150F00E58229F582E5833AF583E4932215
:10151C00EF8DF0A4A8F0CF8CF0A428CE8DF0A42EE3
:02152C00FE229D
:10152E00BC000BBE0029EF8DF084FFADF022E4CCA1
:10153E00F875F008EF2FFFEE33FEEC33FCEE9DEC6A
:10154E00984005FCEE9DFE0FD5F0E9E4CEFD22EDB0
:10155E00F8F5F0EE8420D21CFEADF075F008EF2FFA
:10156E00FFED33FD4007985006D5F0F222C398FDEB
:05157E000FD5F0EA2288
:10158300C2D5EC30E709B2D5E4C39DFDE49CFCEE83
:1015930030E715B2D5E4C39FFFE49EFE12152EC3B8
:1015A300E49DFDE49CFC800312152E30D507C3E4B3
:0615B3009FFFE49EFE22F2
:1015B900A3F8E0C5F025F0F0E582158270021583E5
:0615C900E0C838F0E82242
:1015CF00E88FF0A4CC8BF0A42CFCE98EF0A42CFCBB
:1015DF008AF0EDA42CFCEA8EF0A4CDA8F08BF0A439
:1015EF002DCC3825F0FDE98FF0A42CCD35F0FCEB98
:1015FF008EF0A4FEA9F0EB8FF0A4CFC5F02ECD395D
:0F160F00FEE43CFCEAA42DCE35F0FDE43CFC22C9
:10161E0075F008758200EF2FFFEE33FECD33CDCC83
:10162E0033CCC58233C5829BED9AEC99E582984006
:10163E000CF582EE9BFEED9AFDEC99FC0FD5F0D6E3
:10164E00E4CEFBE4CDFAE4CCF9A88222B800C1B90D
:10165E000059BA002DEC8BF084CFCECDFCE5F0CB4B
:10166E00F97818EF2FFFEE33FEED33FDEC33FCEB84
:10167E0033FB10D703994004EB99FB0FD8E5E4F93F
:10168E00FA227818EF2FFFEE33FEED33FDEC33FC2C
:10169E00C933C910D7059BE99A4007EC9BFCE99A20
:1016AE00F90FD8E0E4C9FAE4CCFB2275F010EF2F65
:1016BE00FFEE33FEED33FDCC33CCC833C810D70765
:1016CE009BEC9AE899400AED9BFDEC9AFCE899F8A0
:0E16DE000FD5F0DAE4CDFBE4CCFAE4C8F92233
:0E16EC00C3E49FFFE49EFEE49DFDE49CFC220F
:1016FA00EB9FF5F0EA9E42F0E99D42F0E89C45F046
:01170A0022BC
:0C170B00ECF0A3EDF0A3EEF0A3EFF02251
:10171700A8828583F0D083D08212172E12172E123B
:10172700172E12172EE473E493A3C583C5F0C58360
:10173700C8C582C8F0A3C583C5F0C583C8C582C81C
:01174700227F
:0C174800A42582F582E5F03583F58322AC
:101E2200020916E493A3F8E493A34003F68001F2B7
:101E320008DFF48029E493A3F85407240CC8C333C1
:101E4200C4540F4420C8834004F456800146F6DF90
:101E5200E4800B0102040810204080901C46E47EBE
:101E6200019360BCA3FF543F30E509541FFEE49385
:101E7200A360010ECF54C025E060A840B8E493A34C
:101E8200FAE493A3F8E493A3C8C582C8CAC583CA77
:101E9200F0A3C8C582C8CAC583CADFE9DEE780BE2F
:011CE60000FD
:00000001FF
