:10229E005365743A00506F773A00536C703A0000F1
:1022AE000000000000000000000000000000000020
:0322BE000000001D
:101B1F0041008200410083004100060041000700A0
:101B2F0042008000004200040000607800080000BE
:101B3F00000000000000000000000032005A00000A
:101B4F00000000000000006400FE00000000000024
:101B5F0000000096015E000000000000000000C8B9
:101B6F0001E8000000000000000000FA026C000015
:101B7F00000000000000012C031200000000000014
:101B8F000000015E039A00000000000000000190B9
:101B9F000424000000000000000001C204E2000065
:101BAF0000000000000042000000004200020000A0
:100FCE00900084120F910000000078887C007D0153
:100FDE007BFF7A2279AD7E007F14120D439000AC18
:100FEE00120F91000000009000B07401F0A3745E27
:100FFE00F0A37401F0A3745EF0E49000B6F0A3F0D9
:10100E00A3F0A3F0A3F0A3F0A3F0A3F09000C0F020
:10101E009000C0E0FF75F00CA4240AF582E43400C1
:10102E00F583E0FCA3E0FDEF75F00CA42416F58229
:10103E00E43400F583E0FEA3E0C39DFDEE9CFC12BC
:10104E000BB9E4FBFA79487842120B179000C0E016
:10105E00FB75F00CA4240CF582E43400F583120F1A
:10106E0085EB75F00CA42408F582E43400F583E0DA
:10107E00FCA3E0FDEC120BB99000C0E075F00CA4DF
:10108E00240CF582E43400F583E0F8A3E0F9A3E044
:10109E00FAA3E0FB120A0EC004C005C006C00790FA
:1010AE0000C0E075F00CA4240AF582E43400F58348
:1010BE00E0FCA3E0FDEC120BB9D003D002D001D0BE
:1010CE00001209199000C0E075F00CA42410F582EE
:1010DE00E43400F583120F859000C0E004F0E06464
:1010EE0009600302101E12227A121A7D12000E12CD
:1010FE00231E122331121E53D2AFC2B67BFF7A22A9
:10110E00799E9000C67408F0E4FD7F48121D7B7B2B
:10111E00FF7A2279A39000C67408F07D017F4812F1
:10112E001D7B7BFF7A2279A89000C67408F07D02A1
:10113E007F48121D7B9000B0E0FEA3E0FFE4FCFDB3
:10114E009000C3120F859000C77403F0A37408F0CB
:10115E00E4FD7F66121842C2ABE4900004F0A3F0E7
:10116E00C2B6D2B57FC27E01122366E4FF12220000
:10117E00E4FCFD9000ACA3A3E0FAA3E09000887518
:10118E00F004120FC2EA25E025E02583F583120F45
:10119E00859000ACA3A3E0FEA3E090008875F00458
:1011AE00120FC2EE25E025E02583F583E0FCA3E0D7
:1011BE00FDA3E0FEA3E0FFE47BE47A0CF9F8120E47
:1011CE0049E4FB7A10F9F8120ED49000ACA3A3E018
:1011DE00FAA3E090008875F004120FC2EA25E0250C
:1011EE00E02583F583120F859000ACE0FCA3E0FDB3
:1011FE00A3E0FEA3E02401FFE43EFEE43DFDE43C5B
:10120E00FC9000AC120F85E47F05FEFDFC9000AC57
:10121E00E0F8A3E0F9A3E0FAA3E0FBC3120F7470A9
:10122E000A9000AC120F9100000000D2AB9000B0FB
:10123E00E0FEA3E0FF1219219000B4EEF0A3EFF050
:10124E00900088E0FCA3E0FDA3E0FEA3E0FF900089
:10125E009C120F85900088E0FCA3E0FDA3E0FEA3A6
:10126E00E0FF9000A0120F859000A4120F910000D5
:10127E000000E49000C0F09000C0E0FFC394054071
:10128E0003021378EF25E025E02488F582E434008C
:10129E00F583E0FCA3E0FDA3E0FEA3E0FF9000A039
:1012AE00E0F8A3E0F9A3E0FAA3E0FBD3120F744039
:1012BE00229000C0E025E025E02488F582E4340089
:1012CE00F583E0FCA3E0FDA3E0FEA3E0FF9000A009
:1012DE00120F859000C0E025E025E02488F582E419
:1012EE003400F583E0FCA3E0FDA3E0FEA3E0FF9055
:1012FE00009CE0F8A3E0F9A3E0FAA3E0FBC3120F11
:10130E007450229000C0E025E025E02488F582E4A8
:10131E003400F583E0FCA3E0FDA3E0FEA3E0FF9024
:10132E00009C120F859000A4E0FCA3E0FDA3E0FE5C
:10133E00A3E0FF9000C0E025E025E02488F582E4DC
:10134E003400F583E0F8A3E0F9A3E0FAA3E0FBEFA5
:10135E002BFFEE3AFEED39FDEC38FC9000A4120F97
:10136E00859000C0E004F002128590009CE0F8A386
:10137E00E0F9A3E0FAA3E0FB9000A4E0FCA3E0FDFB
:10138E00A3E0FEA3E0C39BFFEE9AFEED99FDEC9861
:10139E00FC9000A0E0F8A3E0F9A3E0FAA3E0FBC301
:1013AE00EF9BFFEE9AFEED99FDEC98FCE47B03FAC1
:1013BE00F9F8120ED49000A8120F859000A8A3A3DE
:1013CE00E0FEA3E0FF9000B4E0FCA3E0FD7BD07A4A
:1013DE000712162E900080EEF0A3EFF09000A8A357
:1013EE00A3E0FEA3E0FF1219CFE4FCFD9000C312B0
:1013FE000F859000C77403F0A37410F0E4FD7F20F6
:10140E001218427F451222549000B6EEF0FCA3EF64
:10141E00F0FD9000BAE0FEA3E0FFC3ED9FFFEC9E4F
:10142E00FE9000B8F0A3EFF0A3ECF0A3EDF01223C2
:10143E0044C3EF9414EE6480948050109000BDE08D
:10144E0004F0700F9000BCE004F08007E49000BC44
:10145E00F0A3F09000BCE0FEA3E0FF7C007D141230
:10146E000DFDD3EF9458EE648094824009E4900011
:10147E00B0F0A3F08025D3EF942CEE6480948140DD
:10148E000B9000B0E4F0A374C8F0800F9000B2E0AF
:10149E00FFA3E09000B0CFF0A3EFF07F0112220087
:1014AE00AC06AD07E4120BB9900084120F857F00D5
:1014BE007E407D4E7C45900084E0F8A3E0F9A3E0E9
:1014CE00FAA3E0FB120A0EE4FBFA79807845120BC0
:1014DE0017900084120F85E4FBFA797A7844900015
:1014EE0084E0FCA3E0FDA3E0FEA3E0FF120B177463
:1014FE0033FBFAF97841120A0E900084120F85E43C
:10150E00FFFE7D207C41900084E0F8A3E0F9A3E08B
:10151E00FAA3E0FB120A0E120BF29000C3120F8513
:10152E009000C77403F0A37408F07D017F66121853
:10153E00429000BCE0FEA3E0FF7C007D14120DFD86
:10154E00EE3395E0FDFC9000C3120F859000C7743A
:10155E0003F0A37408F07D027F6612184290000615
:10156E00E0600BA3E06007E4900006F0A3F09000AB
:10157E0006E0FF604E9000B1E02FF09000B0E03436
:10158E0000F0D3A3E094C29000B0E0940140077441
:10159E0001F0A374C2F09000B0E0FEA3E0FFA3EE52
:1015AE00F0A3EFF0E4FCFD9000C3120F859000C78E
:1015BE007403F0A37408F0E4FD7F66121842E49001
:1015CE000006F0900007E0FF604CC39000B1E09F72
:1015DE00FF9000B0E09400FEF0A3EFF0C3EE940095
:1015EE005007E49000B0F0A3F09000B0E0FEA3E04E
:1015FE00FFA3EEF0A3EFF0E4FCFD9000C3120F8505
:10160E009000C77403F0A37408F0E4FD7F6612180F
:10161E0042E4900007F07F327E001222DD02116557
:10227A0043BA8043B26053B19F4392304391305383
:10228A0092FC43910353B2F353B1F3D2B3D2B2D215
:04229A0095D2942223
:0D000E0090FEA8743FF075DE0F75BC8022D7
:1022000043BC4053BCF0EF42BC0000E5BC30E5FBF2
:1022100053BCDF85BDA0AFBDEF75F010A4FFAEF0DD
:0A222000E5BEC4540FFDEF4DFF2290
:081921009000C1EEF0A3EFF00D
:10192900E4A3F0F09000C3E0FFC39409504AEF75B7
:10193900F00CA42408F582E43400F583E0FEA3E06A
:10194900FF9000C1E0FCA3E0FDC39FEC9E4021A3F2
:10195900E075F00CA42414F582E43400F583E0FE6C
:10196900A3E0FFC3ED9FEC9E50069000C1A3801039
:101979009000C3E004F080AC9000C1E0FCA3E0FD5E
:10198900E4120BB99000C3E075F00CA4240CF582A5
:10199900E43400F583E0F8A3E0F9A3E0FAA3E0FB5F
:1019A900120A0E9000C3E075F00CA42410F582E42D
:1019B9003400F583E0F8A3E0F9A3E0FAA3E0FB1211
:0519C900091D120BF2E4
:0119CE0022F6
:0819CF009000C1EEF0A3EFF05F
:1019D700E4A3F0F09000C3E0FFC39409504AEF7509
:1019E700F00CA4240AF582E43400F583E0FEA3E0BA
:1019F700FF9000C1E0FCA3E0FDC39FEC9E4021A344
:101A0700E075F00CA42416F582E43400F583E0FEBB
:101A1700A3E0FFC3ED9FEC9E50069000C1A380108A
:101A27009000C3E004F080AC9000C1E0FCA3E0FDAF
:101A3700E4120BB99000C3E075F00CA42410F582F2
:101A4700E43400F583E0F8A3E0F9A3E0FAA3E0FBB0
:101A57001209199000C3E075F00CA4240CF582E478
:101A67003400F583E0F8A3E0F9A3E0FAA3E0FB1262
:051A77000B17120BF239
:011A7C002247
:08162E009000C1EAF0A3EBF00B
:10163600E4FBFAC3ED9FFFEC9EFEA3F0A3EFF09050
:101646000003E02FF0900002E03EF0D3A3E094B058
:10165600900002E06480948440077404F0A374B0A0
:10166600F0C3900003E09450900002E06480947B05
:10167600500774FBF0A37450F0900000E0FEA3E066
:10168600FFC39000C4E09FFF9000C3E09E9000C59A
:10169600F0A3EFF0900002E0FCA3E0FDEC120BB922
:1016A6007B857AEB7951783F120A0EC004C005C0DB
:1016B60006C0079000C3E0FCA3E0FDEC120BB9E402
:1016C600FBFA79807841120A0EA804A905AA06AB8E
:1016D60007D007D006D005D00412091DC004C005E6
:1016E600C006C0079000C5E0FCA3E0FDEC120BB9F4
:1016F6007433FBFAF9783F120A0EA804A905AA0664
:10170600AB07D007D006D005D00412091D120BF284
:10171600AA06AB079000C3E0FFA3E0900000CFF05D
:10172600A3EFF09000C1E0FEA3E0FFC39BEA648054
:0F173600F8EE6480985004AA06AB07AE02AF032A
:011745002281
:03000B00021F16BB
:101F1600C0E0C083C082C0D090008220B305E00438
:101F2600F08002E4F090008320B205E004F0800225
:101F3600E4F0900082E0D394504008E4F09000066C
:101F4600E004F0900083E0D394504008E4F0900061
:0D1F560007E004F0D0D0D082D083D0E0327C
:10231E00438E805389F0758AC0758C63C28DD28CC2
:03232E00D2A9220F
:03001B00021DEBD8
:101DEB00C0E0C083C082C0D075D000C000C006C0A8
:101DFB0007900080E0FEA3E0FFD3900005E09FEE8C
:101E0B006480F8900004E06480985006D2B6C2B5A6
:101E1B008004C2B6D2B5900005E004F070069000C5
:101E2B0004E004F0D3900005E094D0900004E0644B
:101E3B008094874004E4F0A3F0D007D006D000D004
:081E4B00D0D082D083D0E03238
:10233100438E8053890F758B18758DFCC28FD28E99
:03234100D2AB22FA
:10234400C3EE648094805008C3E49FFFE49EFE22A1
:012354002266
:10001E000000000000000000002F0000000007009C
:10002E00070000147F147F1400242A7F2A12006216
:10003E0064081323003649552250000005030000C2
:10004E0000001C224100000041221C000014083E4A
:10005E0008140008083E0808000000A06000000810
:10006E000808080800006060000000201008040264
:10007E00003E5149453E0000427F40000042615122
:10008E004946002141454B31001814127F100027BC
:10009E0045454539003C4A4949300001710905037F
:1000AE0000364949493600064949291E00003636B0
:1000BE000000000056360000000814224100001413
:1000CE0014141414000041221408000201510906F0
:1000DE0000324959513E007C1211127C007F494971
:1000EE004936003E41414122007F4141221C007FA2
:1000FE0049494941007F09090901003E4149497AB0
:10010E00007F0808087F0000417F41000020404129
:10011E003F01007F08142241007F40404040007F95
:10012E00020C027F007F0408107F003E4141413ED9
:10013E00007F09090906003E4151215E007F091921
:10014E0029460046494949310001017F0101003F1E
:10015E004040403F001F2040201F003F4038403F9E
:10016E000063140814630007087008070061514902
:10017E00454300007F41410000552A552A55000095
:10018E0041417F0000040201020400404040404013
:10019E00000001020400002054545478007F4844AB
:1001AE00443800384444442000384444487F0038E2
:1001BE005454541800087E0901020018A4A4A47C0B
:1001CE00007F080404780000447D400000408084D5
:1001DE007D00007F102844000000417F4000007C1D
:1001EE0004180478007C0804047800384444443829
:1001FE0000FC242424180018242418FC007C080475
:10020E00040800485454542000043F444020003C4D
:10021E004040207C001C2040201C003C4030403CD4
:10022E00004428102844001CA0A0A07C0044645464
:10023E004C441414141414140000000000000000A8
:10024E000000000000000000000000F800000000A8
:10025E00000000333000000000100C06100C0600E9
:10026E00000000000000000040C07840C078400050
:10027E00043F04043F040400007088FC08300000B2
:10028E00001820FF211E0000F008F000E01800000A
:10029E0000211C031E211E0000F0088870000000C3
:1002AE001E2123241927211010160E000000000015
:1002BE000000000000000000000000E01804020032
:1002CE00000000071820400000020418E0000000A3
:1002DE000040201807000000404080F080404000A1
:1002EE000202010F01020200000000F000000000F7
:1002FE000101011F010101000000000000000000CB
:10030E0080B070000000000000000000000000003F
:10031E0000010101010101010000000000000000C8
:10032E000030300000000000000000008060180463
:10033E00006018060100000000E010080810E00040
:10034E00000F102020100F00001010F80000000009
:10035E000020203F20200000007008080888700050
:10036E0000302824222130000030088888483000D0
:10037E000018202020110E000000C02010F80000F0
:10038E0000070424243F240000F808888808080089
:10039E000019212020110E0000E01088881800009E
:1003AE00000F112020110E0000380808C838080070
:1003BE000000003F000000000070880808887000F0
:1003CE00001C222121221C0000E010080810E00071
:1003DE000000312222110F00000000C0C0000000FA
:1003EE00000000303000000000000080000000001F
:1003FE000000806000000000000080402010080017
:10040E0000010204081020004040404040404000DF
:10041E0004040404040404000008102040800000BA
:10042E000020100804020100007048080808F000BF
:10043E000000003036010000C030C828E810E0008F
:10044E000718272423140B000000C038E00000001A
:10045E00203C23020227382008F888888870000084
:10046E00203F202020110E00C03008080808380058
:10047E00071820202010080008F808080810E000CF
:10048E00203F202020100F0008F88888E808100070
:10049E00203F20202320180008F88888E808100044
:1004AE00203F200003000000C0300808083800007C
:1004BE0007182020221E020008F808000008F8087D
:1004CE00203F210101213F20000808F80808000004
:1004DE000020203F2020000000000808F808080037
:1004EE00C08080807F00000008F888C028180800AF
:1004FE00203F20012638200008F8080000000000E8
:10050E00203F20202020300008F8F800F8F80800DE
:10051E00203F003F003F200008F830C00008F808D8
:10052E00203F200007183F00E01008080810E000E8
:10053E000F10202020100F0008F808080808F000FF
:10054E00203F210101010000E01008080810E00022
:10055E000F18242438504F0008F8888888887000B7
:10056E00203F2000030C3020007088080808380057
:10057E000038202121221C00180808F8080818004D
:10058E000000203F2000000008F808000008F808CE
:10059E00001F202020201F000878880000C838087F
:1005AE00000007380E010000F80800F80008F800F7
:1005BE00033C0700073C0300081868808068180891
:1005CE0020302C03032C30200838C800C83808000F
:1005DE000000203F2000000010080808C83808005E
:1005EE002038262120201800000000FE0202020002
:1005FE000000007F40404000000C30C000000000B2
:10060E00000000010638C00000020202FE000000D9
:10061E00004040407F00000000000402020204007F
:10062E0000000000000000000000000000000000BC
:10063E0080808080808080800002020400000000A4
:10064E00000000000000000000008080808000009C
:10065E000019242222223F2008F80080800000008A
:10066E00003F112020110E0000000080808000004D
:10067E00000E112020201100000000808088F8005C
:10068E00000E112020103F2000008080808000008E
:10069E00001F222222221300008080F088888818F2
:1006AE000020203F202000000000808080808000FD
:1006BE00006B94949493600008F800808080000092
:1006CE00203F210000203F2000809898000000006D
:1006DE000020203F2020000000000080989800009D
:1006EE0000C08080807F000008F8000080808000BD
:1006FE00203F24022D302000000808F800000000E2
:10070E000020203F2020000080808080808080009C
:10071E00203F20003F20003F80800080808000002E
:10072E00203F210000203F200000808080800000BC
:10073E00001F202020201F008080008080000000ED
:10074E0080FFA12020110E0000000080808080001C
:10075E00000E112020A0FF8080808000808080000D
:10076E0020203F212000010000008080808080003A
:10077E000033242424241900008080E080800000AF
:10078E000000001F202000008080000000808000FC
:10079E00001F202020103F2080808000008080805D
:1007AE0000010E30080601008080008000808080ED
:1007BE000F300C030C300F00008080008080800012
:1007CE000020312E0E31200080808000008080803D
:1007DE0080818E70180601000080808080808000ED
:1007EE000021302C2221300000000000807C02020B
:1007FE0000000000003F404000000000FF0000002D
:10080E0000000000FF0000000002027C80000000DB
:10081E000040403F000000000006010102020404F7
:10082E0000000000000000000000F010101010FF8B
:10083E0010101010F000000000000F04040404FF5C
:10084E00040404040F0000004040405F55555575E8
:10085E005555555F404040000040200F09498979A9
:10086E000909090F2040000000FE02424ACA4A4A06
:10087E00CA4A4A4202FE000000FF40504C4340402C
:10088E004F50505C40FF00000000F888888888FFB9
:10089E0088888888F800000000001F080808087F74
:1008AE00888888889F80F00080828282828282E29D
:1008BE00A2928A8682808000000000000040807F25
:1008CE000000000000000000101010FF10900888BB
:1008DE008888FF88888808000444827F01808040D1
:1008EE00432C1028468180000010101010D030FFCD
:1008FE0030D0121C1010000010080402010000FF7E
:08090E000000010204081000C2
:040003007F06DFFE97
:0100070022D6
:0F237700D295D294120003C294120003C2952291
:0C238600C294D295120003D2940200030E
:10235500C295A2019294120003D295120003C29570
:012365002255
:1020BE00E49000DAF0A3F0D2947F01FE122366D2F0
:1020CE00957F017E0012236630941F9000DBE004A2
:1020DE00F070069000DAE004F0D39000DBE094E2BA
:0D20EE009000DAE0940440E0D322C295C3D4
:0120FB0022C2
:02207F00AD07AB
:10208100C295C2941200037C077E007401A8040863
:102091008005C333CE33CED8F9FFEDFBEF5B60048F
:1020A100D2948002C294120003D295120003C29509
:0C20B1001200031CC3EC6480948050CD2E
:0120BD002200
:1021A000E4FE7D07C295120003D29530940DA80578
:1021B0007401088002C333D8FC4EFE1200031DC315
:1021C000ED6480948050DDA2009201122355AF0689
:0121D00022EC
:10203B00F583E5822FF582E5833EF583E493FF7DFF
:01204B000193
:10204C009000D8EFF0A3EDF01223777F7812207F69
:10205C001220BE9000D9E060047F408002E4FF12A1
:10206C00207F1220BE9000D8E0FF12207F1220BEED
:03207C00022386B6
:1022C1009000EFEFF07006FD7FA612204C9000EF1A
:0C22D100E0B40107E4FD7FA712204C22BE
:10222A009000F0EFF0700DFD7FC812204CE4FD7FA6
:10223A00A112204C9000F0E0B4010EE4FD7FC01220
:0A224A00204CE4FD7FA012204C227E
:07216E00E0FFA3E0FD04F017
:102175009000D7EFF0ED24B0FFE4FD12204C900065
:10218500D7E054F0C4540F4410FFE4FD12204C90E6
:0B21950000D7E0540FFFE4FD02204CD7
:1022F400E4FD7F8D12204CE4FD7F1412204CE4FD9C
:052304007FAF02204C38
:10230900E4FD7F8D12204CE4FD7F1012204CE4FD8A
:052319007FAE02204C24
:101FF500E49000C1F09000C1E0FFC394085036EFB3
:1020050024B0FFE4FD12204CE4FDFF12204CE4FD5A
:102015007F1012204CE49000C2F07D01E4FF1220F5
:102025004C9000C2E004F0E0C3948040ED9000C104
:05203500E004F080C092
:01203A002283
:081746009000CDEFF0A3EDF0DF
:10174E00E49000D1F09000D0E0FFC313FD9000D2E2
:10175E00F0E4A3F0A3F0EFB40809A3E4F0A3740639
:10176E00F080319000D0E0FF131313541FF58275F3
:10177E008300EF54077E0060047F0180027F00EF3C
:10178E002582FFEE3583FE7C00120D969000D5EE7D
:10179E00F0A3EFF0EB24E09000D1F09000CDE0FF4D
:1017AE00A3E0FD122175E49000D3F0A3F09000D5D4
:1017BE00E0FCA3E0FD9000D3E0FEA3E0FFC39DEEAE
:1017CE009C50709000D2E0FD7C00120DA8ED4C7084
:1017DE000E9000D0E0640860069000CD12216E904D
:1017EE0000D0E0B4081A9000D3E0FEA3E0FF900012
:1017FE00D1E075F006A4241EF582E5F03400801FBA
:10180E009000D0E0B4102C9000D3E0FEA3E0FF9047
:10181E0000D1E075F010A42446F582E5F0340212F2
:10182E00203B9000D4E004F070069000D3E004F06A
:03183E000217BBD3
:011841002284
:081F63009000CDEFF0A3EDF0BA
:101F6B00A3120F91000000019000CEE0FF14F0EFE0
:101F7B006020A3E0F8A3E0F9A3E0FAA3E0FB900054
:101F8B00CDE0FFE4FCFDFE120E499000CF120F8551
:101F9B0080D69000CFE0FCA3E0FDA3E0FEA3E0FF22
:011FAB002213
:081842009000C1EFF0A3EDF0EE
:10184A00E49000CBF0A3F09000C8E0B40806900042
:10185A00CB7402F0E49000C9F09000C7E0FF90005A
:10186A00C9E0FEC39F4003021920C3EF9E14FD7F07
:10187A000A121F63A804A905AA06AB079000C3E0D1
:10188A00FCA3E0FDA3E0FEA3E0FF120ED4E47B0A72
:10189A00FAF9F8120ED49000CAEBF09000CCE0707E
:1018AA003C9000C7E014FF9000C9E0FEC39F502D92
:1018BA00A3E070239000C8E0FCC313FF9000CBE0C4
:1018CA002F8EF0A4FF9000C1E02FFFA3E0FD90004F
:1018DA00D0ECF07B2080339000CC7401F09000C8EB
:1018EA00E0FEC313FF9000CBE02FFF9000C9E0FD9C
:1018FA00EF8DF0A4FF9000C1E02FFFA3E0FD900060
:10190A00CAE02430FB9000D0EEF01217469000C9CE
:06191A00E004F002186376
:0119200022A4
:101D7B009000C1EFF0A3EDF0A3EBF0A3EAF0A3E921
:011D8B00F067
:101D8C00E49000C7F09000C3E0FBA3E0FAA3E0F9F5
:101D9C009000C7E0F582758300120D6960409000D9
:101DAC00C1E0FFA3E0FD9000C7E0FE04F08E827559
:101DBC008300120D69FB9000C6E09000D0F0121762
:101DCC00469000C6E0FFB408099000C1E02406F07C
:0E1DDC0080B3EFC313FF9000C1E02FF080A78B
:011DEA0022D6
:0B1BC0009000E7EFF0A3EDF0A3EBF0C6
:101BCB00A3E0FF131313541FFD7C00EF54077E009B
:101BDB0060047F0180027F00EF2DFFEE3CFE900042
:101BEB00EAE0FD7C00120D969000EDEEF0A3EFF015
:101BFB00E49000EBF0A3F09000EDE0FCA3E0FD908F
:101C0B0000EBE0FEA3E0FFC39DEE9C50439000EA87
:101C1B00E0FD7C00120DA8ED4C70069000E7122140
:101C2B006E9000EAE0B41028A3E0FEA3E0FF900062
:101C3B00E9E0C43354E02436F582E4340812203B47
:101C4B009000ECE004F070AF9000EBE004F080A7A4
:011C5B002266
:0B1C5C009000DCEFF0A3EDF0A3EBF034
:101C6700E49000E3F0A3F09000DFE0FF13131354B8
:101C77001FFEEF540760047F0180027F00EE2F9064
:101C870000DFF0E49000E5F09000DFE0FF9000E572
:101C9700E0FEC39F50519000DCE0FFA3E0FDEE2D76
:101CA700FD122175E49000E6F09000DEE0FF900061
:101CB700E6E0C39F50299000E0E0FBA3E0FAA3E031
:101CC700F9A3E475F001120E3385F082F583120D46
:101CD70069FF7D0112204C9000E6E004F080CA9075
:071CE70000E5E004F080A11C
:011CEE0022D3
:0523AA00E4FD02204CDF
:101A7D007FC87E001222DD7FAE1223AA7FA812231B
:101A8D00AA7F1F1223AA7FD31223AAE4FF1223AA2F
:101A9D007F401223AA7FA01223AA7FC01223AA7F00
:101AAD00811223AA7F7F1223AA7FA41223AA7FA6C5
:101ABD001223AA7FD51223AA7F801223AA7F8D120B
:101ACD0023AA7F141223AA7F2E1223AA7F2012236A
:101ADD00AA7F101223AA7FDA1223AA7F021223AA49
:101AED007FD91223AA7F221223AA7FDB1223AA7F7A
:101AFD00201223AA7FB01223AAE4FF1223AA7F107B
:101B0D001223AA7FAF1223AA7F2C7E011222DD029F
:021B1D001FF5B2
:1022DD007DA07C0FED1D70011C144C70F7EF1F706D
:0622ED00011E144E70EA10
:0122F30022C8
:102366007C007D05120D96EF1F70011E144E70F74E
:012376002244
:1021D1009000C4EFF0A3EDF01223777FD212207F9D
:1021E1001220BE9000C4E0FF12207F1220BE90009A
:0F21F100C5E0FF12207F1220BE1223867F00223E
:0520FC009000C3EFF0AD
:102101001223777FD212207F1220BE9000C3E0FFFE
:1021110012207F1220BE1223777FD312207F12203C
:10212100BED2001221A09000C4EFF01223869000CD
:03213100C4E0FF08
:012134002288
:0C239200EF33333354F8FD7F1B0221D1E0
:0C239E00EF33333354F8FD7F1C0221D1D3
:101FAC00E4FDC3EF94BCEE940040030D8036C3EF08
:101FBC009462EE940040047D028029C3EF942AEED3
:101FCC00940040047D03801CC3EF9414EE940040F5
:101FDC00047D04800FC3EF940AEE940040047D0549
:091FEC0080027D067F1A0221D15A
:081EBB009000C1EEF0A3EFF06E
:101EC300D394E8EE9403400A9000C17403F0A37422
:101ED300E8F0C39000C2E094049000C1E094005085
:101EE30006E4F0A37404F09000C1E0FCA3E0FD7EDF
:101EF300037FE8120DA8EF14A3F0FD7F191221D17F
:101F03009000C3EFF09000C1E0C313FEA3E013FF02
:031F1300021FACFE
:101E53007D807F6B1221D17F647E001222DDE4FD41
:101E63007F6B1221D17F03122392E4FF12239E7F03
:101E7300327E00121EBBE4FD7F381221D1E4FD7FC8
:101E83006A1221D17DFF7F231221D17D807F3712FA
:101E930021D17F751220FCEFB469177D017F6B128E
:101EA30021D1E4FD7F6C1221D17FC87E00121EBBBD
:071EB30080037F01227F0084
:011EBA002205
:052254009000C1EFF055
:102259001220FC9000C2EFF09000C1E004FF1220B0
:10226900FCAD079000C2E0FE7C00E42DFFEC3EFED1
:012279002242
:102135007F411220FC9000F1EFF07F421220FCADB0
:10214500079000F1E0FE7C00E42DFFEC3EFEAD07BC
:10215500FC120BB9E4FBFA79AA7843120B177BB88A
:092165007A1E7912784202091D6C
:10091600020C5EE86480F8E933E83360110460F0A5
:10092600ED33EC337009E8FCE9FDEAFEEBFF220447
:1009360060DED3EB9FEA9EE99DE8C2E78CF0C2F742
:1009460095F0400CE8CCF8E9CDF9EACEFAEBCFFB0E
:10095600120C2985D0F05804700320D5B3E8047032
:10096600075002B2D5020C6892D5EC0460F7E4CCCD
:10097600C0E0C398F8603B94186008400DD0E0FBD7
:10098600020C40E4FBFAC9FC8028E830E406E4C91E
:10099600FBE4CAFCE830E305E4C9CACBFCE854072B
:1009A6006010F8C3E913F9EA13FAEB13FBEC13FC36
:1009B600D8F130F52FC3E49CFCEF9BFFEE9AFEEDD9
:1009C60099FDD0E0FBEF4E4D4C701222DB03020C7A
:1009D60065EC2CFCEF33FFEE33FEED33FDED30E737
:1009E600EB020C40EF2BFFEE3AFEED39FDD0E0FBBB
:1009F60050130BBB0003020C68ED13FDEE13FEEF64
:080A060013FFEC13FC020C408D
:100A0E00EC4D6011E8497017ED33EC3304600DE4E2
:100A1E00FCFFFEFD22E933E8330470F8020C5E128F
:100A2E000C2958046009E4CC248150062850090290
:100A3E000C68284003020C65C0E0EB4A7044B98094
:100A4E0006D0E0FB020C54EF4E701CBD8008EBFF8D
:100A5E00EAFEE9FD80EBE98DF0A4FEE5F0020AF76F
:100A6E00E9CDF9EAFEEBFFEF89F0A4FCE5F0CE89C3
:100A7E00F0A42EFFE435F0CD89F0A42DFEE435F080
:100A8E008067EF4E7005BD80D780C3EF8BF0A4ACAE
:100A9E00F0EE8BF0A42CFCE435F0F8EF8AF0A42CE9
:100AAE00E5F038FCE433CB8DF0A42CFCE5F03BF8FC
:100ABE00EE8AF0A42CFCE5F038F8E433CF89F0A4EC
:100ACE002CFCE5F038CF3400CE89F0A42FFFE5F0F2
:100ADE003EFEE433C98DF0A42EFEE5F039CD8AF04A
:100AEE00A42FFFE5F03EFEE43DFD33D0E0FB5007C2
:100AFE000BBB000F020C68EC2CFCEF33FFEE33FE49
:060B0E00ED33FD020C4076
:100B1400020C68EC5D046005E859047003020C5E85
:100B2400120C29580460F6EC4860F2EC7004FDFEE7
:100B3400FF22C860DB2481C85009C39860025006B4
:100B4400020C659850CAF582E9294B4A7005AB82BC
:100B5400020C5475F0007C1A7880C3EF9BEE9AED7A
:100B640099400DC3EF9BFFEE9AFEED99FDE842F02C
:100B7400DC23ACF0D0E0FFD0E0FED0E0FDAB82207F
:100B8400E7101BEB60BAEC2CFCEF33FFEE33FEED09
:100B940033FD020C40E803F830E705C0F075F000BF
:100BA400EF2FFFEE33FEED33FD40B830E7C280AAED
:100BB40075F020800E75F010800575F0087D007EBC
:100BC400007F003392D530D503120F66EC3340100A
:100BD400EF33FFEE33FEED33FDEC33FCD5F0ED22C5
:0E0BE400E5F0247EA2D513CC92E7CDCEFF2201
:100BF200EDD2E7CD33EC3392D524814006E4FFFEFB
:100C0200FDFC22FCE4CFCECDCC24E0501174FF8059
:100C1200EDC3CC13CCCD13CDCE13CECF13CF0470F6
:070C2200F030D5DE020F6681
:100C2900E9D2E7C933E833F892D5EDD2E7CD33EC11
:070C390033FC5002B2D5228A
:100C4000EC30E7100FBF000C0EBE00080DBD000415
:100C50000BEB6014A2D5EB13FCED92E7FD2274FFC1
:100C6000FCFDFEFF22E480F8A2D574FF13FC7D801A
:030C7000E480EF2E
:03000000021CEFF0
:0C1CEF00787FE4F6D8FD758120021D36D8
:100C7300E709F608DFFA8046E709F208DFFA803E63
:100C830088828C83E709F0A3DFFA8032E309F60850
:100C9300DFFA8078E309F208DFFA807088828C83B8
:100CA300E309F0A3DFFA806489828A83E0A3F6086C
:100CB300DFFA805889828A83E0A3F208DFFA804C46
:100CC30080D280FA80C680D4806980F2803380101D
:100CD30080A680EA809A80A880DA80E280CA803386
:100CE30089828A83ECFAE493A3C8C582C8CCC583FE
:100CF300CCF0A3C8C582C8CCC583CCDFE9DEE780CE
:100D03000D89828A83E493A3F608DFF9ECFAA9F04C
:100D1300EDFB2289828A83ECFAE0A3C8C582C8CCA2
:100D2300C583CCF0A3C8C582C8CCC583CCDFEADEBB
:100D3300E880DB89828A83E493A3F208DFF980CC1D
:100D430088F0EF60010E4E60C388F0ED2402B40416
:100D53000050B9F582EB2402B4040050AF232345BD
:060D63008223900CC37313
:100D6900BB010CE58229F582E5833AF583E022503F
:100D790006E92582F8E622BBFE06E92582F8E22289
:0D0D8900E58229F582E5833AF583E49322A3
:100D9600EF8DF0A4A8F0CF8CF0A428CE8DF0A42E71
:020DA600FE222B
:100DA800BC000BBE0029EF8DF084FFADF022E4CC2F
:100DB800F875F008EF2FFFEE33FEEC33FCEE9DECF8
:100DC800984005FCEE9DFE0FD5F0E9E4CEFD22ED3E
:100DD800F8F5F0EE8420D21CFEADF075F008EF2F88
:100DE800FFED33FD4007985006D5F0F222C398FD79
:050DF8000FD5F0EA2216
:100DFD00C2D5EC30E709B2D5E4C39DFDE49CFCEE11
:100E0D0030E715B2D5E4C39FFFE49EFE120DA8C3D3
:100E1D00E49DFDE49CFC8003120DA830D507C3E4CE
:060E2D009FFFE49EFE227F
:100E3300A3F8E0C5F025F0F0E58215827002158372
:060E4300E0C838F0E822CF
:100E4900E88FF0A4CC8BF0A42CFCE98EF0A42CFC48
:100E59008AF0EDA42CFCEA8EF0A4CDA8F08BF0A4C6
:100E69002DCC3825F0FDE98FF0A42CCD35F0FCEB25
:100E79008EF0A4FEA9F0EB8FF0A4CFC5F02ECD39EA
:0F0E8900FEE43CFCEAA42DCE35F0FDE43CFC2257
:100E980075F008758200EF2FFFEE33FECD33CDCC11
:100EA80033CCC58233C5829BED9AEC99E582984094
:100EB8000CF582EE9BFEED9AFDEC99FC0FD5F0D671
:100EC800E4CEFBE4CDFAE4CCF9A88222B800C1B99B
:100ED8000059BA002DEC8BF084CFCECDFCE5F0CBD9
:100EE800F97818EF2FFFEE33FEED33FDEC33FCEB12
:100EF80033FB10D703994004EB99FB0FD8E5E4F9CD
:100F0800FA227818EF2FFFEE33FEED33FDEC33FCB9
:100F1800C933C910D7059BE99A4007EC9BFCE99AAD
:100F2800F90FD8E0E4C9FAE4CCFB2275F010EF2FF2
:100F3800FFEE33FEED33FDCC33CCC833C810D707F2
:100F48009BEC9AE899400AED9BFDEC9AFCE899F82D
:0E0F58000FD5F0DAE4CDFBE4CCFAE4C8F922C0
:0E0F6600C3E49FFFE49EFEE49DFDE49CFC229C
:100F7400EB9FF5F0EA9E42F0E99D42F0E89C45F0D3
:010F8400224A
:0C0F8500ECF0A3EDF0A3EEF0A3EFF022DF
:100F9100A8828583F0D083D082120FA8120FA812E5
:100FA1000FA8120FA8E473E493A3C583C5F0C5830A
:100FB100C8C582C8F0A3C583C5F0C583C8C582C8AA
:010FC100220D
:0C0FC200A42582F582E5F03583F583223A
:101CFB00020FCEE493A3F8E493A34003F68001F222
:101D0B0008DFF48029E493A3F85407240CC8C333E9
:101D1B00C4540F4420C8834004F456800146F6DFB8
:101D2B00E4800B0102040810204080901B1FE47E0E
:101D3B00019360BCA3FF543F30E509541FFEE493AD
:101D4B00A360010ECF54C025E060A840B8E493A374
:101D5B00FAE493A3F8E493A3C8C582C8CAC583CA9F
:101D6B00F0A3C8C582C8CAC583CADFE9DEE780BE57
:011BBF000025
:00000001FF
