:102304005365743A00506F773A00536C703A00008A
:1023140000000000000000000000000000000000B9
:03232400000000B6
:101C930041007E0041007F00410004004100050037
:101CA3006078000600000000000000000000000053
:101CB3000032005A0000000000000000006400FE33
:101CC30000000000000000000096015E000000001C
:101CD3000000000000C801E8000000000000000050
:101CE30000FA026C0000000000000000012C031247
:101CF3000000000000000000015E039A00000000E5
:101D03000000000001900424000000000000000017
:101D130001C204E2000000000000000042000000D5
:061D230000420002000076
:10090600E4900080F0A3F0A3F0A3F0A31216C800B1
:1009160000000078887C007D017BFF7A2379137EB6
:10092600007F1412147A9000AC1216C80000000062
:100936009000B07401F0A3745EF0A37401F0A37488
:100946005EF0E49000B6F0A3F0A3F0A3F0A3F0A34A
:10095600F09000C0F09000C0E0FF75F00CA42408F1
:10096600F582E43400F583E0FCA3E0FDEF75F00CBE
:10097600A42414F582E43400F583E0FEA3E0C39DCD
:10098600FDEE9CFC1212F0E4FBFA79487842121252
:100996004E9000C0E0FB75F00CA4240AF582E43406
:1009A60000F5831216BCEB75F00CA42406F582E460
:1009B6003400F583E0FCA3E0FDEC1212F09000C0D9
:1009C600E075F00CA4240AF582E43400F583E0F81F
:1009D600A3E0F9A3E0FAA3E0FB121145C004C005A9
:1009E600C006C0079000C0E075F00CA42408F5828C
:1009F600E43400F583E0FCA3E0FDEC1212F0D00332
:100A0600D002D001D0001210509000C0E075F00C5A
:100A1600A4240EF582E43400F5831216BC9000C0BF
:100A2600E004F0E06409600302095B1222E0121B95
:100A3600551223D9122384121EB9D2AFC2B67BFF38
:100A46007A2379049000C67408F0E4FD7F48121EEC
:100A5600497BFF7A2379099000C67408F07D017FEF
:100A660048121E497BFF7A23790E9000C67408F05F
:100A76007D027F48121E499000B0E0FEA3E0FFE42D
:100A8600FCFD9000C31216BC9000C77403F0A3745B
:100A960008F0E4FD7F6612191A7F01122266AC0681
:100AA600AD07E41212F09000841216BC7F007E405F
:100AB6007D4E7C45900084E0F8A3E0F9A3E0FAA31C
:100AC600E0FB121145E4FBFA7980784512124E904C
:100AD60000841216BCE4FBFA797A7844900084E02C
:100AE600FCA3E0FDA3E0FEA3E0FF12124E7433FB6D
:100AF600FAF978411211459000841216BCE4FFFE03
:100B06007D207C41900084E0F8A3E0F9A3E0FAA3FD
:100B1600E0FB1211451213299000C31216BC900077
:100B2600C77403F0A37408F07D017F6612191A7F5B
:100B360001122266AC06AD07E41212F09000841290
:100B460016BC7F007E407D4E7C45900084E0F8A375
:100B5600E0F9A3E0FAA3E0FB121145E4FBFA798081
:100B6600784512124E9000841216BCE4FBFA797A8C
:100B76007844900084E0FCA3E0FDA3E0FEA3E0FF40
:100B860012124E7433FBFAF9784112114590008423
:100B96001216BCE4FFFE7D207C41900084E0F8A3A1
:100BA600E0F9A3E0FAA3E0FB121145121329900025
:100BB600C31216BC9000C77403F0A37408F07D013D
:100BC6007F6612191A900080E0FEA3E0FFC3900032
:100BD60083E09FEE6480F8900082E064809850067F
:100BE600D2B6C2B58004C2B6D2B57F287E00122323
:100BF600B9900083E004F07006900082E004F09063
:100C06000082E0B409BFA3E0B4C5BAE4900082F064
:100C1600A3F07F451222BA9000B6EEF0FCA3EFF0E7
:100C2600FD9000BAE0FEA3E0FFC3ED9FFFEC9EFE41
:100C36009000B8F0A3EFF0A3ECF0A3EDF012239729
:100C4600C3EF9414EE6480948050109000BDE004CD
:100C5600F0700F9000BCE004F08007E49000BCF058
:100C6600A3F09000BCE0FEA3E0FF7C007D0A121515
:100C760034D3EF9458EE648094824009E49000B037
:100C8600F0A3F08025D3EF942CEE64809481400B82
:100C96009000B0E4F0A374C8F0800F9000B2E0FFBB
:100CA600A3E09000B0CFF0A3EFF0900080E0FEA3A9
:100CB600E0FFC374C49FFF74099EFED3EF94E8EE71
:100CC60064809483402C9000BCE0FEA3E0FF7C008F
:100CD6007D0A121534EE3395E0FDFC9000C3121622
:100CE600BC9000C77403F0A37408F07D027F6612FF
:100CF600191A9000B0E0FEA3E0FF1219F99000B4B3
:100D0600EEF0A3EFF0900088E0FCA3E0FDA3E0FE88
:100D1600A3E0FF90009C1216BC900088E0FCA3E0C4
:100D2600FDA3E0FEA3E0FF9000A01216BC9000A475
:100D36001216C800000000E49000C0F09000C0E069
:100D4600FFC394054003020E35EF25E025E0248815
:100D5600F582E43400F583E0FCA3E0FDA3E0FEA306
:100D6600E0FF9000A0E0F8A3E0F9A3E0FAA3E0FB1F
:100D7600D31216AB40229000C0E025E025E024887F
:100D8600F582E43400F583E0FCA3E0FDA3E0FEA3D6
:100D9600E0FF9000A01216BC9000C0E025E025E020
:100DA6002488F582E43400F583E0FCA3E0FDA3E0AB
:100DB600FEA3E0FF90009CE0F8A3E0F9A3E0FAA30D
:100DC600E0FBC31216AB50229000C0E025E025E000
:100DD6002488F582E43400F583E0FCA3E0FDA3E07B
:100DE600FEA3E0FF90009C1216BC9000A4E0FCA3BA
:100DF600E0FDA3E0FEA3E0FF9000C0E025E025E0D3
:100E06002488F582E43400F583E0F8A3E0F9A3E052
:100E1600FAA3E0FBEF2BFFEE3AFEED39FDEC38FCD2
:100E26009000A41216BC9000C0E004F0020D42909F
:100E3600009CE0F8A3E0F9A3E0FAA3E0FB9000A48D
:100E4600E0FCA3E0FDA3E0FEA3E0C39BFFEE9AFE59
:100E5600ED99FDEC98FC9000A0E0F8A3E0F9A3E082
:100E6600FAA3E0FBC3EF9BFFEE9AFEED99FDEC982B
:100E7600FCE47B03FAF9F812160B9000A81216BCD4
:100E86009000A8A3A3E0FEA3E0FF9000B4E0FCA3BB
:100E9600E0FD7BC47A09121705900080EEF0A3EFFF
:100EA600F09000A8A3A3E0FEA3E0FF121AA7E4FCBB
:100EB600FD9000C31216BC9000C77403F0A3741013
:100EC600F0E4FD7F2012191AE4FF122266E4FCFD0D
:100ED6009000ACA3A3E0FAA3E090008875F004129A
:100EE60016F9EA25E025E02583F5831216BC900065
:100EF600ACA3A3E0FEA3E090008875F0041216F9F7
:100F0600EE25E025E02583F583E0FCA3E0FDA3E0E4
:100F1600FEA3E0FFE47BE47A0CF9F8121580E4FB0B
:100F26007A10F9F812160B9000ACA3A3E0FAA3E02E
:100F360090008875F0041216F9EA25E025E025836D
:100F4600F5831216BC9000ACE0FCA3E0FDA3E0FE26
:100F5600A3E02401FFE43EFEE43DFDE43CFC9000FA
:100F6600AC1216BCE47F05FEFDFC9000ACE0F8A3D5
:100F7600E0F9A3E0FAA3E0FBC31216AB700A9000F7
:100F8600AC1216C800000000900004E0600BA3E05D
:100F96006007E4900004F0A3F0900004E0FF604EC8
:100FA6009000B1E02FF09000B0E03400F0D3A3E061
:100FB60094C29000B0E0940140077401F0A374C29B
:100FC600F09000B0E0FEA3E0FFA3EEF0A3EFF0E4A4
:100FD600FCFD9000C31216BC9000C77403F0A37406
:100FE60008F0E4FD7F6612191AE4900004F0900000
:100FF60005E0FF7003020BCBC39000B1E09FFF90AA
:1010060000B0E09400FEF0A3EFF0C3EE94005007AA
:10101600E49000B0F0A3F09000B0E0FEA3E0FFA3E0
:10102600EEF0A3EFF0E4FCFD9000C31216BC9000B6
:10103600C77403F0A37408F0E4FD7F6612191AE47E
:07104600900005F0020BCB46
:1022E00043BA8043B26053B19F439230439130531D
:1022F00092FC43910353B2F353B1F3D2B3D2B2D2AF
:0423000095D29422BC
:0D23D90090FEA8743FF075DE0F75BC8022E9
:1022660043BC4053BCF0EF42BC0000E5BC30E5FB8C
:1022760053BCDF85BDA0AFBDEF75F010A4FFAEF077
:0A228600E5BEC4540FFDEF4DFF222A
:0819F9009000C1EEF0A3EFF035
:101A0100E4A3F0F09000C3E0FFC39409504AEF75DE
:101A1100F00CA42406F582E43400F583E0FEA3E093
:101A2100FF9000C1E0FCA3E0FDC39FEC9E4021A319
:101A3100E075F00CA42412F582E43400F583E0FE95
:101A4100A3E0FFC3ED9FEC9E50069000C1A3801060
:101A51009000C3E004F080AC9000C1E0FCA3E0FD85
:101A6100E41212F09000C3E075F00CA4240AF58290
:101A7100E43400F583E0F8A3E0F9A3E0FAA3E0FB86
:101A81001211459000C3E075F00CA4240EF582E418
:101A91003400F583E0F8A3E0F9A3E0FAA3E0FB1238
:051AA10010541213298E
:011AA600221D
:081AA7009000C1EEF0A3EFF086
:101AAF00E4A3F0F09000C3E0FFC39409504AEF7530
:101ABF00F00CA42408F582E43400F583E0FEA3E0E3
:101ACF00FF9000C1E0FCA3E0FDC39FEC9E4021A36B
:101ADF00E075F00CA42414F582E43400F583E0FEE5
:101AEF00A3E0FFC3ED9FEC9E50069000C1A38010B2
:101AFF009000C3E004F080AC9000C1E0FCA3E0FDD7
:101B0F00E41212F09000C3E075F00CA4240EF582DD
:101B1F00E43400F583E0F8A3E0F9A3E0FAA3E0FBD7
:101B2F001210509000C3E075F00CA4240AF582E463
:101B3F003400F583E0F8A3E0F9A3E0FAA3E0FB1289
:051B4F00124E121329E3
:011B5400226E
:081705009000C1EAF0A3EBF033
:10170D00E4FBFAC3ED9FFFEC9EFEA3F0A3EFF09078
:10171D000003E02FF0900002E03EF0D3A3E094DC54
:10172D00900002E06480948540077405F0A374DC9A
:10173D00F0C3900003E09424900002E06480947A5A
:10174D00500774FAF0A37424F0900000E0FEA3E0BB
:10175D00FFC39000C4E09FFF9000C3E09E9000C5C2
:10176D00F0A3EFF0900002E0FCA3E0FDEC1212F00C
:10177D007B857AEB7951783F121145C004C005C0C5
:10178D0006C0079000C3E0FCA3E0FDEC1212F0E4EC
:10179D00FBFA79C87841121145A804A905AA06AB30
:1017AD0007D007D006D005D004121054C004C005D0
:1017BD00C006C0079000C5E0FCA3E0FDEC1212F0DE
:1017CD007B9A7A997999783F121145A804A905AAAF
:1017DD0006AB07D007D006D005D004121054121353
:1017ED0029AA06AB079000C3E0FFA3E0900000CF4D
:1017FD00F0A3EFF09000C1E0FEA3E0FFC39BEA640D
:10180D0080F8EE6480985004AA06AB07AE02AF03D1
:01181D0022A8
:03000B00021F7C55
:101F7C00C0E0C083C082C0D090007E20B305E004D6
:101F8C00F08002E4F090007F20B205E004F08002C3
:101F9C00E4F090007EE0D394504008E4F09000040C
:101FAC00E004F090007FE0D394504008E4F09000FF
:0D1FBC0005E004F0D0D0D082D083D0E03218
:10238400438E805389F0758AC0758C63C28DD28C5C
:03239400D2A922A9
:10239700C3EE648094805008C3E49FFFE49EFE224E
:0123A7002213
:10000E000000000000000000002F000000000700AC
:10001E00070000147F147F1400242A7F2A12006226
:10002E0064081323003649552250000005030000D2
:10003E0000001C224100000041221C000014083E5A
:10004E0008140008083E0808000000A06000000820
:10005E000808080800006060000000201008040274
:10006E00003E5149453E0000427F40000042615132
:10007E004946002141454B31001814127F100027CC
:10008E0045454539003C4A4949300001710905038F
:10009E0000364949493600064949291E00003636C0
:1000AE000000000056360000000814224100001423
:1000BE001414141400004122140800020151090600
:1000CE0000324959513E007C1211127C007F494981
:1000DE004936003E41414122007F4141221C007FB2
:1000EE0049494941007F09090901003E4149497AC0
:1000FE00007F0808087F0000417F4100002040413A
:10010E003F01007F08142241007F40404040007FA5
:10011E00020C027F007F0408107F003E4141413EE9
:10012E00007F09090906003E4151215E007F091931
:10013E0029460046494949310001017F0101003F2E
:10014E004040403F001F2040201F003F4038403FAE
:10015E000063140814630007087008070061514912
:10016E00454300007F41410000552A552A550000A5
:10017E0041417F0000040201020400404040404023
:10018E00000001020400002054545478007F4844BB
:10019E00443800384444442000384444487F0038F2
:1001AE005454541800087E0901020018A4A4A47C1B
:1001BE00007F080404780000447D400000408084E5
:1001CE007D00007F102844000000417F4000007C2D
:1001DE0004180478007C0804047800384444443839
:1001EE0000FC242424180018242418FC007C080485
:1001FE00040800485454542000043F444020003C5E
:10020E004040207C001C2040201C003C4030403CE4
:10021E00004428102844001CA0A0A07C0044645474
:10022E004C441414141414140000000000000000B8
:10023E000000000000000000000000F800000000B8
:10024E00000000333000000000100C06100C0600F9
:10025E00000000000000000040C07840C078400060
:10026E00043F04043F040400007088FC08300000C2
:10027E00001820FF211E0000F008F000E01800001A
:10028E0000211C031E211E0000F0088870000000D3
:10029E001E2123241927211010160E000000000025
:1002AE000000000000000000000000E01804020042
:1002BE00000000071820400000020418E0000000B3
:1002CE000040201807000000404080F080404000B1
:1002DE000202010F01020200000000F00000000007
:1002EE000101011F010101000000000000000000DB
:1002FE0080B0700000000000000000000000000050
:10030E0000010101010101010000000000000000D8
:10031E000030300000000000000000008060180473
:10032E00006018060100000000E010080810E00050
:10033E00000F102020100F00001010F80000000019
:10034E000020203F20200000007008080888700060
:10035E0000302824222130000030088888483000E0
:10036E000018202020110E000000C02010F8000000
:10037E0000070424243F240000F808888808080099
:10038E000019212020110E0000E0108888180000AE
:10039E00000F112020110E0000380808C838080080
:1003AE000000003F00000000007088080888700000
:1003BE00001C222121221C0000E010080810E00081
:1003CE000000312222110F00000000C0C00000000A
:1003DE00000000303000000000000080000000002F
:1003EE000000806000000000000080402010080027
:1003FE0000010204081020004040404040404000F0
:10040E0004040404040404000008102040800000CA
:10041E000020100804020100007048080808F000CF
:10042E000000003036010000C030C828E810E0009F
:10043E000718272423140B000000C038E00000002A
:10044E00203C23020227382008F888888870000094
:10045E00203F202020110E00C03008080808380068
:10046E00071820202010080008F808080810E000DF
:10047E00203F202020100F0008F88888E808100080
:10048E00203F20202320180008F88888E808100054
:10049E00203F200003000000C0300808083800008C
:1004AE0007182020221E020008F808000008F8088D
:1004BE00203F210101213F20000808F80808000014
:1004CE000020203F2020000000000808F808080047
:1004DE00C08080807F00000008F888C028180800BF
:1004EE00203F20012638200008F8080000000000F8
:1004FE00203F20202020300008F8F800F8F80800EF
:10050E00203F003F003F200008F830C00008F808E8
:10051E00203F200007183F00E01008080810E000F8
:10052E000F10202020100F0008F808080808F0000F
:10053E00203F210101010000E01008080810E00032
:10054E000F18242438504F0008F8888888887000C7
:10055E00203F2000030C3020007088080808380067
:10056E000038202121221C00180808F8080818005D
:10057E000000203F2000000008F808000008F808DE
:10058E00001F202020201F000878880000C838088F
:10059E00000007380E010000F80800F80008F80007
:1005AE00033C0700073C03000818688080681808A1
:1005BE0020302C03032C30200838C800C83808001F
:1005CE000000203F2000000010080808C83808006E
:1005DE002038262120201800000000FE0202020012
:1005EE000000007F40404000000C30C000000000C2
:1005FE00000000010638C00000020202FE000000EA
:10060E00004040407F00000000000402020204008F
:10061E0000000000000000000000000000000000CC
:10062E0080808080808080800002020400000000B4
:10063E0000000000000000000000808080800000AC
:10064E000019242222223F2008F80080800000009A
:10065E00003F112020110E0000000080808000005D
:10066E00000E112020201100000000808088F8006C
:10067E00000E112020103F2000008080808000009E
:10068E00001F222222221300008080F08888881802
:10069E000020203F2020000000008080808080000D
:1006AE00006B94949493600008F8008080800000A2
:1006BE00203F210000203F2000809898000000007D
:1006CE000020203F202000000000008098980000AD
:1006DE0000C08080807F000008F8000080808000CD
:1006EE00203F24022D302000000808F800000000F2
:1006FE000020203F202000008080808080808000AD
:10070E00203F20003F20003F80800080808000003E
:10071E00203F210000203F200000808080800000CC
:10072E00001F202020201F008080008080000000FD
:10073E0080FFA12020110E0000000080808080002C
:10074E00000E112020A0FF8080808000808080001D
:10075E0020203F212000010000008080808080004A
:10076E000033242424241900008080E080800000BF
:10077E000000001F2020000080800000008080000C
:10078E00001F202020103F2080808000008080806D
:10079E0000010E30080601008080008000808080FD
:1007AE000F300C030C300F00008080008080800022
:1007BE000020312E0E31200080808000008080804D
:1007CE0080818E70180601000080808080808000FD
:1007DE000021302C2221300000000000807C02021B
:1007EE0000000000003F404000000000FF0000003D
:1007FE0000000000FF0000000002027C80000000EC
:10080E000040403F00000000000601010202040407
:10081E0000000000000000000000F010101010FF9B
:10082E0010101010F000000000000F04040404FF6C
:10083E00040404040F0000004040405F55555575F8
:10084E005555555F404040000040200F09498979B9
:10085E000909090F2040000000FE02424ACA4A4A16
:10086E00CA4A4A4202FE000000FF40504C4340403C
:10087E004F50505C40FF00000000F888888888FFC9
:10088E0088888888F800000000001F080808087F84
:10089E00888888889F80F00080828282828282E2AD
:1008AE00A2928A8682808000000000000040807F35
:1008BE000000000000000000101010FF10900888CB
:1008CE008888FF88888808000444827F01808040E1
:1008DE00432C1028468180000010101010D030FFDD
:1008EE0030D0121C1010000010080402010000FF8E
:0808FE000000010204081000D3
:040003007F06DFFE97
:0100070022D6
:0F23CA00D295D294120003C294120003C295223E
:0C23E600C294D295120003D294020003AE
:1023A800C295A2019294120003D295120003C2951D
:0123B8002202
:10212400E49000DAF0A3F0D2947F01FE1223B9D236
:10213400957F017E001223B930941F9000DBE004E8
:10214400F070069000DAE004F0D39000DBE094E253
:0D2154009000DAE0940440E0D322C295C36D
:01216100225B
:0220E500AD0745
:1020E700C295C2941200037C077E007401A80408FD
:1020F7008005C333CE33CED8F9FFEDFBEF5B600429
:10210700D2948002C294120003D295120003C295A2
:0C2117001200031CC3EC6480948050CDC7
:012123002299
:10220600E4FE7D07C295120003D29530940DA80511
:102216007401088002C333D8FC4EFE1200031DC3AE
:10222600ED6480948050DDA20092011223A8AF06CF
:012236002285
:1020A100F583E5822FF582E5833EF583E493FF7D99
:0120B100012D
:1020B2009000D8EFF0A3EDF01223CA7F781220E54A
:1020C2001221249000D9E060047F408002E4FF12D4
:1020D20020E51221249000D8E0FF1220E5122124ED
:0320E2000223E6F0
:102327009000EFEFF07006FD7FA61220B29000EF4D
:0C233700E0B40107E4FD7FA71220B222F1
:102290009000F0EFF0700DFD7FC81220B2E4FD7FDA
:1022A000A11220B29000F0E0B4010EE4FD7FC01254
:0A22B00020B2E4FD7FA01220B2224C
:0721D400E0FFA3E0FD04F0B1
:1021DB009000D7EFF0ED24B0FFE4FD1220B2900099
:1021EB00D7E054F0C4540F4410FFE4FD1220B2901A
:0B21FB0000D7E0540FFFE4FD0220B20B
:10235A00E4FD7F8D1220B2E4FD7F141220B2E4FD69
:05236A007FAF0220B26C
:10236F00E4FD7F8D1220B2E4FD7F101220B2E4FD58
:05237F007FAE0220B258
:10205B00E49000C1F09000C1E0FFC394085036EF4C
:10206B0024B0FFE4FD1220B2E4FDFF1220B2E4FD28
:10207B007F101220B2E49000C2F07D01E4FF122029
:10208B00B29000C2E004F0E0C3948040ED9000C138
:05209B00E004F080C02C
:0120A000221D
:08181E009000CDEFF0A3EDF006
:10182600E49000D1F09000D0E0FFC313FD9000D209
:10183600F0E4A3F0A3F0EFB40809A3E4F0A3740660
:10184600F080319000D0E0FF131313541FF582751A
:101856008300EF54077E0060047F0180027F00EF63
:101866002582FFEE3583FE7C001214CD9000D5EE66
:10187600F0A3EFF0EB24E09000D1F09000CDE0FF74
:10188600A3E0FD1221DBE49000D3F0A3F09000D595
:10189600E0FCA3E0FD9000D3E0FEA3E0FFC39DEED5
:1018A6009C50709000D2E0FD7C001214DFED4C706D
:1018B6000E9000D0E0640860069000CD1221D4900E
:1018C60000D0E0B4081A9000D3E0FEA3E0FF900039
:1018D600D1E075F006A4240EF582E5F03400801FF1
:1018E6009000D0E0B4102C9000D3E0FEA3E0FF906F
:1018F60000D1E075F010A42436F582E5F03402122A
:1019060020A19000D4E004F070069000D3E004F02B
:0319160002189321
:0119190022AB
:081FC9009000CDEFF0A3EDF054
:101FD100A31216C8000000019000CEE0FF14F0EF3C
:101FE1006020A3E0F8A3E0F9A3E0FAA3E0FB9000EE
:101FF100CDE0FFE4FCFDFE1215809000CF1216BC6F
:1020010080D69000CFE0FCA3E0FDA3E0FEA3E0FFBB
:0120110022AC
:08191A009000C1EFF0A3EDF015
:10192200E49000CBF0A3F09000C8E0B40806900069
:10193200CB7402F0E49000C9F09000C7E0FF900081
:10194200C9E0FEC39F40030219F8C3EF9E14FD7F56
:101952000A121FC9A804A905AA06AB079000C3E092
:10196200FCA3E0FDA3E0FEA3E0FF12160BE47B0A5A
:10197200FAF9F812160B9000CAEBF09000CCE07066
:101982003C9000C7E014FF9000C9E0FEC39F502DB9
:10199200A3E070239000C8E0FCC313FF9000CBE0EB
:1019A2002F8EF0A4FF9000C1E02FFFA3E0FD900076
:1019B200D0ECF07B2080339000CC7401F09000C812
:1019C200E0FEC313FF9000CBE02FFF9000C9E0FDC3
:1019D200EF8DF0A4FF9000C1E02FFFA3E0FD900087
:1019E200CAE02430FB9000D0EEF012181E9000C91D
:0619F200E004F002193BC5
:0119F80022CC
:101E49009000C1EFF0A3EDF0A3EBF0A3EAF0A3E952
:011E5900F098
:101E5A00E49000C7F09000C3E0FBA3E0FAA3E0F926
:101E6A009000C7E0F5827583001214A060409000CC
:101E7A00C1E0FFA3E0FD9000C7E0FE04F08E82758A
:101E8A0083001214A0FB9000C6E09000D0F0121854
:101E9A001E9000C6E0FFB408099000C1E02406F0D5
:0E1EAA0080B3EFC313FF9000C1E02FF080A7BC
:011EB8002207
:0B1BF7009000E7EFF0A3EDF0A3EBF08F
:101C0200A3E0FF131313541FFD7C00EF54077E0063
:101C120060047F0180027F00EF2DFFEE3CFE90000A
:101C2200EAE0FD7C001214CD9000EDEEF0A3EFF09F
:101C3200E49000EBF0A3F09000EDE0FCA3E0FD9057
:101C420000EBE0FEA3E0FFC39DEE9C50439000EA50
:101C5200E0FD7C001214DFED4C70069000E71221CB
:101C6200D49000EAE0B41028A3E0FEA3E0FF9000C5
:101C7200E9E0C43354E02426F582E434081220A1BA
:101C82009000ECE004F070AF9000EBE004F080A76D
:011C9200222F
:0B1D2A009000DCEFF0A3EDF0A3EBF065
:101D3500E49000E3F0A3F09000DFE0FF13131354E9
:101D45001FFEEF540760047F0180027F00EE2F9095
:101D550000DFF0E49000E5F09000DFE0FF9000E5A3
:101D6500E0FEC39F50519000DCE0FFA3E0FDEE2DA7
:101D7500FD1221DBE49000E6F09000DEE0FF90002C
:101D8500E6E0C39F50299000E0E0FBA3E0FAA3E062
:101D9500F9A3E475F00112156A85F082F583121432
:101DA500A0FF7D011220B29000E6E004F080CA9009
:071DB50000E5E004F080A14D
:011DBC002204
:05240A00E4FD0220B218
:101B55007FC87E001223437FAE12240A7FA8122479
:101B65000A7F1F12240A7FD312240AE4FF12240AD3
:101B75007F4012240A7FA012240A7FC012240A7F04
:101B85008112240A7F7F12240A7FA412240A7FA6C9
:101B950012240A7FD512240A7F8012240A7F8D120F
:101BA500240A7F1412240A7F2E12240A7F2012246D
:101BB5000A7F1012240A7FDA12240A7F0212240AED
:101BC5007FD912240A7F2212240A7FDB12240A7F7E
:101BD5002012240A7FB012240AE4FF12240A7F107F
:101BE50012240A7FAF12240A7F2C7E01122343029E
:021BF500205B73
:102343007DA07C0FED1D70011C144C70F7EF1F7006
:06235300011E144E70EAA9
:012359002261
:1023B9007C007D051214CDEF1F70011E144E70F7BD
:0123C90022F1
:102237009000C4EFF0A3EDF01223CA7FD21220E57D
:102247001221249000C4E0FF1220E51221249000FF
:0F225700C5E0FF1220E51221241223E67F0022AA
:052162009000C3EFF046
:102167001223CA7FD21220E51221249000C3E0FF78
:102177001220E51221241223CA7FD31220E512214F
:1021870024D2001222069000C4EFF01223E690003A
:03219700C4E0FFA2
:01219A002222
:0C23F200EF33333354F8FD7F1B02223719
:0C23FE00EF33333354F8FD7F1C0222370C
:10201200E4FDC3EF94BCEE940040030D8036C3EFA1
:102022009462EE940040047D028029C3EF942AEE6C
:10203200940040047D03801CC3EF9414EE9400408E
:10204200047D04800FC3EF940AEE940040047D05E2
:0920520080027D067F1A0222378C
:081F21009000C1EEF0A3EFF007
:101F2900D394E8EE9403400A9000C17403F0A374BB
:101F3900E8F0C39000C2E094049000C1E09400501E
:101F490006E4F0A37404F09000C1E0FCA3E0FD7E78
:101F5900037FE81214DFEF14A3F0FD7F1912223773
:101F69009000C3EFF09000C1E0C313FEA3E013FF9C
:031F790002201231
:101EB9007D807F6B1222377F647E00122343E4FD0D
:101EC9007F6B1222377F031223F2E4FF1223FE7F76
:101ED900327E00121F21E4FD7F38122237E4FD7F94
:101EE9006A1222377DFF7F231222377D807F3712C6
:101EF90022377F75122162EFB469177D017F6B125A
:101F09002237E4FD7F6C1222377FC87E00121F2121
:071F190080037F01227F001D
:011F2000229E
:0522BA009000C1EFF0EF
:1022BF001221629000C2EFF09000C1E004FF1221E2
:1022CF0062AD079000C2E0FE7C00E42DFFEC3EFE05
:0122DF0022DC
:10219B007F411221629000F1EFF07F42122162AD7C
:1021AB00079000F1E0FE7C00E42DFFEC3EFEAD0756
:1021BB00FC1212F0E4FBFA79AA784312124E7BB8A8
:0921CB007A1E79127842021054C8
:10104D00021395E86480F8E933E83360110460F029
:10105D00ED33EC337009E8FCE9FDEAFEEBFF220409
:10106D0060DED3EB9FEA9EE99DE8C2E78CF0C2F704
:10107D0095F0400CE8CCF8E9CDF9EACEFAEBCFFBD0
:10108D0012136085D0F05804700320D5B3E80470B6
:10109D00075002B2D502139F92D5EC0460F7E4CC51
:1010AD00C0E0C398F8603B94186008400DD0E0FB99
:1010BD00021377E4FBFAC9FC8028E830E406E4C9A2
:1010CD00FBE4CAFCE830E305E4C9CACBFCE85407ED
:1010DD006010F8C3E913F9EA13FAEB13FBEC13FCF8
:1010ED00D8F130F52FC3E49CFCEF9BFFEE9AFEED9B
:1010FD0099FDD0E0FBEF4E4D4C701222DB03021335
:10110D009CEC2CFCEF33FFEE33FEED33FDED30E7C1
:10111D00EB021377EF2BFFEE3AFEED39FDD0E0FB3E
:10112D0050130BBB000302139FED13FDEE13FEEFE7
:08113D0013FFEC13FC02137711
:10114500EC4D6011E8497017ED33EC3304600DE4A4
:10115500FCFFFEFD22E933E8330470F80213951213
:10116500136058046009E4CC248150062850090214
:10117500139F28400302139CC0E0EB4A7044B980DA
:1011850006D0E0FB02138BEF4E701CBD8008EBFF11
:10119500EAFEE9FD80EBE98DF0A4FEE5F002122EF2
:1011A500E9CDF9EAFEEBFFEF89F0A4FCE5F0CE8985
:1011B500F0A42EFFE435F0CD89F0A42DFEE435F042
:1011C5008067EF4E7005BD80D780C3EF8BF0A4AC70
:1011D500F0EE8BF0A42CFCE435F0F8EF8AF0A42CAB
:1011E500E5F038FCE433CB8DF0A42CFCE5F03BF8BE
:1011F500EE8AF0A42CFCE5F038F8E433CF89F0A4AE
:101205002CFCE5F038CF3400CE89F0A42FFFE5F0B3
:101215003EFEE433C98DF0A42EFEE5F039CD8AF00B
:10122500A42FFFE5F03EFEE43DFD33D0E0FB500783
:101235000BBB000F02139FEC2CFCEF33FFEE33FECC
:06124500ED33FD021377FA
:10124B0002139FEC5D046005E859047003021395CB
:10125B00121360580460F6EC4860F2EC7004FDFE6B
:10126B00FF22C860DB2481C85009C3986002500676
:10127B0002139C9850CAF582E9294B4A7005AB8240
:10128B0002138B75F0007C1A7880C3EF9BEE9AEDFE
:10129B0099400DC3EF9BFFEE9AFEED99FDE842F0EE
:1012AB00DC23ACF0D0E0FFD0E0FED0E0FDAB822041
:1012BB00E7101BEB60BAEC2CFCEF33FFEE33FEEDCB
:1012CB0033FD021377E803F830E705C0F075F00043
:1012DB00EF2FFFEE33FEED33FD40B830E7C280AAAF
:1012EB0075F020800E75F010800575F0087D007E7E
:1012FB00007F003392D530D50312169DEC3340108E
:10130B00EF33FFEE33FEED33FDEC33FCD5F0ED2286
:0E131B00E5F0247EA2D513CC92E7CDCEFF22C2
:10132900EDD2E7CD33EC3392D524814006E4FFFEBC
:10133900FDFC22FCE4CFCECDCC24E0501174FF801B
:10134900EDC3CC13CCCD13CDCE13CECF13CF0470B8
:07135900F030D5DE02169D05
:10136000E9D2E7C933E833F892D5EDD2E7CD33ECD3
:0713700033FC5002B2D5224C
:10137700EC30E7100FBF000C0EBE00080DBD0004D7
:101387000BEB6014A2D5EB13FCED92E7FD2274FF83
:10139700FCFDFEFF22E480F8A2D574FF13FC7D80DC
:0313A700E480EFF0
:03000000021DBD21
:0C1DBD00787FE4F6D8FD758120021E043A
:1013AA00E709F608DFFA8046E709F208DFFA803E25
:1013BA0088828C83E709F0A3DFFA8032E309F60812
:1013CA00DFFA8078E309F208DFFA807088828C837A
:1013DA00E309F0A3DFFA806489828A83E0A3F6082E
:1013EA00DFFA805889828A83E0A3F208DFFA804C08
:1013FA0080D280FA80C680D4806980F280338010DF
:10140A0080A680EA809A80A880DA80E280CA803347
:10141A0089828A83ECFAE493A3C8C582C8CCC583BF
:10142A00CCF0A3C8C582C8CCC583CCDFE9DEE7808F
:10143A000D89828A83E493A3F608DFF9ECFAA9F00E
:10144A00EDFB2289828A83ECFAE0A3C8C582C8CC64
:10145A00C583CCF0A3C8C582C8CCC583CCDFEADE7D
:10146A00E880DB89828A83E493A3F208DFF980CCDF
:10147A0088F0EF60010E4E60C388F0ED2402B404D8
:10148A000050B9F582EB2402B4040050AF2323457F
:06149A0082239013FA7397
:1014A000BB010CE58229F582E5833AF583E0225001
:1014B00006E92582F8E622BBFE06E92582F8E2224B
:0D14C000E58229F582E5833AF583E4932265
:1014CD00EF8DF0A4A8F0CF8CF0A428CE8DF0A42E33
:0214DD00FE22ED
:1014DF00BC000BBE0029EF8DF084FFADF022E4CCF1
:1014EF00F875F008EF2FFFEE33FEEC33FCEE9DECBA
:1014FF00984005FCEE9DFE0FD5F0E9E4CEFD22ED00
:10150F00F8F5F0EE8420D21CFEADF075F008EF2F49
:10151F00FFED33FD4007985006D5F0F222C398FD3A
:05152F000FD5F0EA22D7
:10153400C2D5EC30E709B2D5E4C39DFDE49CFCEED2
:1015440030E715B2D5E4C39FFFE49EFE1214DFC357
:10155400E49DFDE49CFC80031214DF30D507C3E452
:061564009FFFE49EFE2241
:10156A00A3F8E0C5F025F0F0E58215827002158334
:06157A00E0C838F0E82291
:10158000E88FF0A4CC8BF0A42CFCE98EF0A42CFC0A
:101590008AF0EDA42CFCEA8EF0A4CDA8F08BF0A488
:1015A0002DCC3825F0FDE98FF0A42CCD35F0FCEBE7
:1015B0008EF0A4FEA9F0EB8FF0A4CFC5F02ECD39AC
:0F15C000FEE43CFCEAA42DCE35F0FDE43CFC2219
:1015CF0075F008758200EF2FFFEE33FECD33CDCCD3
:1015DF0033CCC58233C5829BED9AEC99E582984056
:1015EF000CF582EE9BFEED9AFDEC99FC0FD5F0D633
:1015FF00E4CEFBE4CDFAE4CCF9A88222B800C1B95D
:10160F000059BA002DEC8BF084CFCECDFCE5F0CB9A
:10161F00F97818EF2FFFEE33FEED33FDEC33FCEBD3
:10162F0033FB10D703994004EB99FB0FD8E5E4F98E
:10163F00FA227818EF2FFFEE33FEED33FDEC33FC7B
:10164F00C933C910D7059BE99A4007EC9BFCE99A6F
:10165F00F90FD8E0E4C9FAE4CCFB2275F010EF2FB4
:10166F00FFEE33FEED33FDCC33CCC833C810D707B4
:10167F009BEC9AE899400AED9BFDEC9AFCE899F8EF
:0E168F000FD5F0DAE4CDFBE4CCFAE4C8F92282
:0E169D00C3E49FFFE49EFEE49DFDE49CFC225E
:1016AB00EB9FF5F0EA9E42F0E99D42F0E89C45F095
:0116BB00220C
:0C16BC00ECF0A3EDF0A3EEF0A3EFF022A1
:1016C800A8828583F0D083D0821216DF1216DF122B
:1016D80016DF1216DFE473E493A3C583C5F0C58350
:1016E800C8C582C8F0A3C583C5F0C583C8C582C86C
:0116F80022CF
:0C16F900A42582F582E5F03583F58322FC
:101DC900020906E493A3F8E493A34003F68001F221
:101DD90008DFF48029E493A3F85407240CC8C3331B
:101DE900C4540F4420C8834004F456800146F6DFEA
:101DF900E4800B0102040810204080901C93E47ECB
:101E0900019360BCA3FF543F30E509541FFEE493DE
:101E1900A360010ECF54C025E060A840B8E493A3A5
:101E2900FAE493A3F8E493A3C8C582C8CAC583CAD0
:101E3900F0A3C8C582C8CAC583CADFE9DEE780BE88
:011D290000B9
:00000001FF
