:102246005365743A00506F773A00546D703A000047
:102256000000000000000000000000000000000078
:0322660000000075
:101B700041007E0041007F0041000400410005005B
:101B80006078000600000000000000000000000077
:101B9000003200640000000000000000006400C883
:101BA00000000000000000000096012C0000000072
:101BB0000000000000C801900000000000000000CC
:101BC00000FA01F40000000000000000012C02589F
:101BD0000000000000000000015E02EE00000000B6
:101BE0000000000001900320000000000000000041
:101BF00001C203520000000000000000420000008B
:061C00000042000200009A
:10102800E4900080F0A3F0A3120FEB00000000E4AE
:10103800900086F0A3F078887C007D017BFF7A22FF
:101048007955FE7F14120DBD9000AC120FEB000015
:1010580000009000B07401F0A3745EF0E49000B456
:10106800F0A3F0A3F0A3F0A30215B9E49000BCF03C
:101078009000BCE0FF75F00CA42408F582E434006D
:10108800F583E0FCA3E0FDEF75F00CA42414F582D1
:10109800E43400F583E0FEA3E0C39DFDEE9CFC1262
:1010A8000C33E4FBFA79487842120B079000BCE055
:1010B800FB75F00CA4240AF582E43400F583120FC2
:1010C800DFEB75F00CA42406F582E43400F583E028
:1010D800FCA3E0FDEC120C339000BCE075F00CA40E
:1010E800240AF582E43400F583E0F8A3E0F9A3E0EC
:1010F800FAA3E0FB1209FEC004C005C006C00790B1
:1011080000BCE075F00CA42408F582E43400F583F3
:10111800E0FCA3E0FDEC120C33D003D002D001D0E8
:10112800001209099000BCE075F00CA4240EF582A9
:10113800E43400F583120FDF9000BCE004F0E064B3
:10114800096003021078122222121A3212232E1278
:10115800230A121D96D2AFC2B67BFF7A2279469037
:1011680000C27408F0E4FD7F48121D267BFF7A2236
:10117800794B9000C27408F07D017F48121D267BD0
:10118800FF7A2279509000C27408F07D027F4812DD
:101198001D269000B0E0FEA3E0FFE4FCFD9000BF38
:1011A800120FDF9000C37403F0A37408F0E4FD7F0E
:1011B8006612172EE49000BCF0121EBD9000BAEE25
:1011C800F0A3EFF07F017E001222B59000BCE0048E
:1011D800F0E0C3940540E29000BAE0FEA3E0FFEE21
:1011E8003395E0FDFC9000BF120FDF9000C374033D
:1011F800F0A37408F07D027F6612172E900080E03D
:10120800FEA3E0FFC3900087E09F900086E09E5019
:1012180006D2B6C2B58004C2B6D2B57F327E0012FD
:10122800231D900087E004F07006900086E004F02B
:10123800900086E0B409C5A3E0B4C5C0E490008678
:10124800F0A3F07F011221A8AC06AD07E4120C331D
:10125800900082120FDF7F007E407D4E7C4590001B
:1012680082E0F8A3E0F9A3E0FAA3E0FB1209FEE4A8
:10127800FBFA79807845120B07900082120FDF7B0A
:10128800007A40791C7846900082E0FCA3E0FDA338
:10129800E0FEA3E0FF120B07E4FBFA79C8784212DC
:1012A80009FE900082120FDFE4FFFE7D207C419052
:1012B8000082E0F8A3E0F9A3E0FAA3E0FB1209FE3C
:1012C800120C6C9000BF120FDF9000C37403F0A3E0
:1012D8007408F07D017F6612172E900080E0FEA34F
:1012E800E0FFC374C49FFF74099EFED3EF9458EEC9
:1012F800940240187F431221FC9000B4EEF0A3EF53
:10130800F0121EBD9000BAEEF0A3EFF09000B0E02E
:10131800FEA3E0FF1218E29000B2EEF0A3EFF09007
:101328000088E0FCA3E0FDA3E0FEA3E0FF90009CA2
:10133800120FDF900088E0FCA3E0FDA3E0FEA3E02D
:10134800FF9000A0120FDF9000A4120FEB00000026
:1013580000E49000BCF09000BCE0FFC3940540039B
:10136800021451EF25E025E02488F582E43400F5E5
:1013780083E0FCA3E0FDA3E0FEA3E0FF9000A0E073
:10138800F8A3E0F9A3E0FAA3E0FBD3120FCE4022C2
:101398009000BCE025E025E02488F582E43400F5DF
:1013A80083E0FCA3E0FDA3E0FEA3E0FF9000A01211
:1013B8000FDF9000BCE025E025E02488F582E434C6
:1013C80000F583E0FCA3E0FDA3E0FEA3E0FF9000AE
:1013D8009CE0F8A3E0F9A3E0FAA3E0FBC3120FCE68
:1013E80050229000BCE025E025E02488F582E43412
:1013F80000F583E0FCA3E0FDA3E0FEA3E0FF90007E
:101408009C120FDF9000A4E0FCA3E0FDA3E0FEA384
:10141800E0FF9000BCE025E025E02488F582E43474
:1014280000F583E0F8A3E0F9A3E0FAA3E0FBEF2BD3
:10143800FFEE3AFEED39FDEC38FC9000A4120FDF08
:101448009000BCE004F002135E90009CE0F8A3E07A
:10145800F9A3E0FAA3E0FB9000A4E0FCA3E0FDA35D
:10146800E0FEA3E0C39BFFEE9AFEED99FDEC98FC2D
:101478009000A0E0F8A3E0F9A3E0FAA3E0FBC3EF33
:101488009BFFEE9AFEED99FDEC98FCE47B03FAF9DC
:10149800F8120F2E9000A8120FDF9000A8A3A3E067
:1014A800FEA3E0FF9000B2E0FCA3E0FD7BC47A0954
:1014B80012180D900080EEF0A3EFF09000A8A3A3FF
:1014C800E0FEA3E0FF12198AE4FCFD9000BF120FB2
:1014D800DF9000C37403F0A37410F0E4FD7F2012C2
:1014E800172EE4FF1221A8E4FCFD9000ACA3A3E0B2
:1014F800FAA3E090008875F00412101CEA25E02594
:10150800E02583F583120FDF9000ACA3A3E0FEA3D0
:10151800E090008875F00412101CEE25E025E02507
:1015280083F583E0FCA3E0FDA3E0FEA3E0FFE47BFA
:10153800E47A0CF9F8120EA3E4FB7A10F9F8120F0A
:101548002E9000ACA3A3E0FAA3E090008875F00405
:1015580012101CEA25E025E02583F583120FDF90A1
:1015680000ACE0FCA3E0FDA3E0FEA3E02401FFE45F
:101578003EFEE43DFDE43CFC9000AC120FDFE47F4E
:1015880005FEFDFC9000ACE0F8A3E0F9A3E0FAA3A7
:10159800E0FBC3120FCE700A9000AC120FEB0000F4
:1015A8000000900004E0FF600EA3E0600AE49000F1
:1015B80004F0A3F0021073EF6032900004E0FF7EA5
:1015C800009000B0EE8FF0120E77AFF0FEE4FCFD55
:1015D8009000BF120FDF9000C37403F0A37408F0EB
:1015E800E4FD7F6612172EE4900004F0900005E0F9
:1015F800FF7003021204C39000B1E09FFF9000B097
:10160800E09400FEF0A3EFF0E4FCFD9000BF120FA1
:10161800DF9000C37403F0A37408F0E4FD7F661242
:0A162800172EE4900005F0021204F2
:1022220043BA8043B26053B19F43923043913053DB
:1022320092FC43910353B2F353B1F3D2B3D2B2D26D
:0422420095D294227B
:0D232E0090FEA8743FF075DE0F75BC802294
:1021A80043BC4053BCF0EF42BC0000E5BC30E5FB4B
:1021B80053BCDF85BDA0AFBDEF75F010A4FFAEF036
:0A21C800E5BEC4540FFDEF4DFF22E9
:0818E2009000BDEEF0A3EFF051
:1018EA00E4A3F0F09000BFE0FFC39409400302199B
:1018FA0089EF75F00CA42406F582E43400F583E040
:10190A00FEA3E0FF9000BDE0FCA3E0FDC39FEC9EB8
:10191A004064A3E075F00CA42412F582E43400F5C7
:10192A0083E0FEA3E0FFC3ED9FEC9E50499000BD0B
:10193A00A3E4120C339000BFE075F00CA4240AF55E
:10194A0082E43400F583E0F8A3E0F9A3E0FAA3E027
:10195A00FB1209FE9000BFE075F00CA4240EF5827C
:10196A00E43400F583E0F8A3E0F9A3E0FAA3E0FB8E
:0F197A0012090D020C6C9000BFE004F00218EE91
:01198900223B
:08198A009000BDEEF0A3EFF0A8
:10199200E4A3F0F09000BFE0FFC394094003021AF1
:1019A20031EF75F00CA42408F582E43400F583E0ED
:1019B200FEA3E0FF9000BDE0FCA3E0FDC39FEC9E10
:1019C2004064A3E075F00CA42414F582E43400F51D
:1019D20083E0FEA3E0FFC3ED9FEC9E50499000BD63
:1019E200A3E4120C339000BFE075F00CA4240EF5B2
:1019F20082E43400F583E0F8A3E0F9A3E0FAA3E07F
:101A0200FB1209099000BFE075F00CA4240AF582CC
:101A1200E43400F583E0F8A3E0F9A3E0FAA3E0FBE5
:0F1A2200120B07020C6C9000BFE004F002199643
:011A31002292
:10180D009000BDEEF0A3EFF0A3ECF0A3EDF0A3EA92
:04181D00F0A3EBF059
:10182100A3120FEB000000009000BDE0FEA3E0FF5B
:10183100C39000C0E09FFF9000BFE09EFEAD07FC9B
:10184100120C33E4FBFA79A078411209FE9000C32F
:10185100120FDFE4FFFEFDFC9000C3E0F8A3E0F906
:10186100A3E0FAA3E0FB120BA450179000C3E0FC25
:10187100A3E0FDA3E0FEA3E0FF120C1D9000C31244
:101881000FDF9000C1E0FCA3E0FDE4120C339000F7
:10189100C3E0F8A3E0F9A3E0FAA3E0FB120BA46014
:1018A1001440129000C1E0FCA3E0FDE4120C33905F
:1018B10000C3120FDF9000BFE0FEA3E0FFD3900052
:1018C100BEE09F9000BDE09E40057E007F642290B7
:1018D10000C3E0FCA3E0FDA3E0FEA3E0FF120C6C5B
:0118E10022E4
:03000B00021F676A
:101F6700C0E0C083C082C0D090007E20B305E004EB
:101F7700F08002E4F090007F20B205E004F08002D8
:101F8700E4F090007EE0D394504008E4F090000421
:101F9700E004F090007FE0D394504008E4F0900014
:0D1FA70005E004F0D0D0D082D083D0E0322D
:10230A00438E805389F0758AC0758C63C28DD28CD6
:03231A00D2A92223
:10000E000000000000000000002F000000000700AC
:10001E00070000147F147F1400242A7F2A12006226
:10002E0064081323003649552250000005030000D2
:10003E0000001C224100000041221C000014083E5A
:10004E0008140008083E0808000000A06000000820
:10005E000808080800006060000000201008040274
:10006E00003E5149453E0000427F40000042615132
:10007E004946002141454B31001814127F100027CC
:10008E0045454539003C4A4949300001710905038F
:10009E0000364949493600064949291E00003636C0
:1000AE000000000056360000000814224100001423
:1000BE001414141400004122140800020151090600
:1000CE0000324959513E007C1211127C007F494981
:1000DE004936003E41414122007F4141221C007FB2
:1000EE0049494941007F09090901003E4149497AC0
:1000FE00007F0808087F0000417F4100002040413A
:10010E003F01007F08142241007F40404040007FA5
:10011E00020C027F007F0408107F003E4141413EE9
:10012E00007F09090906003E4151215E007F091931
:10013E0029460046494949310001017F0101003F2E
:10014E004040403F001F2040201F003F4038403FAE
:10015E000063140814630007087008070061514912
:10016E00454300007F41410000552A552A550000A5
:10017E0041417F0000040201020400404040404023
:10018E00000001020400002054545478007F4844BB
:10019E00443800384444442000384444487F0038F2
:1001AE005454541800087E0901020018A4A4A47C1B
:1001BE00007F080404780000447D400000408084E5
:1001CE007D00007F102844000000417F4000007C2D
:1001DE0004180478007C0804047800384444443839
:1001EE0000FC242424180018242418FC007C080485
:1001FE00040800485454542000043F444020003C5E
:10020E004040207C001C2040201C003C4030403CE4
:10021E00004428102844001CA0A0A07C0044645474
:10022E004C441414141414140000000000000000B8
:10023E000000000000000000000000F800000000B8
:10024E00000000333000000000100C06100C0600F9
:10025E00000000000000000040C07840C078400060
:10026E00043F04043F040400007088FC08300000C2
:10027E00001820FF211E0000F008F000E01800001A
:10028E0000211C031E211E0000F0088870000000D3
:10029E001E2123241927211010160E000000000025
:1002AE000000000000000000000000E01804020042
:1002BE00000000071820400000020418E0000000B3
:1002CE000040201807000000404080F080404000B1
:1002DE000202010F01020200000000F00000000007
:1002EE000101011F010101000000000000000000DB
:1002FE0080B0700000000000000000000000000050
:10030E0000010101010101010000000000000000D8
:10031E000030300000000000000000008060180473
:10032E00006018060100000000E010080810E00050
:10033E00000F102020100F00001010F80000000019
:10034E000020203F20200000007008080888700060
:10035E0000302824222130000030088888483000E0
:10036E000018202020110E000000C02010F8000000
:10037E0000070424243F240000F808888808080099
:10038E000019212020110E0000E0108888180000AE
:10039E00000F112020110E0000380808C838080080
:1003AE000000003F00000000007088080888700000
:1003BE00001C222121221C0000E010080810E00081
:1003CE000000312222110F00000000C0C00000000A
:1003DE00000000303000000000000080000000002F
:1003EE000000806000000000000080402010080027
:1003FE0000010204081020004040404040404000F0
:10040E0004040404040404000008102040800000CA
:10041E000020100804020100007048080808F000CF
:10042E000000003036010000C030C828E810E0009F
:10043E000718272423140B000000C038E00000002A
:10044E00203C23020227382008F888888870000094
:10045E00203F202020110E00C03008080808380068
:10046E00071820202010080008F808080810E000DF
:10047E00203F202020100F0008F88888E808100080
:10048E00203F20202320180008F88888E808100054
:10049E00203F200003000000C0300808083800008C
:1004AE0007182020221E020008F808000008F8088D
:1004BE00203F210101213F20000808F80808000014
:1004CE000020203F2020000000000808F808080047
:1004DE00C08080807F00000008F888C028180800BF
:1004EE00203F20012638200008F8080000000000F8
:1004FE00203F20202020300008F8F800F8F80800EF
:10050E00203F003F003F200008F830C00008F808E8
:10051E00203F200007183F00E01008080810E000F8
:10052E000F10202020100F0008F808080808F0000F
:10053E00203F210101010000E01008080810E00032
:10054E000F18242438504F0008F8888888887000C7
:10055E00203F2000030C3020007088080808380067
:10056E000038202121221C00180808F8080818005D
:10057E000000203F2000000008F808000008F808DE
:10058E00001F202020201F000878880000C838088F
:10059E00000007380E010000F80800F80008F80007
:1005AE00033C0700073C03000818688080681808A1
:1005BE0020302C03032C30200838C800C83808001F
:1005CE000000203F2000000010080808C83808006E
:1005DE002038262120201800000000FE0202020012
:1005EE000000007F40404000000C30C000000000C2
:1005FE00000000010638C00000020202FE000000EA
:10060E00004040407F00000000000402020204008F
:10061E0000000000000000000000000000000000CC
:10062E0080808080808080800002020400000000B4
:10063E0000000000000000000000808080800000AC
:10064E000019242222223F2008F80080800000009A
:10065E00003F112020110E0000000080808000005D
:10066E00000E112020201100000000808088F8006C
:10067E00000E112020103F2000008080808000009E
:10068E00001F222222221300008080F08888881802
:10069E000020203F2020000000008080808080000D
:1006AE00006B94949493600008F8008080800000A2
:1006BE00203F210000203F2000809898000000007D
:1006CE000020203F202000000000008098980000AD
:1006DE0000C08080807F000008F8000080808000CD
:1006EE00203F24022D302000000808F800000000F2
:1006FE000020203F202000008080808080808000AD
:10070E00203F20003F20003F80800080808000003E
:10071E00203F210000203F200000808080800000CC
:10072E00001F202020201F008080008080000000FD
:10073E0080FFA12020110E0000000080808080002C
:10074E00000E112020A0FF8080808000808080001D
:10075E0020203F212000010000008080808080004A
:10076E000033242424241900008080E080800000BF
:10077E000000001F2020000080800000008080000C
:10078E00001F202020103F2080808000008080806D
:10079E0000010E30080601008080008000808080FD
:1007AE000F300C030C300F00008080008080800022
:1007BE000020312E0E31200080808000008080804D
:1007CE0080818E70180601000080808080808000FD
:1007DE000021302C2221300000000000807C02021B
:1007EE0000000000003F404000000000FF0000003D
:1007FE0000000000FF0000000002027C80000000EC
:10080E000040403F00000000000601010202040407
:10081E0000000000000000000000F010101010FF9B
:10082E0010101010F000000000000F04040404FF6C
:10083E00040404040F0000004040405F55555575F8
:10084E005555555F404040000040200F09498979B9
:10085E000909090F2040000000FE02424ACA4A4A16
:10086E00CA4A4A4202FE000000FF40504C4340403C
:10087E004F50505C40FF00000000F888888888FFC9
:10088E0088888888F800000000001F080808087F84
:10089E00888888889F80F00080828282828282E2AD
:1008AE00A2928A8682808000000000000040807F35
:1008BE000000000000000000101010FF10900888CB
:1008CE008888FF88888808000444827F01808040E1
:1008DE00432C1028468180000010101010D030FFDD
:1008EE0030D0121C1010000010080402010000FF8E
:0808FE000000010204081000D3
:10229E00D295D2947F017E0012231DC2947F017EBF
:0722AE000012231DC295225E
:1022F600C294D2957F017E0012231DD2947F017E67
:042306000002231D91
:10228500C295A20192947F017E0012231DD2957FF3
:09229500017E0012231DC29522F6
:1020D000E49000D6F0A3F0D2947F01FE12231DD22B
:1020E000957F017E0012231D30941F9000D7E004DD
:1020F000F070069000D6E004F0D39000D7E094E2B0
:0D2100009000D6E0940440E0D322C295C3C5
:01210D0022AF
:051DFE009000D6EFF09B
:101E0300C295C2947F017E0012231D9000D77407F0
:101E1300F09000D7E0FFC36480948040417E00745B
:101E230001A807088005C333CE33CED8F9FF90004D
:101E3300D6E0FDEF5D6004D2948002C2947F017E00
:101E43000012231DD2957F017E0012231DC2957FB0
:0E1E5300017E0012231D9000D7E014F080B332
:011E6100225E
:101F1700E49000C4F0A37407F0C2957F017E00121D
:101F2700231DD2953094179000C4E0FFA3E0FEF87C
:101F37007401088002C333D8FC4F9000C4F07F01BE
:101F47007E0012231D9000C5E014F0E0C364809466
:0F1F57008050C6A20092011222859000C4E0FFC4
:011F66002258
:10208C00F583E5822FF582E5833EF583E493FF7DAE
:01209C000142
:10209D009000D4EFF0A3EDF012229E7F78121DFE7A
:1020AD001220D09000D5E060047F408002E4FF1242
:1020BD001DFE1220D09000D4E0FF121DFE1220D084
:0320CD000222F6F6
:102269009000EBEFF07006FD7FA612209D9000EB29
:0C227900E0B40107E4FD7FA712209D22C5
:1021D2009000ECEFF0700DFD7FC812209DE4FD7FB2
:1021E200A112209D9000ECE0B4010EE4FD7FC0122C
:0A21F200209DE4FD7FA012209D2235
:07214700E0FFA3E0FD04F03E
:10214E009000D3EFF0ED24B0FFE4FD12209D90003F
:10215E00D3E054F0C4540F4410FFE4FD12209D90C0
:0B216E0000D3E0540FFFE4FD02209DB1
:1022CC00E4FD7F8D12209DE4FD7F1412209DE4FD22
:0522DC007FAF02209D10
:1022E100E4FD7F8D12209DE4FD7F1012209DE4FD11
:0522F1007FAE02209DFC
:10204600E49000BDF09000BDE0FFC394085036EF69
:1020560024B0FFE4FD12209DE4FDFF12209DE4FD67
:102066007F1012209DE49000BEF07D01E4FF122057
:102076009D9000BEE004F0E0C3948040ED9000BD6A
:05208600E004F080C041
:01208B002232
:081632009000C9EFF0A3EDF0F8
:10163A00E49000CDF09000CCE0FFC313FD9000CE03
:10164A00F0E4A3F0A3F0EFB40809A3E4F0A374064E
:10165A00F080319000CCE0FF131313541FF582750C
:10166A008300EF54077E0060047F0180027F00EF51
:10167A002582FFEE3583FE7C00120E109000D1EE1B
:10168A00F0A3EFF0EB24E09000CDF09000C9E0FF6A
:10169A00A3E0FD12214EE49000CFF0A3F09000D118
:1016AA00E0FCA3E0FD9000CFE0FEA3E0FFC39DEEC7
:1016BA009C50709000CEE0FD7C00120E22ED4C7022
:1016CA000E9000CCE0640860069000C91221479091
:1016DA0000CCE0B4081A9000CFE0FEA3E0FF90002F
:1016EA00CDE075F006A4240EF582E5F03400801FE3
:1016FA009000CCE0B4102C9000CFE0FEA3E0FF9065
:10170A0000CDE075F010A42436F582E5F03402121B
:10171A00208C9000D0E004F070069000CFE004F036
:03172A000216A7FD
:01172D002299
:081FB4009000C9EFF0A3EDF06D
:101FBC00A3120FEB000000019000CAE0FF14F0EF39
:101FCC006020A3E0F8A3E0F9A3E0FAA3E0FB900003
:101FDC00C9E0FFE4FCFDFE120EA39000CB120FDF54
:101FEC0080D69000CBE0FCA3E0FDA3E0FEA3E0FFD5
:011FFC0022C2
:08172E009000BDEFF0A3EDF007
:10173600E49000C7F0A3F09000C4E0B4080690005F
:10174600C77402F0E49000C5F09000C3E0FF90007B
:10175600C5E0FEC39F400302180CC3EF9E14FD7F35
:101766000A121FB4A804A905AA06AB079000BFE099
:10177600FCA3E0FDA3E0FEA3E0FF120F2EE47B0A2C
:10178600FAF9F8120F2E9000C6EBF09000C8E07040
:101796003C9000C3E014FF9000C5E0FEC39F502DAF
:1017A600A3E070239000C4E0FCC313FF9000C7E0E1
:1017B6002F8EF0A4FF9000BDE02FFFA3E0FD900068
:1017C600CCECF07B2080339000C87401F09000C40C
:1017D600E0FEC313FF9000C7E02FFF9000C5E0FDB9
:1017E600EF8DF0A4FF9000BDE02FFFA3E0FD900079
:1017F600C6E02430FB9000CCEEF01216329000C505
:06180600E004F002174FA0
:01180C0022B9
:101D26009000BDEFF0A3EDF0A3EBF0A3EAF0A3E97A
:011D3600F0BC
:101D3700E49000C3F09000BFE0FBA3E0FAA3E0F952
:101D47009000C3E0F582758300120DE360409000B8
:101D5700BDE0FFA3E0FD9000C3E0FE04F08E8275B6
:101D67008300120DE3FB9000C2E09000CCF0121646
:101D7700329000C2E0FFB408099000BDE02406F0ED
:0E1D870080B3EFC313FF9000BDE02FF080A7E4
:011D9500222B
:0B1AD4009000E3EFF0A3EDF0A3EBF0B7
:101ADF00A3E0FF131313541FFD7C00EF54077E0088
:101AEF0060047F0180027F00EF2DFFEE3CFE90002F
:101AFF00E6E0FD7C00120E109000E9EEF0A3EFF08F
:101B0F00E49000E7F0A3F09000E9E0FCA3E0FD9083
:101B1F0000E7E0FEA3E0FFC39DEE9C50439000E67C
:101B2F00E0FD7C00120E22ED4C70069000E31221B6
:101B3F00479000E6E0B41028A3E0FEA3E0FF90007A
:101B4F00E5E0C43354E02426F582E4340812208CF7
:101B5F009000E8E004F070AF9000E7E004F080A799
:011B6F002253
:0B1C07009000D8EFF0A3EDF0A3EBF08D
:101C1200E49000DFF0A3F09000DBE0FF1313135415
:101C22001FFEEF540760047F0180027F00EE2F90B9
:101C320000DBF0E49000E1F09000DBE0FF9000E1D7
:101C4200E0FEC39F50519000D8E0FFA3E0FDEE2DCF
:101C5200FD12214EE49000E2F09000DAE0FF9000E5
:101C6200E2E0C39F50299000DCE0FBA3E0FAA3E08E
:101C7200F9A3E475F001120E8D85F082F583120D41
:101C8200E3FF7D0112209D9000E2E004F080CA9003
:071C920000E1E004F080A175
:011C99002228
:05000300E4FD02209D58
:101A32007FC87E001222B57FAE1200037FA812007B
:101A4200037F1F1200037FD3120003E4FF1200037F
:101A52007F401200037FA01200037FC01200037FA9
:101A6200811200037F7F1200037FA41200037FA66E
:101A72001200037FD51200037F801200037F8D12B4
:101A820000037F141200037F2E1200037F20120036
:101A9200037F101200037FDA1200037F0212000399
:101AA2007FD91200037F221200037FDB1200037F23
:101AB200201200037FB0120003E4FF1200037F1024
:101AC2001200037FAF1200037F2C7E011222B502A7
:021AD2002046AC
:1022B5007DA07C0FED1D70011C144C70F7EF1F7095
:0622C500011E144E70EA38
:0122CB0022F0
:10231D007C007D0A120E10EF1F70011E144E70F717
:01232D00228D
:102179009000C0EFF0A3EDF012229E7FD0121DFE59
:102189001220D09000C0E0FF121DFE1220D0900056
:0F219900C1E0FF121DFE1220D01222F67F00229D
:05210E009000C2EFF09B
:1021130012229E7FD0121DFE1220D09000C2E0FF3B
:10212300121DFE1220D012229E7FD1121DFE1220FC
:10213300D0D200121F179000C3EFF01222F69000C6
:03214300C3E0FFF7
:012146002276
:0C233B00EF33333354F8FD7F1B0221798F
:0C234700EF33333354F8FD7F1C02217982
:101FFD00E4FDC3EF94BCEE940040030D8036C3EFB7
:10200D009462EE940040047D028029C3EF942AEE81
:10201D00940040047D03801CC3EF9414EE940040A3
:10202D00047D04800FC3EF940AEE940040047D05F7
:09203D0080027D067F1A02217960
:081E62009000BDEEF0A3EFF0CB
:101E6A00D394E8EE9403400A9000BD7403F0A3747F
:101E7A00E8F0C39000BEE094049000BDE0940050E6
:101E8A0006E4F0A37404F09000BDE0FCA3E0FD7E3C
:101E9A00037FE8120E22EF14A3F0FD7F19122179B5
:101EAA009000BFEFF09000BDE0C313FEA3E013FF64
:031EBA00021FFD07
:101D96007D807F6B1221797F647E001222B5E4FD7F
:101DA6007F6B1221797F0312233BE4FF1223477FC7
:101DB600327E00121E62E4FD7F38122179E4FD7F37
:101DC6006A1221797DFF7F231221797D807F371268
:101DD60021797F7512210EEFB468177D017F6B1292
:101DE6002179E4FD7F6C1221797FC87E00121E6284
:071DF60080037F01227F0042
:011DFD0022C3
:0521FC009000BDEFF0B2
:1022010012210E9000BEEFF09000BDE004FF1221FC
:102211000EAD079000BEE0FE7C00E42DFFEC3EFE1B
:01222100229A
:101EBD007F4112210E9000C1EFF07F4212210EAD35
:101ECD00079000C1E0FE7C00E42DFFEC3EFEAD0767
:101EDD00FC120C33E4FBFA79AA7843120B077BB89A
:101EED007A1E7912784212090D9000BD120FDFE4AF
:101EFD00FFFE7D207C419000BDE0F8A3E0F9A3E05A
:0A1F0D00FAA3E0FB1209FE020C6CBF
:10090600020CD8E86480F8E933E83360110460F03B
:10091600ED33EC337009E8FCE9FDEAFEEBFF220457
:1009260060DED3EB9FEA9EE99DE8C2E78CF0C2F752
:1009360095F0400CE8CCF8E9CDF9EACEFAEBCFFB1E
:10094600120CA385D0F05804700320D5B3E80470C8
:10095600075002B2D5020CE292D5EC0460F7E4CC63
:10096600C0E0C398F8603B94186008400DD0E0FBE7
:10097600020CBAE4FBFAC9FC8028E830E406E4C9B4
:10098600FBE4CAFCE830E305E4C9CACBFCE854073B
:100996006010F8C3E913F9EA13FAEB13FBEC13FC46
:1009A600D8F130F52FC3E49CFCEF9BFFEE9AFEEDE9
:1009B60099FDD0E0FBEF4E4D4C701222DB03020C8A
:1009C600DFEC2CFCEF33FFEE33FEED33FDED30E7CD
:1009D600EB020CBAEF2BFFEE3AFEED39FDD0E0FB51
:1009E60050130BBB0003020CE2ED13FDEE13FEEFFA
:0809F60013FFEC13FC020CBA24
:1009FE00EC4D6011E8497017ED33EC3304600DE4F3
:100A0E00FCFFFEFD22E933E8330470F8020CD81225
:100A1E000CA358046009E4CC248150062850090226
:100A2E000CE2284003020CDFC0E0EB4A7044B980B0
:100A3E0006D0E0FB020CCEEF4E701CBD8008EBFF23
:100A4E00EAFEE9FD80EBE98DF0A4FEE5F0020AE78F
:100A5E00E9CDF9EAFEEBFFEF89F0A4FCE5F0CE89D3
:100A6E00F0A42EFFE435F0CD89F0A42DFEE435F090
:100A7E008067EF4E7005BD80D780C3EF8BF0A4ACBE
:100A8E00F0EE8BF0A42CFCE435F0F8EF8AF0A42CF9
:100A9E00E5F038FCE433CB8DF0A42CFCE5F03BF80C
:100AAE00EE8AF0A42CFCE5F038F8E433CF89F0A4FC
:100ABE002CFCE5F038CF3400CE89F0A42FFFE5F002
:100ACE003EFEE433C98DF0A42EFEE5F039CD8AF05A
:100ADE00A42FFFE5F03EFEE43DFD33D0E0FB5007D2
:100AEE000BBB000F020CE2EC2CFCEF33FFEE33FEDF
:060AFE00ED33FD020CBA0D
:100B0400020CE2EC5D046005E859047003020CD8A1
:100B1400120CA3580460F6EC4860F2EC7004FDFE7D
:100B2400FF22C860DB2481C85009C39860025006C4
:100B3400020CDF9850CAF582E9294B4A7005AB8252
:100B4400020CCE75F0007C1A7880C3EF9BEE9AED10
:100B540099400DC3EF9BFFEE9AFEED99FDE842F03C
:100B6400DC23ACF0D0E0FFD0E0FED0E0FDAB82208F
:100B7400E7101BEB60BAEC2CFCEF33FFEE33FEED19
:100B840033FD020CBAE803F830E705C0F075F00055
:100B9400EF2FFFEE33FEED33FD40B830E7C280AAFD
:100BA40074F8CC6480CCC86480C8F58204604FC3F8
:100BB400EB9FF5F0EA9E42F0E99D42F0E89C45F097
:100BC400603C501DE5825FFFE582D313CB5BCBF421
:100BD4002B5582FB50280ABA002409B9002008804A
:100BE4001DE5825BFBE582D313CF5FCFF4C3132FE4
:100BF4005582FF50090EBE00050DBD00010CC3EB6C
:100C04009FF5F0EA9E42F0E99D42F0E89C45F060D1
:090C140007CC4820E701B3EC22F3
:100C1D00ED33EC33600A047003BD8004ECB2E7FCE5
:010C2D0022A4
:100C2E0075F020800E75F010800575F0087D007E41
:100C3E00007F003392D530D503120FC0EC33401035
:100C4E00EF33FFEE33FEED33FDEC33FCD5F0ED224A
:0E0C5E00E5F0247EA2D513CC92E7CDCEFF2286
:100C6C00EDD2E7CD33EC3392D524814006E4FFFE80
:100C7C00FDFC22FCE4CFCECDCC24E0501174FF80DF
:100C8C00EDC3CC13CCCD13CDCE13CECF13CF04707C
:070C9C00F030D5DE020FC0AD
:100CA300E9D2E7C933E833F892D5EDD2E7CD33EC97
:070CB30033FC5002B2D52210
:100CBA00EC30E7100FBF000C0EBE00080DBD00049B
:100CCA000BEB6014A2D5EB13FCED92E7FD2274FF47
:100CDA00FCFDFEFF22E480F8A2D574FF13FC7D80A0
:030CEA00E480EFB4
:03000000021C9A45
:0C1C9A00787FE4F6D8FD758120021CE183
:100CED00E709F608DFFA8046E709F208DFFA803EE9
:100CFD0088828C83E709F0A3DFFA8032E309F608D6
:100D0D00DFFA8078E309F208DFFA807088828C833D
:100D1D00E309F0A3DFFA806489828A83E0A3F608F1
:100D2D00DFFA805889828A83E0A3F208DFFA804CCB
:100D3D0080D280FA80C680D4806980F280338010A2
:100D4D0080A680EA809A80A880DA80E280CA80330B
:100D5D0089828A83ECFAE493A3C8C582C8CCC58383
:100D6D00CCF0A3C8C582C8CCC583CCDFE9DEE78053
:100D7D000D89828A83E493A3F608DFF9ECFAA9F0D2
:100D8D00EDFB2289828A83ECFAE0A3C8C582C8CC28
:100D9D00C583CCF0A3C8C582C8CCC583CCDFEADE41
:100DAD00E880DB89828A83E493A3F208DFF980CCA3
:100DBD0088F0EF60010E4E60C388F0ED2402B4049C
:100DCD000050B9F582EB2402B4040050AF23234543
:060DDD008223900D3D731E
:100DE300BB010CE58229F582E5833AF583E02250C5
:100DF30006E92582F8E622BBFE06E92582F8E2220F
:0D0E0300E58229F582E5833AF583E4932228
:100E1000EF8DF0A4A8F0CF8CF0A428CE8DF0A42EF6
:020E2000FE22B0
:100E2200BC000BBE0029EF8DF084FFADF022E4CCB4
:100E3200F875F008EF2FFFEE33FEEC33FCEE9DEC7D
:100E4200984005FCEE9DFE0FD5F0E9E4CEFD22EDC3
:100E5200F8F5F0EE8420D21CFEADF075F008EF2F0D
:100E6200FFED33FD4007985006D5F0F222C398FDFE
:050E72000FD5F0EA229B
:100E7700C5F0F8A3E028F0C5F0F8E5821582700206
:060E87001583E038F022A3
:100E8D00A3F8E0C5F025F0F0E58215827002158318
:060E9D00E0C838F0E82275
:100EA300E88FF0A4CC8BF0A42CFCE98EF0A42CFCEE
:100EB3008AF0EDA42CFCEA8EF0A4CDA8F08BF0A46C
:100EC3002DCC3825F0FDE98FF0A42CCD35F0FCEBCB
:100ED3008EF0A4FEA9F0EB8FF0A4CFC5F02ECD3990
:0F0EE300FEE43CFCEAA42DCE35F0FDE43CFC22FD
:100EF20075F008758200EF2FFFEE33FECD33CDCCB7
:100F020033CCC58233C5829BED9AEC99E582984039
:100F12000CF582EE9BFEED9AFDEC99FC0FD5F0D616
:100F2200E4CEFBE4CDFAE4CCF9A88222B800C1B940
:100F32000059BA002DEC8BF084CFCECDFCE5F0CB7E
:100F4200F97818EF2FFFEE33FEED33FDEC33FCEBB7
:100F520033FB10D703994004EB99FB0FD8E5E4F972
:100F6200FA227818EF2FFFEE33FEED33FDEC33FC5F
:100F7200C933C910D7059BE99A4007EC9BFCE99A53
:100F8200F90FD8E0E4C9FAE4CCFB2275F010EF2F98
:100F9200FFEE33FEED33FDCC33CCC833C810D70798
:100FA2009BEC9AE899400AED9BFDEC9AFCE899F8D3
:0E0FB2000FD5F0DAE4CDFBE4CCFAE4C8F92266
:0E0FC000C3E49FFFE49EFEE49DFDE49CFC2242
:100FCE00EB9FF5F0EA9E42F0E99D42F0E89C45F079
:010FDE0022F0
:0C0FDF00ECF0A3EDF0A3EEF0A3EFF02285
:100FEB00A8828583F0D083D08212100212100212D5
:100FFB001002121002E473E493A3C583C5F0C583FA
:10100B00C8C582C8F0A3C583C5F0C583C8C582C84F
:01101B0022B2
:0C101C00A42582F582E5F03583F58322DF
:101CA600021028E493A3F8E493A34003F68001F21C
:101CB60008DFF48029E493A3F85407240CC8C3333F
:101CC600C4540F4420C8834004F456800146F6DF0E
:101CD600E4800B0102040810204080901B70E47E13
:101CE600019360BCA3FF543F30E509541FFEE49303
:101CF600A360010ECF54C025E060A840B8E493A3CA
:101D0600FAE493A3F8E493A3C8C582C8CAC583CAF4
:101D1600F0A3C8C582C8CAC583CADFE9DEE780BEAC
:011C060000DD
:00000001FF
