:10230A005365743A00506F773A00536C703A000084
:10231A0000000000000000000000000000000000B3
:03232A00000000B0
:101AE60041008200410083004100060041000700DA
:101AF60042008000004200040000607800080000F8
:101B0600000000000000000000000032005A000043
:101B1600000000000000006400FE0000000000005D
:101B260000000096015E000000000000000000C8F2
:101B360001E8000000000000000000FA026C00004E
:101B4600000000000000012C03120000000000004D
:101B56000000015E039A00000000000000000190F2
:101B66000424000000000000000001C204E200009E
:101B760000000000000042000000004200020000D9
:1009160090008412165A0000000078887C007D0141
:100926007BFF7A2379197E007F1412140C9000AC99
:1009360012165A000000009000B07401F0A3745E15
:10094600F0A37401F0A3745EF0E49000B6F0A3F097
:10095600A3F0A3F0A3F0A3F0A3F0A3F09000C0F0DF
:100966009000C0E0FFC3940A4003020AA5EF6409A1
:10097600705CE0FB75F00CA42400F582E43400F50D
:1009860083E0FCA3E0FDA3E0FEA3E0FFEB75F00C23
:10099600A4240CF582E43400F58312164E9000C0B0
:1009A600E0FB75F00CA42404F582E43400F583E042
:1009B600FCA3E0FDA3E0FEA3E0FFEB75F00CA4248E
:1009C60010F582E43400F58312164E020AA5900053
:1009D600C0E0FF75F00CA4240AF582E43400F58328
:1009E600E0FCA3E0FDEF75F00CA42416F582E434D8
:1009F60000F583E0FEA3E0C39DFDEE9CFC1212828F
:100A0600E4FBFA794878421211E09000C0E0FB75E9
:100A1600F00CA4240CF582E43400F58312164EEB98
:100A260075F00CA42408F582E43400F583E0FCA3F9
:100A3600E0FDEC1212829000C0E075F00CA4240CCC
:100A4600F582E43400F583E0F8A3E0F9A3E0FAA325
:100A5600E0FB1210D7C004C005C006C0079000C056
:100A6600E075F00CA4240AF582E43400F583E0FC7A
:100A7600A3E0FDEC121282D003D002D001D0001206
:100A86000FE29000C0E075F00CA42410F582E43467
:100A960000F58312164E9000C0E004F002096612BB
:100AA6002266121B8712000E12238A12239D121E23
:100AB600B9D2AFC2B67BFF7A23790A9000C6740812
:100AC600F0E4FD7F48121DE17BFF7A23790F900049
:100AD600C67408F07D017F48121DE17BFF7A2379F9
:100AE600149000C67408F07D027F48121DE1900044
:100AF600B0E0FEA3E0FFE4FCFD9000C312164E90AA
:100B060000C77403F0A37408F0E4FD7F661218AB07
:100B1600C2ABE4900004F0A3F0C2B6D2B57FC27EA9
:100B2600011223D29000B0E0FEA3E0FF12198A90D2
:100B360000B4EEF0A3EFF0E4FF122290E4FCFD9087
:100B460000ACA3A3E0FAA3E090008875F0041216A7
:100B56008BEA25E025E02583F58312164E9000AC3E
:100B6600A3A3E0FEA3E090008875F00412168BEEB6
:100B760025E025E02583F583E0FCA3E0FDA3E0FE68
:100B8600A3E0FFE47BE47A0CF9F8121512E4FB7A91
:100B960010F9F812159D9000ACA3A3E0FAA3E0901B
:100BA600008875F00412168BEA25E025E02583F50A
:100BB6008312164E9000ACE0FCA3E0FDA3E0FEA37A
:100BC600E02401FFE43EFEE43DFDE43CFC9000AC85
:100BD60012164EE47F05FEFDFC9000ACE0F8A3E0A3
:100BE600F9A3E0FAA3E0FBC312163D700A9000AC2D
:100BF60012165A00000000D2AB900088E0FCA3E079
:100C0600FDA3E0FEA3E0FF90009C12164E90008824
:100C1600E0FCA3E0FDA3E0FEA3E0FF9000A0121617
:100C26004E9000A412165A00000000E49000C0F096
:100C36009000C0E0FFC394054003020D29EF25E0B4
:100C460025E02488F582E43400F583E0FCA3E0FD8A
:100C5600A3E0FEA3E0FF9000A0E0F8A3E0F9A3E084
:100C6600FAA3E0FBD312163D40229000C0E025E037
:100C760025E02488F582E43400F583E0FCA3E0FD5A
:100C8600A3E0FEA3E0FF9000A012164E9000C0E085
:100C960025E025E02488F582E43400F583E0FCA312
:100CA600E0FDA3E0FEA3E0FF90009CE0F8A3E0F9DE
:100CB600A3E0FAA3E0FBC312163D50229000C0E069
:100CC60025E025E02488F582E43400F583E0FCA3E2
:100CD600E0FDA3E0FEA3E0FF90009C12164E9000FC
:100CE600A4E0FCA3E0FDA3E0FEA3E0FF9000C0E0CB
:100CF60025E025E02488F582E43400F583E0F8A3B6
:100D0600E0F9A3E0FAA3E0FBEF2BFFEE3AFEED39A4
:100D1600FDEC38FC9000A412164E9000C0E004F0E2
:100D2600020C3690009CE0F8A3E0F9A3E0FAA3E0F9
:100D3600FB9000A4E0FCA3E0FDA3E0FEA3E0C39BC0
:100D4600FFEE9AFEED99FDEC98FC9000A0E0F8A36A
:100D5600E0F9A3E0FAA3E0FBC3EF9BFFEE9AFEEDFA
:100D660099FDEC98FCE47B03FAF9F812159D9000C6
:100D7600A812164E9000A8A3A3E0FEA3E0FF9000E1
:100D8600B4E0FCA3E0FD7BD07A07121697900080B2
:100D9600EEF0A3EFF09000A8A3A3E0FEA3E0FF12FD
:100DA6001A38E4FCFD9000C312164E9000C7740377
:100DB600F0A37410F0E4FD7F201218AB7F451222D9
:100DC600E49000B6EEF0FCA3EFF0FD9000BAE0FE72
:100DD600A3E0FFC3ED9FFFEC9EFE9000B8F0A3EFEB
:100DE600F0A3ECF0A3EDF01223B0C3EF9414EE647D
:100DF60080948050109000BDE004F0700F9000BC0D
:100E0600E004F08007E49000BCF0A3F09000BCE0A2
:100E1600FEA3E0FF7C007D141214C6D3EF9458EEB7
:100E2600648094824009E49000B0F0A3F08025D35A
:100E3600EF942CEE64809481400B9000B0E4F0A314
:100E460074C8F0800F9000B2E0FFA3E09000B0CF2E
:100E5600F0A3EFF07F01122290AC06AD07E4121268
:100E66008290008412164E7F007E407D4E7C459017
:100E76000084E0F8A3E0F9A3E0FAA3E0FB1210D7A0
:100E8600E4FBFA798078451211E090008412164E40
:100E9600E4FBFA797A7844900084E0FCA3E0FDA3B1
:100EA600E0FEA3E0FF1211E07433FBFAF978411279
:100EB60010D790008412164EE4FFFE7D207C4190F0
:100EC6000084E0F8A3E0F9A3E0FAA3E0FB1210D750
:100ED6001212BB9000C312164E9000C77403F0A303
:100EE6007408F07D017F661218AB9000BCE0FEA38B
:100EF600E0FF7C007D141214C6EE3395E0FDFC90F5
:100F060000C312164E9000C77403F0A37408F07D58
:100F1600027F661218AB900006E0600BA3E0600744
:100F2600E4900006F0A3F0900006E0FF604E90000B
:100F3600B1E02FF09000B0E03400F0D3A3E094C20B
:100F46009000B0E0940140077401F0A374C2F090E1
:100F560000B0E0FEA3E0FFA3EEF0A3EFF0E4FCFD9B
:100F66009000C312164E9000C77403F0A37408F0E5
:100F7600E4FD7F661218ABE4900006F0900007E0EF
:100F8600FF604CC39000B1E09FFF9000B0E094007A
:100F9600FEF0A3EFF0C3EE94005007E49000B0F02B
:100FA600A3F09000B0E0FEA3E0FFA3EEF0A3EFF005
:100FB600E4FCFD9000C312164E9000C77403F0A324
:100FC6007408F0E4FD7F661218ABE4900007F07F2A
:090FD600327E00122349020B16C1
:1022660043BA8043B26053B19F4392405391BF43F8
:1022760092304391305392FC43910353B2F353B1DE
:0A228600F3D2B3D2B2D295D2942263
:0D000E0090FEA8743FF075DE0F75BC8022D7
:1022900043BC4053BCF0EF42BC0000E5BC30E5FB62
:1022A00053BCDF85BDA0AFBDEF75F010A4FFAEF04D
:0A22B000E5BEC4540FFDEF4DFF2200
:08198A009000C1EEF0A3EFF0A4
:10199200E4A3F0F09000C3E0FFC39409504AEF754E
:1019A200F00CA42408F582E43400F583E0FEA3E001
:1019B200FF9000C1E0FCA3E0FDC39FEC9E4021A389
:1019C200E075F00CA42414F582E43400F583E0FE03
:1019D200A3E0FFC3ED9FEC9E50069000C1A38010D0
:1019E2009000C3E004F080AC9000C1E0FCA3E0FDF5
:1019F200E41212829000C3E075F00CA4240CF5826C
:101A0200E43400F583E0F8A3E0F9A3E0FAA3E0FBF5
:101A12001210D79000C3E075F00CA42410F582E4F4
:101A22003400F583E0F8A3E0F9A3E0FAA3E0FB12A7
:051A32000FE61212BBDB
:011A3700228C
:081A38009000C1EEF0A3EFF0F5
:101A4000E4A3F0F09000C3E0FFC39409504AEF759F
:101A5000F00CA4240AF582E43400F583E0FEA3E050
:101A6000FF9000C1E0FCA3E0FDC39FEC9E4021A3DA
:101A7000E075F00CA42416F582E43400F583E0FE52
:101A8000A3E0FFC3ED9FEC9E50069000C1A3801021
:101A90009000C3E004F080AC9000C1E0FCA3E0FD46
:101AA000E41212829000C3E075F00CA42410F582B9
:101AB000E43400F583E0F8A3E0F9A3E0FAA3E0FB47
:101AC000120FE29000C3E075F00CA4240CF582E440
:101AD0003400F583E0F8A3E0F9A3E0FAA3E0FB12F9
:051AE00011E01212BB31
:011AE50022DE
:081697009000C1EAF0A3EBF0A2
:10169F00E4FBFAC3ED9FFFEC9EFEA3F0A3EFF090E7
:1016AF000003E02FF0900002E03EF0D3A3E094B0EF
:1016BF00900002E06480948440077404F0A374B037
:1016CF00F0C3900003E09450900002E06480947B9C
:1016DF00500774FBF0A37450F0900000E0FEA3E0FD
:1016EF00FFC39000C4E09FFF9000C3E09E9000C531
:1016FF00F0A3EFF0900002E0FCA3E0FDEC121282E9
:10170F007B857AEB7951783F1210D7C004C005C0A2
:10171F0006C0079000C3E0FCA3E0FDEC121282E4C8
:10172F00FBFA798078411210D7A804A905AA06AB55
:10173F0007D007D006D005D004120FE6C004C005AD
:10174F00C006C0079000C5E0FCA3E0FDEC121282BA
:10175F007433FBFAF9783F1210D7A804A905AA062B
:10176F00AB07D007D006D005D004120FE61212BB7C
:10177F00AA06AB079000C3E0FFA3E0900000CFF0F4
:10178F00A3EFF09000C1E0FEA3E0FFC39BEA6480EB
:0F179F00F8EE6480985004AA06AB07AE02AF03C1
:0117AE002218
:03000B00021F7C55
:101F7C00C0E0C083C082C0D090008220B305E004D2
:101F8C00F08002E4F090008320B205E004F08002BF
:101F9C00E4F0900082E0D394504008E4F090000606
:101FAC00E004F0900083E0D394504008E4F09000FB
:0D1FBC0007E004F0D0D0D082D083D0E03216
:10238A00438E805389F0758AC0758C63C28DD28C56
:03239A00D2A922A3
:03001B00021E5171
:101E5100C0E0C083C082C0D075D000C000C006C041
:101E610007900080E0FEA3E0FFD3900005E09FEE25
:101E71006480F8900004E06480985006D2B6C2B540
:101E81008004C2B6D2B5900005E004F0700690005F
:101E910004E004F0D3900005E094D0900004E064E5
:101EA1008094874004E4F0A3F0D007D006D000D09E
:081EB100D0D082D083D0E032D2
:10239D00438E8053890F758B18758DFCC28FD28E2D
:0323AD00D2AB228E
:1023B000C3EE648094805008C3E49FFFE49EFE2235
:0123C00022FA
:10001E000000000000000000002F0000000007009C
:10002E00070000147F147F1400242A7F2A12006216
:10003E0064081323003649552250000005030000C2
:10004E0000001C224100000041221C000014083E4A
:10005E0008140008083E0808000000A06000000810
:10006E000808080800006060000000201008040264
:10007E00003E5149453E0000427F40000042615122
:10008E004946002141454B31001814127F100027BC
:10009E0045454539003C4A4949300001710905037F
:1000AE0000364949493600064949291E00003636B0
:1000BE000000000056360000000814224100001413
:1000CE0014141414000041221408000201510906F0
:1000DE0000324959513E007C1211127C007F494971
:1000EE004936003E41414122007F4141221C007FA2
:1000FE0049494941007F09090901003E4149497AB0
:10010E00007F0808087F0000417F41000020404129
:10011E003F01007F08142241007F40404040007F95
:10012E00020C027F007F0408107F003E4141413ED9
:10013E00007F09090906003E4151215E007F091921
:10014E0029460046494949310001017F0101003F1E
:10015E004040403F001F2040201F003F4038403F9E
:10016E000063140814630007087008070061514902
:10017E00454300007F41410000552A552A55000095
:10018E0041417F0000040201020400404040404013
:10019E00000001020400002054545478007F4844AB
:1001AE00443800384444442000384444487F0038E2
:1001BE005454541800087E0901020018A4A4A47C0B
:1001CE00007F080404780000447D400000408084D5
:1001DE007D00007F102844000000417F4000007C1D
:1001EE0004180478007C0804047800384444443829
:1001FE0000FC242424180018242418FC007C080475
:10020E00040800485454542000043F444020003C4D
:10021E004040207C001C2040201C003C4030403CD4
:10022E00004428102844001CA0A0A07C0044645464
:10023E004C441414141414140000000000000000A8
:10024E000000000000000000000000F800000000A8
:10025E00000000333000000000100C06100C0600E9
:10026E00000000000000000040C07840C078400050
:10027E00043F04043F040400007088FC08300000B2
:10028E00001820FF211E0000F008F000E01800000A
:10029E0000211C031E211E0000F0088870000000C3
:1002AE001E2123241927211010160E000000000015
:1002BE000000000000000000000000E01804020032
:1002CE00000000071820400000020418E0000000A3
:1002DE000040201807000000404080F080404000A1
:1002EE000202010F01020200000000F000000000F7
:1002FE000101011F010101000000000000000000CB
:10030E0080B070000000000000000000000000003F
:10031E0000010101010101010000000000000000C8
:10032E000030300000000000000000008060180463
:10033E00006018060100000000E010080810E00040
:10034E00000F102020100F00001010F80000000009
:10035E000020203F20200000007008080888700050
:10036E0000302824222130000030088888483000D0
:10037E000018202020110E000000C02010F80000F0
:10038E0000070424243F240000F808888808080089
:10039E000019212020110E0000E01088881800009E
:1003AE00000F112020110E0000380808C838080070
:1003BE000000003F000000000070880808887000F0
:1003CE00001C222121221C0000E010080810E00071
:1003DE000000312222110F00000000C0C0000000FA
:1003EE00000000303000000000000080000000001F
:1003FE000000806000000000000080402010080017
:10040E0000010204081020004040404040404000DF
:10041E0004040404040404000008102040800000BA
:10042E000020100804020100007048080808F000BF
:10043E000000003036010000C030C828E810E0008F
:10044E000718272423140B000000C038E00000001A
:10045E00203C23020227382008F888888870000084
:10046E00203F202020110E00C03008080808380058
:10047E00071820202010080008F808080810E000CF
:10048E00203F202020100F0008F88888E808100070
:10049E00203F20202320180008F88888E808100044
:1004AE00203F200003000000C0300808083800007C
:1004BE0007182020221E020008F808000008F8087D
:1004CE00203F210101213F20000808F80808000004
:1004DE000020203F2020000000000808F808080037
:1004EE00C08080807F00000008F888C028180800AF
:1004FE00203F20012638200008F8080000000000E8
:10050E00203F20202020300008F8F800F8F80800DE
:10051E00203F003F003F200008F830C00008F808D8
:10052E00203F200007183F00E01008080810E000E8
:10053E000F10202020100F0008F808080808F000FF
:10054E00203F210101010000E01008080810E00022
:10055E000F18242438504F0008F8888888887000B7
:10056E00203F2000030C3020007088080808380057
:10057E000038202121221C00180808F8080818004D
:10058E000000203F2000000008F808000008F808CE
:10059E00001F202020201F000878880000C838087F
:1005AE00000007380E010000F80800F80008F800F7
:1005BE00033C0700073C0300081868808068180891
:1005CE0020302C03032C30200838C800C83808000F
:1005DE000000203F2000000010080808C83808005E
:1005EE002038262120201800000000FE0202020002
:1005FE000000007F40404000000C30C000000000B2
:10060E00000000010638C00000020202FE000000D9
:10061E00004040407F00000000000402020204007F
:10062E0000000000000000000000000000000000BC
:10063E0080808080808080800002020400000000A4
:10064E00000000000000000000008080808000009C
:10065E000019242222223F2008F80080800000008A
:10066E00003F112020110E0000000080808000004D
:10067E00000E112020201100000000808088F8005C
:10068E00000E112020103F2000008080808000008E
:10069E00001F222222221300008080F088888818F2
:1006AE000020203F202000000000808080808000FD
:1006BE00006B94949493600008F800808080000092
:1006CE00203F210000203F2000809898000000006D
:1006DE000020203F2020000000000080989800009D
:1006EE0000C08080807F000008F8000080808000BD
:1006FE00203F24022D302000000808F800000000E2
:10070E000020203F2020000080808080808080009C
:10071E00203F20003F20003F80800080808000002E
:10072E00203F210000203F200000808080800000BC
:10073E00001F202020201F008080008080000000ED
:10074E0080FFA12020110E0000000080808080001C
:10075E00000E112020A0FF8080808000808080000D
:10076E0020203F212000010000008080808080003A
:10077E000033242424241900008080E080800000AF
:10078E000000001F202000008080000000808000FC
:10079E00001F202020103F2080808000008080805D
:1007AE0000010E30080601008080008000808080ED
:1007BE000F300C030C300F00008080008080800012
:1007CE000020312E0E31200080808000008080803D
:1007DE0080818E70180601000080808080808000ED
:1007EE000021302C2221300000000000807C02020B
:1007FE0000000000003F404000000000FF0000002D
:10080E0000000000FF0000000002027C80000000DB
:10081E000040403F000000000006010102020404F7
:10082E0000000000000000000000F010101010FF8B
:10083E0010101010F000000000000F04040404FF5C
:10084E00040404040F0000004040405F55555575E8
:10085E005555555F404040000040200F09498979A9
:10086E000909090F2040000000FE02424ACA4A4A06
:10087E00CA4A4A4202FE000000FF40504C4340402C
:10088E004F50505C40FF00000000F888888888FFB9
:10089E0088888888F800000000001F080808087F74
:1008AE00888888889F80F00080828282828282E29D
:1008BE00A2928A8682808000000000000040807F25
:1008CE000000000000000000101010FF10900888BB
:1008DE008888FF88888808000444827F01808040D1
:1008EE00432C1028468180000010101010D030FFCD
:1008FE0030D0121C1010000010080402010000FF7E
:08090E000000010204081000C2
:040003007F06DFFE97
:0100070022D6
:0F23E300D295D294120003C294120003C2952225
:0C23F200C294D295120003D294020003A2
:1023C100C295A2019294120003D295120003C29504
:0123D10022E9
:10212400E49000DAF0A3F0D2947F01FE1223D2D21D
:10213400957F017E001223D230941F9000DBE004CF
:10214400F070069000DAE004F0D39000DBE094E253
:0D2154009000DAE0940440E0D322C295C36D
:01216100225B
:0220E500AD0745
:1020E700C295C2941200037C077E007401A80408FD
:1020F7008005C333CE33CED8F9FFEDFBEF5B600429
:10210700D2948002C294120003D295120003C295A2
:0C2117001200031CC3EC6480948050CDC7
:012123002299
:10220600E4FE7D07C295120003D29530940DA80511
:102216007401088002C333D8FC4EFE1200031DC3AE
:10222600ED6480948050DDA20092011223C1AF06B6
:012236002285
:1020A100F583E5822FF582E5833EF583E493FF7D99
:0120B100012D
:1020B2009000D8EFF0A3EDF01223E37F781220E531
:1020C2001221249000D9E060047F408002E4FF12D4
:1020D20020E51221249000D8E0FF1220E5122124ED
:0320E2000223F2E4
:10232D009000EFEFF07006FD7FA61220B29000EF47
:0C233D00E0B40107E4FD7FA71220B222EB
:1022BA009000F0EFF0700DFD7FC81220B2E4FD7FB0
:1022CA00A11220B29000F0E0B4010EE4FD7FC0122A
:0A22DA0020B2E4FD7FA01220B22222
:0721D400E0FFA3E0FD04F0B1
:1021DB009000D7EFF0ED24B0FFE4FD1220B2900099
:1021EB00D7E054F0C4540F4410FFE4FD1220B2901A
:0B21FB0000D7E0540FFFE4FD0220B20B
:10236000E4FD7F8D1220B2E4FD7F141220B2E4FD63
:052370007FAF0220B266
:10237500E4FD7F8D1220B2E4FD7F101220B2E4FD52
:052385007FAE0220B252
:10205B00E49000C1F09000C1E0FFC394085036EF4C
:10206B0024B0FFE4FD1220B2E4FDFF1220B2E4FD28
:10207B007F101220B2E49000C2F07D01E4FF122029
:10208B00B29000C2E004F0E0C3948040ED9000C138
:05209B00E004F080C02C
:0120A000221D
:0817AF009000CDEFF0A3EDF076
:1017B700E49000D1F09000D0E0FFC313FD9000D279
:1017C700F0E4A3F0A3F0EFB40809A3E4F0A37406D0
:1017D700F080319000D0E0FF131313541FF582758A
:1017E7008300EF54077E0060047F0180027F00EFD3
:1017F7002582FFEE3583FE7C0012145F9000D5EE44
:10180700F0A3EFF0EB24E09000D1F09000CDE0FFE3
:10181700A3E0FD1221DBE49000D3F0A3F09000D504
:10182700E0FCA3E0FD9000D3E0FEA3E0FFC39DEE44
:101837009C50709000D2E0FD7C00121471ED4C704A
:101847000E9000D0E0640860069000CD1221D4907D
:1018570000D0E0B4081A9000D3E0FEA3E0FF9000A8
:10186700D1E075F006A4241EF582E5F03400801F50
:101877009000D0E0B4102C9000D3E0FEA3E0FF90DE
:1018870000D1E075F010A42446F582E5F034021289
:1018970020A19000D4E004F070069000D3E004F09B
:0318A70002182400
:0118AA00221B
:081FC9009000CDEFF0A3EDF054
:101FD100A312165A000000019000CEE0FF14F0EFAA
:101FE1006020A3E0F8A3E0F9A3E0FAA3E0FB9000EE
:101FF100CDE0FFE4FCFDFE1215129000CF12164E4B
:1020010080D69000CFE0FCA3E0FDA3E0FEA3E0FFBB
:0120110022AC
:0818AB009000C1EFF0A3EDF085
:1018B300E49000CBF0A3F09000C8E0B408069000D9
:1018C300CB7402F0E49000C9F09000C7E0FF9000F1
:1018D300C9E0FEC39F4003021989C3EF9E14FD7F35
:1018E3000A121FC9A804A905AA06AB079000C3E002
:1018F300FCA3E0FDA3E0FEA3E0FF12159DE47B0A39
:10190300FAF9F812159D9000CAEBF09000CCE07044
:101913003C9000C7E014FF9000C9E0FEC39F502D28
:10192300A3E070239000C8E0FCC313FF9000CBE05A
:101933002F8EF0A4FF9000C1E02FFFA3E0FD9000E5
:10194300D0ECF07B2080339000CC7401F09000C881
:10195300E0FEC313FF9000CBE02FFF9000C9E0FD32
:10196300EF8DF0A4FF9000C1E02FFFA3E0FD9000F6
:10197300CAE02430FB9000D0EEF01217AF9000C9FC
:06198300E004F00218CCA4
:01198900223B
:101DE1009000C1EFF0A3EDF0A3EBF0A3EAF0A3E9BB
:011DF100F001
:101DF200E49000C7F09000C3E0FBA3E0FAA3E0F98F
:101E02009000C7E0F58275830012143260409000A2
:101E1200C1E0FFA3E0FD9000C7E0FE04F08E8275F2
:101E22008300121432FB9000C6E09000D0F012172B
:101E3200AF9000C6E0FFB408099000C1E02406F0AC
:0E1E420080B3EFC313FF9000C1E02FF080A724
:011E5000226F
:0B1C26009000E7EFF0A3EDF0A3EBF05F
:101C3100A3E0FF131313541FFD7C00EF54077E0034
:101C410060047F0180027F00EF2DFFEE3CFE9000DB
:101C5100EAE0FD7C0012145F9000EDEEF0A3EFF0DE
:101C6100E49000EBF0A3F09000EDE0FCA3E0FD9028
:101C710000EBE0FEA3E0FFC39DEE9C50439000EA21
:101C8100E0FD7C00121471ED4C70069000E712210A
:101C9100D49000EAE0B41028A3E0FEA3E0FF900096
:101CA100E9E0C43354E02436F582E434081220A17B
:101CB1009000ECE004F070AF9000EBE004F080A73E
:011CC1002200
:0B1CC2009000DCEFF0A3EDF0A3EBF0CE
:101CCD00E49000E3F0A3F09000DFE0FF1313135452
:101CDD001FFEEF540760047F0180027F00EE2F90FE
:101CED0000DFF0E49000E5F09000DFE0FF9000E50C
:101CFD00E0FEC39F50519000DCE0FFA3E0FDEE2D10
:101D0D00FD1221DBE49000E6F09000DEE0FF900094
:101D1D00E6E0C39F50299000E0E0FBA3E0FAA3E0CA
:101D2D00F9A3E475F0011214FC85F082F583121409
:101D3D0032FF7D011220B29000E6E004F080CA90DF
:071D4D0000E5E004F080A1B5
:011D5400226C
:05241600E4FD0220B20C
:101B8700C2967FC87E00122349D2967FAE122416D2
:101B97007FA81224167F1F1224167FD3122416E45F
:101BA700FF1224167F401224167FA01224167FC02E
:101BB7001224167F811224167F7F1224167FA41207
:101BC70024167FA61224167FD51224167F8012248E
:101BD700167F8D1224167F141224167F2E122416B8
:101BE7007F201224167F101224167FDA1224167F04
:101BF700021224167FD91224167F221224167FDBA5
:101C07001224167F201224167FB0122416E4FF1226
:0F1C170024167F101224167FAF12241602205BB2
:102349007DA07C0FED1D70011C144C70F7EF1F7000
:06235900011E144E70EAA3
:01235F00225B
:1023D2007C007D0512145FEF1F70011E144E70F712
:0123E20022D8
:102237009000C4EFF0A3EDF01223E37FD21220E564
:102247001221249000C4E0FF1220E51221249000FF
:0F225700C5E0FF1220E51221241223F27F00229E
:052162009000C3EFF046
:102167001223E37FD21220E51221249000C3E0FF5F
:102177001220E51221241223E37FD31220E5122136
:1021870024D2001222069000C4EFF01223F290002E
:03219700C4E0FFA2
:01219A002222
:0C23FE00EF33333354F8FD7F1B0222370D
:0C240A00EF33333354F8FD7F1C022237FF
:10201200E4FDC3EF94BCEE940040030D8036C3EFA1
:102022009462EE940040047D028029C3EF942AEE6C
:10203200940040047D03801CC3EF9414EE9400408E
:10204200047D04800FC3EF940AEE940040047D05E2
:0920520080027D067F1A0222378C
:081F21009000C1EEF0A3EFF007
:101F2900D394E8EE9403400A9000C17403F0A374BB
:101F3900E8F0C39000C2E094049000C1E09400501E
:101F490006E4F0A37404F09000C1E0FCA3E0FD7E78
:101F5900037FE8121471EF14A3F0FD7F19122237E1
:101F69009000C3EFF09000C1E0C313FEA3E013FF9C
:031F790002201231
:101EB9007D807F6B1222377F647E00122349E4FD07
:101EC9007F6B1222377F031223FEE4FF12240A7F5D
:101ED900327E00121F21E4FD7F38122237E4FD7F94
:101EE9006A1222377DFF7F231222377D807F3712C6
:101EF90022377F75122162EFB469177D017F6B125A
:101F09002237E4FD7F6C1222377FC87E00121F2121
:071F190080037F01227F001D
:011F2000229E
:0522E4009000C1EFF0C5
:1022E9001221629000C2EFF09000C1E004FF1221B8
:1022F90062AD079000C2E0FE7C00E42DFFEC3EFEDB
:0123090022B1
:10219B007F411221629000F1EFF07F42122162AD7C
:1021AB00079000F1E0FE7C00E42DFFEC3EFEAD0756
:1021BB00FC121282E4FBFA79AA78431211E07BB885
:0921CB007A1E79127842020FE637
:100FDF00021327E86480F8E933E83360110460F006
:100FEF00ED33EC337009E8FCE9FDEAFEEBFF220478
:100FFF0060DED3EB9FEA9EE99DE8C2E78CF0C2F773
:10100F0095F0400CE8CCF8E9CDF9EACEFAEBCFFB3E
:10101F001212F285D0F05804700320D5B3E8047093
:10102F00075002B2D502133192D5EC0460F7E4CC2D
:10103F00C0E0C398F8603B94186008400DD0E0FB07
:10104F00021309E4FBFAC9FC8028E830E406E4C97E
:10105F00FBE4CAFCE830E305E4C9CACBFCE854075B
:10106F006010F8C3E913F9EA13FAEB13FBEC13FC66
:10107F00D8F130F52FC3E49CFCEF9BFFEE9AFEED09
:10108F0099FDD0E0FBEF4E4D4C701222DB030213A3
:10109F002EEC2CFCEF33FFEE33FEED33FDED30E79E
:1010AF00EB021309EF2BFFEE3AFEED39FDD0E0FB1B
:1010BF0050130BBB0003021331ED13FDEE13FEEFC4
:0810CF0013FFEC13FC021309EE
:1010D700EC4D6011E8497017ED33EC3304600DE413
:1010E700FCFFFEFD22E933E8330470F802132712F0
:1010F70012F258046009E4CC2481500628500902F2
:10110700133128400302132EC0E0EB4A7044B98024
:1011170006D0E0FB02131DEF4E701CBD8008EBFFED
:10112700EAFEE9FD80EBE98DF0A4FEE5F00211C0CF
:10113700E9CDF9EAFEEBFFEF89F0A4FCE5F0CE89F3
:10114700F0A42EFFE435F0CD89F0A42DFEE435F0B0
:101157008067EF4E7005BD80D780C3EF8BF0A4ACDE
:10116700F0EE8BF0A42CFCE435F0F8EF8AF0A42C19
:10117700E5F038FCE433CB8DF0A42CFCE5F03BF82C
:10118700EE8AF0A42CFCE5F038F8E433CF89F0A41C
:101197002CFCE5F038CF3400CE89F0A42FFFE5F022
:1011A7003EFEE433C98DF0A42EFEE5F039CD8AF07A
:1011B700A42FFFE5F03EFEE43DFD33D0E0FB5007F2
:1011C7000BBB000F021331EC2CFCEF33FFEE33FEA9
:0611D700ED33FD021309D7
:1011DD00021331EC5D046005E85904700302132716
:1011ED001212F2580460F6EC4860F2EC7004FDFE49
:1011FD00FF22C860DB2481C85009C39860025006E5
:10120D0002132E9850CAF582E9294B4A7005AB821C
:10121D0002131D75F0007C1A7880C3EF9BEE9AEDDA
:10122D0099400DC3EF9BFFEE9AFEED99FDE842F05C
:10123D00DC23ACF0D0E0FFD0E0FED0E0FDAB8220AF
:10124D00E7101BEB60BAEC2CFCEF33FFEE33FEED39
:10125D0033FD021309E803F830E705C0F075F0001F
:10126D00EF2FFFEE33FEED33FD40B830E7C280AA1D
:10127D0075F020800E75F010800575F0087D007EEC
:10128D00007F003392D530D50312162FEC3340106A
:10129D00EF33FFEE33FEED33FDEC33FCD5F0ED22F5
:0E12AD00E5F0247EA2D513CC92E7CDCEFF2231
:1012BB00EDD2E7CD33EC3392D524814006E4FFFE2B
:1012CB00FDFC22FCE4CFCECDCC24E0501174FF808A
:1012DB00EDC3CC13CCCD13CDCE13CECF13CF047027
:0712EB00F030D5DE02162FE2
:1012F200E9D2E7C933E833F892D5EDD2E7CD33EC42
:0713020033FC5002B2D522BA
:10130900EC30E7100FBF000C0EBE00080DBD000445
:101319000BEB6014A2D5EB13FCED92E7FD2274FFF1
:10132900FCFDFEFF22E480F8A2D574FF13FC7D804A
:03133900E480EF5E
:03000000021D5589
:0C1D5500787FE4F6D8FD758120021D9C0B
:10133C00E709F608DFFA8046E709F208DFFA803E93
:10134C0088828C83E709F0A3DFFA8032E309F60880
:10135C00DFFA8078E309F208DFFA807088828C83E8
:10136C00E309F0A3DFFA806489828A83E0A3F6089C
:10137C00DFFA805889828A83E0A3F208DFFA804C76
:10138C0080D280FA80C680D4806980F2803380104D
:10139C0080A680EA809A80A880DA80E280CA8033B6
:1013AC0089828A83ECFAE493A3C8C582C8CCC5832E
:1013BC00CCF0A3C8C582C8CCC583CCDFE9DEE780FE
:1013CC000D89828A83E493A3F608DFF9ECFAA9F07D
:1013DC00EDFB2289828A83ECFAE0A3C8C582C8CCD3
:1013EC00C583CCF0A3C8C582C8CCC583CCDFEADEEC
:1013FC00E880DB89828A83E493A3F208DFF980CC4E
:10140C0088F0EF60010E4E60C388F0ED2402B40446
:10141C000050B9F582EB2402B4040050AF232345ED
:06142C00822390138C7373
:10143200BB010CE58229F582E5833AF583E022506F
:1014420006E92582F8E622BBFE06E92582F8E222B9
:0D145200E58229F582E5833AF583E49322D3
:10145F00EF8DF0A4A8F0CF8CF0A428CE8DF0A42EA1
:02146F00FE225B
:10147100BC000BBE0029EF8DF084FFADF022E4CC5F
:10148100F875F008EF2FFFEE33FEEC33FCEE9DEC28
:10149100984005FCEE9DFE0FD5F0E9E4CEFD22ED6E
:1014A100F8F5F0EE8420D21CFEADF075F008EF2FB8
:1014B100FFED33FD4007985006D5F0F222C398FDA9
:0514C1000FD5F0EA2246
:1014C600C2D5EC30E709B2D5E4C39DFDE49CFCEE41
:1014D60030E715B2D5E4C39FFFE49EFE121471C334
:1014E600E49DFDE49CFC800312147130D507C3E42F
:0614F6009FFFE49EFE22B0
:1014FC00A3F8E0C5F025F0F0E582158270021583A3
:06150C00E0C838F0E822FF
:10151200E88FF0A4CC8BF0A42CFCE98EF0A42CFC78
:101522008AF0EDA42CFCEA8EF0A4CDA8F08BF0A4F6
:101532002DCC3825F0FDE98FF0A42CCD35F0FCEB55
:101542008EF0A4FEA9F0EB8FF0A4CFC5F02ECD391A
:0F155200FEE43CFCEAA42DCE35F0FDE43CFC2287
:1015610075F008758200EF2FFFEE33FECD33CDCC41
:1015710033CCC58233C5829BED9AEC99E5829840C4
:101581000CF582EE9BFEED9AFDEC99FC0FD5F0D6A1
:10159100E4CEFBE4CDFAE4CCF9A88222B800C1B9CB
:1015A1000059BA002DEC8BF084CFCECDFCE5F0CB09
:1015B100F97818EF2FFFEE33FEED33FDEC33FCEB42
:1015C10033FB10D703994004EB99FB0FD8E5E4F9FD
:1015D100FA227818EF2FFFEE33FEED33FDEC33FCEA
:1015E100C933C910D7059BE99A4007EC9BFCE99ADE
:1015F100F90FD8E0E4C9FAE4CCFB2275F010EF2F23
:10160100FFEE33FEED33FDCC33CCC833C810D70722
:101611009BEC9AE899400AED9BFDEC9AFCE899F85D
:0E1621000FD5F0DAE4CDFBE4CCFAE4C8F922F0
:0E162F00C3E49FFFE49EFEE49DFDE49CFC22CC
:10163D00EB9FF5F0EA9E42F0E99D42F0E89C45F003
:01164D00227A
:0C164E00ECF0A3EDF0A3EEF0A3EFF0220F
:10165A00A8828583F0D083D0821216711216711275
:10166A001671121671E473E493A3C583C5F0C5839A
:10167A00C8C582C8F0A3C583C5F0C583C8C582C8DA
:01168A00223D
:0C168B00A42582F582E5F03583F583226A
:101D6100020916E493A3F8E493A34003F68001F279
:101D710008DFF48029E493A3F85407240CC8C33383
:101D8100C4540F4420C8834004F456800146F6DF52
:101D9100E4800B0102040810204080901AE6E47EE2
:101DA100019360BCA3FF543F30E509541FFEE49347
:101DB100A360010ECF54C025E060A840B8E493A30E
:101DC100FAE493A3F8E493A3C8C582C8CAC583CA39
:101DD100F0A3C8C582C8CAC583CADFE9DEE780BEF1
:011B8600005E
:00000001FF
