:10215C005365743A00506F773A000000000000009D
:10216C000000000000000000000000000000000063
:02217C00000061
:101B7D0041007A0041007B0041000000410001005E
:101B8D00607800020000000000000000000000006E
:101B9D00003200640000000000000000006400C876
:101BAD0000000000000000000096012C0000000065
:101BBD000000000000C801900000000000000000BF
:101BCD0000FA01F40000000000000000012C025892
:101BDD000000000000000000015E02EE00000000A9
:101BED000000000001900320000000000000000034
:0C1BFD0001C203520000000000000000C4
:10102800E490007CF0A3F0A3120FEB00000000E4B2
:10103800900082F0A3F078847C007D017BFF7A2108
:101048007966FE7F18120DBD9000AC120FEB000000
:1010580000009000B07401F0A3745EF0E49000B456
:10106800F0A3F0A3F0A3F0A3F0A3F0A3F09000BACC
:10107800E0FF75F00CA42404F582E43400F583E065
:10108800FCA3E0FDEF75F00CA42410F582E4340015
:10109800F583E0FEA3E0C39DFDEE9CFC120C33E457
:1010A800FBFA79487842120B079000BAE0FB75F01A
:1010B8000CA42406F582E43400F583120FDFEB75E7
:1010C800F00CA42402F582E43400F583E0FCA3E0EC
:1010D800FDEC120C339000BAE075F00CA42406F570
:1010E80082E43400F583E0F8A3E0F9A3E0FAA3E092
:1010F800FB1209FEC004C005C006C0079000BAE094
:1011080075F00CA42404F582E43400F583E0FCA314
:10111800E0FDEC120C33D003D002D001D00012094C
:10112800099000BAE075F00CA4240AF582E43400B2
:10113800F583120FDF9000BAE004F0E06409600361
:10114800021075122138121A4F12224312221F124E
:101158001D06D2AFC2B67BFF7A21795C9000C074BD
:1011680008F0E4FD7F48121C967BFF7A2179619094
:1011780000C07408F07D017F48121C969000B0E012
:10118800FEA3E0FFE4FCFD9000BD120FDF9000C15C
:101198007403F0A37408F0E4FD7F661216AF9000A4
:1011A8007CE0FEA3E0FFC3900083E09F900082E014
:1011B8009E5006D2B6C2B58004C2B6D2B57F327E82
:1011C80000122232900083E004F07006900082E062
:1011D80004F0900082E0B407C5A3E0B4D1C0E49065
:1011E8000082F0A3F07F011220BEAC06AD07E41226
:1011F8000C3390007E120FDF7F007E407D4E7C45D1
:1012080090007EE0F8A3E0F9A3E0FAA3E0FB12095E
:10121800FEE4FBFA79807845120B0790007E120FE6
:10122800DF7B007A40791C784690007EE0FCA3E0E2
:10123800FDA3E0FEA3E0FF120B07E4FBFA79C878F0
:10124800421209FE90007E120FDFE4FFFE7D207C33
:101258004190007EE0F8A3E0F9A3E0FAA3E0FB12D6
:1012680009FE120C6C9000BD120FDF9000C17403D0
:10127800F0A37408F07D017F661216AF90007CE041
:10128800FEA3E0FFC374D09FFF74079EFED3EF94C4
:1012980020EE9403400D7F431221129000B4EEF02B
:1012A800A3EFF09000B0E0FEA3E0FF1218639000F7
:1012B800B2EEF0A3EFF0900084E0FCA3E0FDA3E021
:1012C800FEA3E0FF90009C120FDF900084E0FCA3D7
:1012D800E0FDA3E0FEA3E0FF9000A0120FDF900066
:1012E800A4120FEB00000000E49000BAF09000BADE
:1012F800E0FFC3940640030213E8EF25E025E0244D
:1013080084F582E43400F583E0FCA3E0FDA3E0FE6D
:10131800A3E0FF9000A0E0F8A3E0F9A3E0FAA3E0BF
:10132800FBD3120FCE40229000BAE025E025E0243E
:1013380084F582E43400F583E0FCA3E0FDA3E0FE3D
:10134800A3E0FF9000A0120FDF9000BAE025E0258F
:10135800E02484F582E43400F583E0FCA3E0FDA3F7
:10136800E0FEA3E0FF90009CE0F8A3E0F9A3E0FA18
:10137800A3E0FBC3120FCE50229000BAE025E0256F
:10138800E02484F582E43400F583E0FCA3E0FDA3C7
:10139800E0FEA3E0FF90009C120FDF9000A4E0FCA9
:1013A800A3E0FDA3E0FEA3E0FF9000BAE025E0255E
:1013B800E02484F582E43400F583E0F8A3E0F9A39F
:1013C800E0FAA3E0FBEF2BFFEE3AFEED39FDEC3837
:1013D800FC9000A4120FDF9000BAE004F00212F5AE
:1013E80090009CE0F8A3E0F9A3E0FAA3E0FB9000EA
:1013F800A4E0FCA3E0FDA3E0FEA3E0C39BFFEE9AFC
:10140800FEED99FDEC98FC9000A0E0F8A3E0F9A3AC
:10141800E0FAA3E0FBC3EF9BFFEE9AFEED99FDEC2B
:1014280098FCE47B04FAF9F8120F2E9000A8120F2A
:10143800DF9000A8A3A3E0FEA3E0FF9000B2E0FCC9
:10144800A3E0FD7BD07A0712178E90007CEEF0A304
:10145800EFF09000A8A3A3E0FEA3E0FF12190BE4AD
:10146800FCFD9000BD120FDF9000C17403F0A3745F
:1014780010F0E4FD7F201216AFE4FF1220BEE4FC5A
:10148800FD9000ACA3A3E0FAA3E090008475F004FB
:1014980012101CEA25E025E02583F583120FDF9062
:1014A80000ACA3A3E0FEA3E090008475F004121042
:1014B8001CEE25E025E02583F583E0FCA3E0FDA3F1
:1014C800E0FEA3E0FFE47BE47A0CF9F8120EA3E453
:1014D800FB7A10F9F8120F2E9000ACA3A3E0FAA340
:1014E800E090008475F00412101CEA25E025E02540
:1014F80083F583120FDF9000ACE0FCA3E0FDA3E0CE
:10150800FEA3E02401FFE43EFEE43DFDE43CFC9044
:1015180000AC120FDFE47F06FEFDFC9000ACE0F8A3
:10152800A3E0F9A3E0FAA3E0FBC3120FCE700A9080
:1015380000AC120FEB00000000900000E0FF602DEF
:101548007E009000B0EE8FF0120E77AFF0FEE4FC54
:10155800FD9000BD120FDF9000C17403F0A3740862
:10156800F0E4FD7F661216AFE4900000F0900001F1
:10157800E0FF70030211A6C39000B1E09FFF900046
:10158800B0E09400FEF0A3EFF0E4FCFD9000BD1283
:101598000FDF9000C17403F0A37408F0E4FD7F66C8
:0B15A8001216AFE4900001F00211A643
:1021380043BA8043B26053B19F43923043913053C6
:1021480092FC43910353B2F353B1F3D2B3D2B2D258
:0421580095D2942266
:0D22430090FEA8743FF075DE0F75BC802280
:1020BE0043BC4053BCF0EF42BC0000E5BC30E5FB36
:1020CE0053BCDF85BDA0AFBDEF75F010A4FFAEF021
:0A20DE00E5BEC4540FFDEF4DFF22D4
:081863009000BBEEF0A3EFF0D2
:10186B00E4A3F0F09000BDE0FFC39409400302191C
:10187B000AEF75F00CA42402F582E43400F583E042
:10188B00FEA3E0FF9000BBE0FCA3E0FDC39FEC9E3A
:10189B004064A3E075F00CA4240EF582E43400F54B
:1018AB0083E0FEA3E0FFC3ED9FEC9E50499000BB8D
:1018BB00A3E4120C339000BDE075F00CA42406F5E4
:1018CB0082E43400F583E0F8A3E0F9A3E0FAA3E0A7
:1018DB00FB1209FE9000BDE075F00CA4240AF58202
:1018EB00E43400F583E0F8A3E0F9A3E0FAA3E0FB0E
:0F18FB0012090D020C6C9000BDE004F002186F92
:01190A0022BA
:08190B009000BBEEF0A3EFF029
:10191300E4A3F0F09000BDE0FFC394094003021973
:10192300B2EF75F00CA42404F582E43400F583E0EF
:10193300FEA3E0FF9000BBE0FCA3E0FDC39FEC9E91
:101943004064A3E075F00CA42410F582E43400F5A0
:1019530083E0FEA3E0FFC3ED9FEC9E50499000BBE4
:10196300A3E4120C339000BDE075F00CA4240AF537
:1019730082E43400F583E0F8A3E0F9A3E0FAA3E0FE
:10198300FB1209099000BDE075F00CA42406F58252
:10199300E43400F583E0F8A3E0F9A3E0FAA3E0FB65
:0F19A300120B07020C6C9000BDE004F002191744
:0119B2002212
:10178E009000BBEEF0A3EFF0A3ECF0A3EDF0A3EA14
:04179E00F0A3EBF0D9
:1017A200A3120FEB000000009000BBE0FEA3E0FFDD
:1017B200C39000BEE09FFF9000BDE09EFEAD07FC1F
:1017C200120C33E4FBFA79A078411209FE9000C1B1
:1017D200120FDFE4FFFEFDFC9000C1E0F8A3E0F988
:1017E200A3E0FAA3E0FB120BA450179000C1E0FCA7
:1017F200A3E0FDA3E0FEA3E0FF120C1D9000C112C6
:101802000FDF9000BFE0FCA3E0FDE4120C33900078
:10181200C1E0F8A3E0F9A3E0FAA3E0FB120BA46095
:101822001440129000BFE0FCA3E0FDE4120C3390E0
:1018320000C1120FDF9000BDE0FEA3E0FFD39000D5
:10184200BCE09F9000BBE09E40057E007F6422903A
:1018520000C1E0FCA3E0FDA3E0FEA3E0FF120C6CDC
:011862002263
:03000B00021E7D55
:101E7D00C0E0C083C082C0D090007A20B305E004DA
:101E8D00F08002E4F090007B20B205E004F08002C7
:101E9D00E4F090007AE0D394464008E4F09000001E
:101EAD00E004F090007BE0D394464008E4F090000D
:0D1EBD0001E004F0D0D0D082D083D0E0321C
:10221F00438E805389F0758AC0758C63C28DD28CC2
:03222F00D2A9220F
:10000E000000000000000000002F000000000700AC
:10001E00070000147F147F1400242A7F2A12006226
:10002E0064081323003649552250000005030000D2
:10003E0000001C224100000041221C000014083E5A
:10004E0008140008083E0808000000A06000000820
:10005E000808080800006060000000201008040274
:10006E00003E5149453E0000427F40000042615132
:10007E004946002141454B31001814127F100027CC
:10008E0045454539003C4A4949300001710905038F
:10009E0000364949493600064949291E00003636C0
:1000AE000000000056360000000814224100001423
:1000BE001414141400004122140800020151090600
:1000CE0000324959513E007C1211127C007F494981
:1000DE004936003E41414122007F4141221C007FB2
:1000EE0049494941007F09090901003E4149497AC0
:1000FE00007F0808087F0000417F4100002040413A
:10010E003F01007F08142241007F40404040007FA5
:10011E00020C027F007F0408107F003E4141413EE9
:10012E00007F09090906003E4151215E007F091931
:10013E0029460046494949310001017F0101003F2E
:10014E004040403F001F2040201F003F4038403FAE
:10015E000063140814630007087008070061514912
:10016E00454300007F41410000552A552A550000A5
:10017E0041417F0000040201020400404040404023
:10018E00000001020400002054545478007F4844BB
:10019E00443800384444442000384444487F0038F2
:1001AE005454541800087E0901020018A4A4A47C1B
:1001BE00007F080404780000447D400000408084E5
:1001CE007D00007F102844000000417F4000007C2D
:1001DE0004180478007C0804047800384444443839
:1001EE0000FC242424180018242418FC007C080485
:1001FE00040800485454542000043F444020003C5E
:10020E004040207C001C2040201C003C4030403CE4
:10021E00004428102844001CA0A0A07C0044645474
:10022E004C441414141414140000000000000000B8
:10023E000000000000000000000000F800000000B8
:10024E00000000333000000000100C06100C0600F9
:10025E00000000000000000040C07840C078400060
:10026E00043F04043F040400007088FC08300000C2
:10027E00001820FF211E0000F008F000E01800001A
:10028E0000211C031E211E0000F0088870000000D3
:10029E001E2123241927211010160E000000000025
:1002AE000000000000000000000000E01804020042
:1002BE00000000071820400000020418E0000000B3
:1002CE000040201807000000404080F080404000B1
:1002DE000202010F01020200000000F00000000007
:1002EE000101011F010101000000000000000000DB
:1002FE0080B0700000000000000000000000000050
:10030E0000010101010101010000000000000000D8
:10031E000030300000000000000000008060180473
:10032E00006018060100000000E010080810E00050
:10033E00000F102020100F00001010F80000000019
:10034E000020203F20200000007008080888700060
:10035E0000302824222130000030088888483000E0
:10036E000018202020110E000000C02010F8000000
:10037E0000070424243F240000F808888808080099
:10038E000019212020110E0000E0108888180000AE
:10039E00000F112020110E0000380808C838080080
:1003AE000000003F00000000007088080888700000
:1003BE00001C222121221C0000E010080810E00081
:1003CE000000312222110F00000000C0C00000000A
:1003DE00000000303000000000000080000000002F
:1003EE000000806000000000000080402010080027
:1003FE0000010204081020004040404040404000F0
:10040E0004040404040404000008102040800000CA
:10041E000020100804020100007048080808F000CF
:10042E000000003036010000C030C828E810E0009F
:10043E000718272423140B000000C038E00000002A
:10044E00203C23020227382008F888888870000094
:10045E00203F202020110E00C03008080808380068
:10046E00071820202010080008F808080810E000DF
:10047E00203F202020100F0008F88888E808100080
:10048E00203F20202320180008F88888E808100054
:10049E00203F200003000000C0300808083800008C
:1004AE0007182020221E020008F808000008F8088D
:1004BE00203F210101213F20000808F80808000014
:1004CE000020203F2020000000000808F808080047
:1004DE00C08080807F00000008F888C028180800BF
:1004EE00203F20012638200008F8080000000000F8
:1004FE00203F20202020300008F8F800F8F80800EF
:10050E00203F003F003F200008F830C00008F808E8
:10051E00203F200007183F00E01008080810E000F8
:10052E000F10202020100F0008F808080808F0000F
:10053E00203F210101010000E01008080810E00032
:10054E000F18242438504F0008F8888888887000C7
:10055E00203F2000030C3020007088080808380067
:10056E000038202121221C00180808F8080818005D
:10057E000000203F2000000008F808000008F808DE
:10058E00001F202020201F000878880000C838088F
:10059E00000007380E010000F80800F80008F80007
:1005AE00033C0700073C03000818688080681808A1
:1005BE0020302C03032C30200838C800C83808001F
:1005CE000000203F2000000010080808C83808006E
:1005DE002038262120201800000000FE0202020012
:1005EE000000007F40404000000C30C000000000C2
:1005FE00000000010638C00000020202FE000000EA
:10060E00004040407F00000000000402020204008F
:10061E0000000000000000000000000000000000CC
:10062E0080808080808080800002020400000000B4
:10063E0000000000000000000000808080800000AC
:10064E000019242222223F2008F80080800000009A
:10065E00003F112020110E0000000080808000005D
:10066E00000E112020201100000000808088F8006C
:10067E00000E112020103F2000008080808000009E
:10068E00001F222222221300008080F08888881802
:10069E000020203F2020000000008080808080000D
:1006AE00006B94949493600008F8008080800000A2
:1006BE00203F210000203F2000809898000000007D
:1006CE000020203F202000000000008098980000AD
:1006DE0000C08080807F000008F8000080808000CD
:1006EE00203F24022D302000000808F800000000F2
:1006FE000020203F202000008080808080808000AD
:10070E00203F20003F20003F80800080808000003E
:10071E00203F210000203F200000808080800000CC
:10072E00001F202020201F008080008080000000FD
:10073E0080FFA12020110E0000000080808080002C
:10074E00000E112020A0FF8080808000808080001D
:10075E0020203F212000010000008080808080004A
:10076E000033242424241900008080E080800000BF
:10077E000000001F2020000080800000008080000C
:10078E00001F202020103F2080808000008080806D
:10079E0000010E30080601008080008000808080FD
:1007AE000F300C030C300F00008080008080800022
:1007BE000020312E0E31200080808000008080804D
:1007CE0080818E70180601000080808080808000FD
:1007DE000021302C2221300000000000807C02021B
:1007EE0000000000003F404000000000FF0000003D
:1007FE0000000000FF0000000002027C80000000EC
:10080E000040403F00000000000601010202040407
:10081E0000000000000000000000F010101010FF9B
:10082E0010101010F000000000000F04040404FF6C
:10083E00040404040F0000004040405F55555575F8
:10084E005555555F404040000040200F09498979B9
:10085E000909090F2040000000FE02424ACA4A4A16
:10086E00CA4A4A4202FE000000FF40504C4340403C
:10087E004F50505C40FF00000000F888888888FFC9
:10088E0088888888F800000000001F080808087F84
:10089E00888888889F80F00080828282828282E2AD
:1008AE00A2928A8682808000000000000040807F35
:1008BE000000000000000000101010FF10900888CB
:1008CE008888FF88888808000444827F01808040E1
:1008DE00432C1028468180000010101010D030FFDD
:1008EE0030D0121C1010000010080402010000FF8E
:0808FE000000010204081000D3
:1021B300D295D2947F017E00122232C2947F017E97
:0721C30000122232C2952236
:10220B00C294D2957F017E00122232D2947F017E3E
:04221B000002223269
:10219A00C295A20192947F017E00122232D2957FCB
:0921AA00017E00122232C29522CE
:101FE600E49000D4F0A3F0D2947F01FE122232D204
:101FF600957F017E0012223230941F9000D5E004B6
:10200600F070069000D4E004F0D39000D5E094E29E
:0D2016009000D4E0940440E0D322C295C3B2
:01202300229A
:051D6E009000D4EFF02D
:101D7300C295C2947F017E001222329000D574076F
:101D8300F09000D5E0FFC36480948040417E0074EE
:101D930001A807088005C333CE33CED8F9FF9000DE
:101DA300D4E0FDEF5D6004D2948002C2947F017E93
:101DB30000122232D2957F017E00122232C2957F19
:0E1DC300017E001222329000D5E014F080B3B1
:011DD10022EF
:101E2D00E49000BFF0A37407F0C2957F017E00120D
:101E3D002232D2953094179000BFE0FFA3E0FEF858
:101E4D007401088002C333D8FC4F9000BFF07F01AE
:101E5D007E001222329000C0E014F0E0C364809442
:0F1E6D008050C6A200920112219A9000BFE0FFA0
:011E7C002243
:101FA200F583E5822FF582E5833EF583E493FF7D99
:011FB200012D
:101FB3009000D2EFF0A3EDF01221B37F78121D6EE3
:101FC300121FE69000D3E060047F408002E4FF121A
:101FD3001D6E121FE69000D2E0FF121D6E121FE667
:031FE30002220BCC
:10217E009000E9EFF07006FD7FA6121FB39000E904
:0C218E00E0B40107E4FD7FA7121FB3229C
:1020E8009000EAEFF0700DFD7FC8121FB3E4FD7F8A
:1020F800A1121FB39000EAE0B4010EE4FD7FC01204
:0A2108001FB3E4FD7FA0121FB322F5
:07205D00E0FFA3E0FD04F029
:102064009000D1EFF0ED24B0FFE4FD121FB3900017
:10207400D1E054F0C4540F4410FFE4FD121FB39098
:0B20840000D1E0540FFFE4FD021FB389
:1021E100E4FD7F8D121FB3E4FD7F14121FB3E4FDE4
:0521F1007FAF021FB3E7
:1021F600E4FD7F8D121FB3E4FD7F10121FB3E4FDD3
:052206007FAE021FB3D2
:101F5C00E49000BBF09000BBE0FFC394085036EF58
:101F6C0024B0FFE4FD121FB3E4FDFF121FB3E4FD28
:101F7C007F10121FB3E49000BCF07D01E4FF121F30
:101F8C00B39000BCE004F0E0C3948040ED9000BB43
:051F9C00E004F080C02C
:011FA100221D
:0815B3009000C7EFF0A3EDF07A
:1015BB00E49000CBF09000CAE0FFC313FD9000CC89
:1015CB00F0E4A3F0A3F0EFB40809A3E4F0A37406CE
:1015DB00F080319000CAE0FF131313541FF582758E
:1015EB008300EF54077E0060047F0180027F00EFD1
:1015FB002582FFEE3583FE7C00120E109000CFEE9D
:10160B00F0A3EFF0EB24E09000CBF09000C7E0FFED
:10161B00A3E0FD122064E49000CDF0A3F09000CF86
:10162B00E0FCA3E0FD9000CDE0FEA3E0FFC39DEE48
:10163B009C50709000CCE0FD7C00120E22ED4C70A3
:10164B000E9000CAE0640860069000C712205D90FF
:10165B0000CAE0B4081A9000CDE0FEA3E0FF9000B2
:10166B00CBE075F006A4240EF582E5F03400801F64
:10167B009000CAE0B4102C9000CDE0FEA3E0FF90E8
:10168B0000CBE075F010A42436F582E5F03402129D
:10169B001FA29000CEE004F070069000CDE004F0A5
:0316AB00021628FC
:0116AE002219
:081ECA009000C7EFF0A3EDF05A
:101ED200A3120FEB000000019000C8E0FF14F0EF26
:101EE2006020A3E0F8A3E0F9A3E0FAA3E0FB9000EE
:101EF200C7E0FFE4FCFDFE120EA39000C9120FDF43
:101F020080D69000C9E0FCA3E0FDA3E0FEA3E0FFC1
:011F120022AC
:0816AF009000BBEFF0A3EDF089
:1016B700E49000C5F0A3F09000C2E0B408069000E3
:1016C700C57402F0E49000C3F09000C1E0FF900001
:1016D700C3E0FEC39F400302178DC3EF9E14FD7F37
:1016E7000A121ECAA804A905AA06AB079000BDE006
:1016F700FCA3E0FDA3E0FEA3E0FF120F2EE47B0AAC
:10170700FAF9F8120F2E9000C4EBF09000C6E070C3
:101717003C9000C1E014FF9000C3E0FEC39F502D32
:10172700A3E070239000C2E0FCC313FF9000C5E064
:101737002F8EF0A4FF9000BBE02FFFA3E0FD9000E9
:10174700CAECF07B2080339000C67401F09000C291
:10175700E0FEC313FF9000C5E02FFF9000C3E0FD3C
:10176700EF8DF0A4FF9000BBE02FFFA3E0FD9000FA
:10177700C4E02430FB9000CAEEF01215B39000C30A
:06178700E004F00216D0A0
:01178D002239
:101C96009000BBEFF0A3EDF0A3EBF0A3EAF0A3E90D
:011CA600F04D
:101CA700E49000C1F09000BDE0FBA3E0FAA3E0F9E7
:101CB7009000C1E0F582758300120DE3604090004B
:101CC700BBE0FFA3E0FD9000C1E0FE04F08E82754B
:101CD7008300120DE3FB9000C0E09000CAF01215DC
:101CE700B39000C0E0FFB408099000BBE02406F001
:0E1CF70080B3EFC313FF9000BBE02FF080A777
:011D050022BB
:0B19B3009000E1EFF0A3EDF0A3EBF0DB
:1019BE00A3E0FF131313541FFD7C00EF54077E00AA
:1019CE0060047F0180027F00EF2DFFEE3CFE900051
:1019DE00E4E0FD7C00120E109000E7EEF0A3EFF0B5
:1019EE00E49000E5F0A3F09000E7E0FCA3E0FD90AA
:1019FE0000E5E0FEA3E0FFC39DEE9C50439000E4A3
:101A0E00E0FD7C00120E22ED4C70069000E11220DB
:101A1E005D9000E4E0B41028A3E0FEA3E0FF900088
:101A2E00E3E0C43354E02426F582E43408121FA206
:101A3E009000E6E004F070AF9000E5E004F080A7BF
:011A4E002275
:0B1AEA009000D6EFF0A3EDF0A3EBF0AE
:101AF500E49000DDF0A3F09000D9E0FF1313135438
:101B05001FFEEF540760047F0180027F00EE2F90D7
:101B150000D9F0E49000DFF09000D9E0FF9000DFFD
:101B2500E0FEC39F50519000D6E0FFA3E0FDEE2DEF
:101B3500FD122064E49000E0F09000D8E0FF9000F2
:101B4500E0E0C39F50299000DAE0FBA3E0FAA3E0B0
:101B5500F9A3E475F001120E8D85F082F583120D5F
:101B6500E3FF7D01121FB39000E0E004F080CA900E
:071B750000DFE004F080A195
:011B7C002246
:05000300E4FD021FB343
:101A4F007FC87E001221CA7FAE1200037FA812004A
:101A5F00037F1F1200037FD3120003E4FF12000362
:101A6F007F401200037FA01200037FC01200037F8C
:101A7F00811200037F7F1200037FA41200037FA651
:101A8F001200037FD51200037F801200037F8D1297
:101A9F0000037F141200037F2E1200037F20120019
:101AAF00037F101200037FDA1200037F021200037C
:101ABF007FD91200037F221200037FDB1200037F06
:101ACF00201200037FB0120003E4FF1200037F1007
:0B1ADF001200037FAF120003021F5C27
:1021CA007DA07C0FED1D70011C144C70F7EF1F7081
:0621DA00011E144E70EA24
:0121E00022DC
:102232007C007D0A120E10EF1F70011E144E70F703
:012242002279
:10208F009000BEEFF0A3EDF01221B37FD0121D6EC2
:10209F00121FE69000BEE0FF121D6E121FE69000A9
:0F20AF00BFE0FF121D6E121FE612220B7F0022F0
:052024009000BDEFF08B
:102029001221B37FD0121D6E121FE69000BDE0FF92
:10203900121D6E121FE61221B37FD1121D6E121FDF
:10204900E6D200121E2D9000BEEFF012220B900076
:03205900BEE0FFE7
:01205C002261
:0C225000EF33333354F8FD7F1B02208F66
:0C225C00EF33333354F8FD7F1C02208F59
:101F1300E4FDC3EF94BCEE940040030D8036C3EFA1
:101F23009462EE940040047D028029C3EF942AEE6C
:101F3300940040047D03801CC3EF9414EE9400408E
:101F4300047D04800FC3EF940AEE940040047D05E2
:091F530080027D067F1A02208F36
:081DD2009000BBEEF0A3EFF05E
:101DDA00D394E8EE9403400A9000BB7403F0A37412
:101DEA00E8F0C39000BCE094049000BBE09400507B
:101DFA0006E4F0A37404F09000BBE0FCA3E0FD7ECF
:101E0A00037FE8120E22EF14A3F0FD7F1912208F30
:101E1A009000BDEFF09000BBE0C313FEA3E013FFF8
:031E2A00021F1381
:101D06007D807F6B12208F7F647E001221CAE4FDE6
:101D16007F6B12208F7F03122250E4FF12225C7F1A
:101D2600327E00121DD2E4FD7F3812208FE4FD7F43
:101D36006A12208F7DFF7F2312208F7D807F3712CE
:101D4600208F7F75122024EFB468177D017F6B12F8
:101D5600208FE4FD7F6C12208F7FC87E00121DD27B
:071D660080037F01227F00D2
:011D6D002253
:052112009000BBEFF09E
:102117001220249000BCEFF09000BBE004FF1220D7
:1021270024AD079000BCE0FE7C00E42DFFEC3EFEF2
:012137002285
:10090600020CD8E86480F8E933E83360110460F03B
:10091600ED33EC337009E8FCE9FDEAFEEBFF220457
:1009260060DED3EB9FEA9EE99DE8C2E78CF0C2F752
:1009360095F0400CE8CCF8E9CDF9EACEFAEBCFFB1E
:10094600120CA385D0F05804700320D5B3E80470C8
:10095600075002B2D5020CE292D5EC0460F7E4CC63
:10096600C0E0C398F8603B94186008400DD0E0FBE7
:10097600020CBAE4FBFAC9FC8028E830E406E4C9B4
:10098600FBE4CAFCE830E305E4C9CACBFCE854073B
:100996006010F8C3E913F9EA13FAEB13FBEC13FC46
:1009A600D8F130F52FC3E49CFCEF9BFFEE9AFEEDE9
:1009B60099FDD0E0FBEF4E4D4C701222DB03020C8A
:1009C600DFEC2CFCEF33FFEE33FEED33FDED30E7CD
:1009D600EB020CBAEF2BFFEE3AFEED39FDD0E0FB51
:1009E60050130BBB0003020CE2ED13FDEE13FEEFFA
:0809F60013FFEC13FC020CBA24
:1009FE00EC4D6011E8497017ED33EC3304600DE4F3
:100A0E00FCFFFEFD22E933E8330470F8020CD81225
:100A1E000CA358046009E4CC248150062850090226
:100A2E000CE2284003020CDFC0E0EB4A7044B980B0
:100A3E0006D0E0FB020CCEEF4E701CBD8008EBFF23
:100A4E00EAFEE9FD80EBE98DF0A4FEE5F0020AE78F
:100A5E00E9CDF9EAFEEBFFEF89F0A4FCE5F0CE89D3
:100A6E00F0A42EFFE435F0CD89F0A42DFEE435F090
:100A7E008067EF4E7005BD80D780C3EF8BF0A4ACBE
:100A8E00F0EE8BF0A42CFCE435F0F8EF8AF0A42CF9
:100A9E00E5F038FCE433CB8DF0A42CFCE5F03BF80C
:100AAE00EE8AF0A42CFCE5F038F8E433CF89F0A4FC
:100ABE002CFCE5F038CF3400CE89F0A42FFFE5F002
:100ACE003EFEE433C98DF0A42EFEE5F039CD8AF05A
:100ADE00A42FFFE5F03EFEE43DFD33D0E0FB5007D2
:100AEE000BBB000F020CE2EC2CFCEF33FFEE33FEDF
:060AFE00ED33FD020CBA0D
:100B0400020CE2EC5D046005E859047003020CD8A1
:100B1400120CA3580460F6EC4860F2EC7004FDFE7D
:100B2400FF22C860DB2481C85009C39860025006C4
:100B3400020CDF9850CAF582E9294B4A7005AB8252
:100B4400020CCE75F0007C1A7880C3EF9BEE9AED10
:100B540099400DC3EF9BFFEE9AFEED99FDE842F03C
:100B6400DC23ACF0D0E0FFD0E0FED0E0FDAB82208F
:100B7400E7101BEB60BAEC2CFCEF33FFEE33FEED19
:100B840033FD020CBAE803F830E705C0F075F00055
:100B9400EF2FFFEE33FEED33FD40B830E7C280AAFD
:100BA40074F8CC6480CCC86480C8F58204604FC3F8
:100BB400EB9FF5F0EA9E42F0E99D42F0E89C45F097
:100BC400603C501DE5825FFFE582D313CB5BCBF421
:100BD4002B5582FB50280ABA002409B9002008804A
:100BE4001DE5825BFBE582D313CF5FCFF4C3132FE4
:100BF4005582FF50090EBE00050DBD00010CC3EB6C
:100C04009FF5F0EA9E42F0E99D42F0E89C45F060D1
:090C140007CC4820E701B3EC22F3
:100C1D00ED33EC33600A047003BD8004ECB2E7FCE5
:010C2D0022A4
:100C2E0075F020800E75F010800575F0087D007E41
:100C3E00007F003392D530D503120FC0EC33401035
:100C4E00EF33FFEE33FEED33FDEC33FCD5F0ED224A
:0E0C5E00E5F0247EA2D513CC92E7CDCEFF2286
:100C6C00EDD2E7CD33EC3392D524814006E4FFFE80
:100C7C00FDFC22FCE4CFCECDCC24E0501174FF80DF
:100C8C00EDC3CC13CCCD13CDCE13CECF13CF04707C
:070C9C00F030D5DE020FC0AD
:100CA300E9D2E7C933E833F892D5EDD2E7CD33EC97
:070CB30033FC5002B2D52210
:100CBA00EC30E7100FBF000C0EBE00080DBD00049B
:100CCA000BEB6014A2D5EB13FCED92E7FD2274FF47
:100CDA00FCFDFEFF22E480F8A2D574FF13FC7D80A0
:030CEA00E480EFB4
:03000000021C0AD5
:0C1C0A00787FE4F6D8FD758120021C51A3
:100CED00E709F608DFFA8046E709F208DFFA803EE9
:100CFD0088828C83E709F0A3DFFA8032E309F608D6
:100D0D00DFFA8078E309F208DFFA807088828C833D
:100D1D00E309F0A3DFFA806489828A83E0A3F608F1
:100D2D00DFFA805889828A83E0A3F208DFFA804CCB
:100D3D0080D280FA80C680D4806980F280338010A2
:100D4D0080A680EA809A80A880DA80E280CA80330B
:100D5D0089828A83ECFAE493A3C8C582C8CCC58383
:100D6D00CCF0A3C8C582C8CCC583CCDFE9DEE78053
:100D7D000D89828A83E493A3F608DFF9ECFAA9F0D2
:100D8D00EDFB2289828A83ECFAE0A3C8C582C8CC28
:100D9D00C583CCF0A3C8C582C8CCC583CCDFEADE41
:100DAD00E880DB89828A83E493A3F208DFF980CCA3
:100DBD0088F0EF60010E4E60C388F0ED2402B4049C
:100DCD000050B9F582EB2402B4040050AF23234543
:060DDD008223900D3D731E
:100DE300BB010CE58229F582E5833AF583E02250C5
:100DF30006E92582F8E622BBFE06E92582F8E2220F
:0D0E0300E58229F582E5833AF583E4932228
:100E1000EF8DF0A4A8F0CF8CF0A428CE8DF0A42EF6
:020E2000FE22B0
:100E2200BC000BBE0029EF8DF084FFADF022E4CCB4
:100E3200F875F008EF2FFFEE33FEEC33FCEE9DEC7D
:100E4200984005FCEE9DFE0FD5F0E9E4CEFD22EDC3
:100E5200F8F5F0EE8420D21CFEADF075F008EF2F0D
:100E6200FFED33FD4007985006D5F0F222C398FDFE
:050E72000FD5F0EA229B
:100E7700C5F0F8A3E028F0C5F0F8E5821582700206
:060E87001583E038F022A3
:100E8D00A3F8E0C5F025F0F0E58215827002158318
:060E9D00E0C838F0E82275
:100EA300E88FF0A4CC8BF0A42CFCE98EF0A42CFCEE
:100EB3008AF0EDA42CFCEA8EF0A4CDA8F08BF0A46C
:100EC3002DCC3825F0FDE98FF0A42CCD35F0FCEBCB
:100ED3008EF0A4FEA9F0EB8FF0A4CFC5F02ECD3990
:0F0EE300FEE43CFCEAA42DCE35F0FDE43CFC22FD
:100EF20075F008758200EF2FFFEE33FECD33CDCCB7
:100F020033CCC58233C5829BED9AEC99E582984039
:100F12000CF582EE9BFEED9AFDEC99FC0FD5F0D616
:100F2200E4CEFBE4CDFAE4CCF9A88222B800C1B940
:100F32000059BA002DEC8BF084CFCECDFCE5F0CB7E
:100F4200F97818EF2FFFEE33FEED33FDEC33FCEBB7
:100F520033FB10D703994004EB99FB0FD8E5E4F972
:100F6200FA227818EF2FFFEE33FEED33FDEC33FC5F
:100F7200C933C910D7059BE99A4007EC9BFCE99A53
:100F8200F90FD8E0E4C9FAE4CCFB2275F010EF2F98
:100F9200FFEE33FEED33FDCC33CCC833C810D70798
:100FA2009BEC9AE899400AED9BFDEC9AFCE899F8D3
:0E0FB2000FD5F0DAE4CDFBE4CCFAE4C8F92266
:0E0FC000C3E49FFFE49EFEE49DFDE49CFC2242
:100FCE00EB9FF5F0EA9E42F0E99D42F0E89C45F079
:010FDE0022F0
:0C0FDF00ECF0A3EDF0A3EEF0A3EFF02285
:100FEB00A8828583F0D083D08212100212100212D5
:100FFB001002121002E473E493A3C583C5F0C583FA
:10100B00C8C582C8F0A3C583C5F0C583C8C582C84F
:01101B0022B2
:0C101C00A42582F582E5F03583F58322DF
:101C1600021028E493A3F8E493A34003F68001F2AC
:101C260008DFF48029E493A3F85407240CC8C333CF
:101C3600C4540F4420C8834004F456800146F6DF9E
:101C4600E4800B0102040810204080901B7DE47E96
:101C5600019360BCA3FF543F30E509541FFEE49393
:101C6600A360010ECF54C025E060A840B8E493A35A
:101C7600FAE493A3F8E493A3C8C582C8CAC583CA85
:101C8600F0A3C8C582C8CAC583CADFE9DEE780BE3D
:011C090000DA
:00000001FF
