:1021EB005365743A00506F773A00536C703A0000A5
:0921FB00000000000000000000DB
:101A50004100820041008300410006004100070070
:101A6000420080000042000400006078000800008E
:101A7000000000000000000000000032005A0000DA
:101A8000000000000000006400FE000000000000F4
:101A900000000096015E000000000000000000C889
:101AA00001E8000000000000000000FA026C0000E5
:101AB000000000000000012C0312000000000000E4
:101AC0000000015E039A0000000000000000019089
:101AD0000424000000000000000001C204E2000035
:101AE0000000000000004200000000420002000070
:100FB100900084120F800000000078887C007D0181
:100FC1007BFF7A2179FA7E007F0A120D43E49000BB
:100FD10098F0A3F0A304F0A3745EF0A37401F0A34E
:100FE100745EF0E49000A0F0A3F0A3F0A3F0A3F0EE
:100FF100A3F0A3F0A3F09000AAF09000AAE0FFC331
:10100100940A400302113AEF6409705CE0FB75F049
:101011000CA42400F582E43400F583E0FCA3E0FD98
:10102100A3E0FEA3E0FFEB75F00CA4240CF582E431
:101031003400F583120F749000AAE0FB75F00CA444
:101041002404F582E43400F583E0FCA3E0FDA3E091
:10105100FEA3E0FFEB75F00CA42410F582E434004C
:10106100F583120F7402113A9000AAE0FF75F00C9B
:10107100A4240AF582E43400F583E0FCA3E0FDEF4B
:1010810075F00CA42416F582E43400F583E0FEA388
:10109100E0C39DFDEE9CFC120BB9E4FBFA794878A4
:1010A10042120B179000AAE0FB75F00CA4240CF57A
:1010B10082E43400F583120F74EB75F00CA424085C
:1010C100F582E43400F583E0FCA3E0FDEC120BB9FA
:1010D1009000AAE075F00CA4240CF582E43400F52C
:1010E10083E0F8A3E0F9A3E0FAA3E0FB120A0EC043
:1010F10004C005C006C0079000AAE075F00CA42446
:101101000AF582E43400F583E0FCA3E0FDEC120B68
:10111100B9D003D002D001D0001209199000AAE081
:1011210075F00CA42410F582E43400F583120F74D9
:101131009000AAE004F0020FFB1221AB1219AE12CB
:10114100000E122245122258121D84D2AFC2B67B64
:10115100FF7A2179EB9000B07408F0E4FD7F48122A
:101161001CAC7BFF7A2179F09000B07408F07D010E
:101171007F48121CAC7BFF7A2179F59000B074088E
:10118100F07D027F48121CAC90009AE0FEA3E0FFC4
:10119100E4FCFD9000AD120F749000B17403F0A354
:1011A1007408F0E4FD7F66121773C2ABE49000048B
:1011B100F0A3F0C2B6D2B57FC27E0112228D90009B
:1011C1009AE0FEA3E0FF12185290009EEEF0A3EF0A
:1011D100F0E4FF122131AC06AD07900098E0FAA3CC
:1011E100E0FB25E0FFEA33FE74882FF58274003EB0
:1011F100F583ECF0A3EDF074882FF58274003EF5D1
:1012010083E0FEA3E0FF7C0C7DE4120D96EEC45456
:101211000FFDEB25E0FFEA33FE74882FF5827400A1
:101221003EF583E4F0A3EDF0900099E004F0700640
:10123100900098E004F0900098E07004A3E0640549
:101241007006900098F0A3F0D2AB900088E0FEA366
:10125100E0FF900092EEF0A3EFF0E4A3F0A3F09092
:1012610000AAF09000AAE0FDC39405506DED25E0C1
:101271002488F582E43400F583E0FCA3E0FDC39FFC
:10128100EC9E5004AE04AF05900092E0FAA3E0FB9F
:10129100D3ED9BEC9A401B9000AAE025E02488F551
:1012A10082E43400F583E0FDA3E0900092CDF0A349
:1012B100EDF09000AAE025E02488F582E43400F501
:1012C10083E0FCA3E0FD900095E02DF0900094E018
:1012D1003CF09000AAE004F08089900092E0FCA329
:1012E100E0FDC3900095E09DFD900094E09CFCC35F
:1012F100ED9FFFEC9EFE7C007D03120DA8900096F1
:10130100EEF0A3EFF090009EE0FCA3E0FD7BD07A2D
:101311000712155F900080EEF0A3EFF0900096E0C9
:10132100FEA3E0FF121900E4FCFD9000AD120F7462
:101331009000B17403F0A37410F0E4FD7F20121744
:10134100737F451221859000A0EEF0FCA3EFF0FD24
:101351009000A4E0FEA3E0FFC3ED9FFFEC9EFE9092
:1013610000A2F0A3EFF0A3ECF0A3EDF012226BC307
:10137100EF9414EE6480948050109000A7E004F084
:10138100700F9000A6E004F08007E49000A6F0A39F
:10139100F09000A6E0FEA3E0FF7C007D14120DFD9D
:1013A100D3EF9458EE648094824009E490009AF05F
:1013B100A3F08025D3EF942CEE64809481400B90B0
:1013C100009AE4F0A374C8F0800F90009CE0FFA3A2
:1013D100E090009ACFF0A3EFF07F01122131AC062B
:1013E100AD07E4120BB9900084120F747F007E40A8
:1013F1007D4E7C45900084E0F8A3E0F9A3E0FAA3D8
:10140100E0FB120A0EE4FBFA79807845120B179083
:101411000084120F74E4FBFA797A7844900084E036
:10142100FCA3E0FDA3E0FEA3E0FF120B177433FB66
:10143100FAF97841120A0E900084120F74E4FFFE4B
:101441007D207C41900084E0F8A3E0F9A3E0FAA3B9
:10145100E0FB120A0E120BF29000AD120F74900015
:10146100B17403F0A37408F07D017F6612177390C5
:1014710000A6E0FEA3E0FF7C007D14120DFDEE331B
:1014810095E0FDFC9000AD120F749000B17403F073
:10149100A37408F07D027F66121773900006E06066
:1014A1000BA3E06007E4900006F0A3F0900006E0D3
:1014B100FF604E90009BE02FF090009AE03400F026
:1014C100D3A3E094C290009AE0940140077401F024
:1014D100A374C2F090009AE0FEA3E0FFA3EEF0A394
:1014E100EFF0E4FCFD9000AD120F749000B17403B5
:1014F100F0A37408F0E4FD7F66121773E490000610
:10150100F0900007E0FF604CC390009BE09FFF90CC
:10151100009AE09400FEF0A3EFF0C3EE94005007B0
:10152100E490009AF0A3F090009AE0FEA3E0FFA3FC
:10153100EEF0A3EFF0E4FCFD9000AD120F7490000B
:10154100B17403F0A37408F0E4FD7F66121773E42D
:0E155100900007F07F327E001222040211ABE0
:1021AB0043BA8043B26053B19F4392304391305353
:1021BB0092FC43910353B2F353B1F3D2B3D2B2D2E5
:0421CB0095D29422F3
:0D000E0090FEA8743FF075DE0F75BC8022D7
:1021310043BC4053BCF0EF42BC0000E5BC30E5FBC2
:1021410053BCDF85BDA0AFBDEF75F010A4FFAEF0AD
:0A215100E5BEC4540FFDEF4DFF2260
:081852009000ABEEF0A3EFF0F3
:10185A00E4A3F0F09000ADE0FFC39409504AEF759D
:10186A00F00CA42408F582E43400F583E0FEA3E03A
:10187A00FF9000ABE0FCA3E0FDC39FEC9E4021A3D8
:10188A00E075F00CA42414F582E43400F583E0FE3C
:10189A00A3E0FFC3ED9FEC9E50069000ABA380101F
:1018AA009000ADE004F080AC9000ABE0FCA3E0FD5A
:1018BA00E4120BB99000ADE075F00CA4240CF5828B
:1018CA00E43400F583E0F8A3E0F9A3E0FAA3E0FB2F
:1018DA00120A0E9000ADE075F00CA42410F582E413
:1018EA003400F583E0F8A3E0F9A3E0FAA3E0FB12E1
:0518FA00091D120BF2B4
:0118FF0022C6
:081900009000ABEEF0A3EFF044
:10190800E4A3F0F09000ADE0FFC39409504AEF75EE
:10191800F00CA4240AF582E43400F583E0FEA3E089
:10192800FF9000ABE0FCA3E0FDC39FEC9E4021A329
:10193800E075F00CA42416F582E43400F583E0FE8B
:10194800A3E0FFC3ED9FEC9E50069000ABA3801070
:101958009000ADE004F080AC9000ABE0FCA3E0FDAB
:10196800E4120BB99000ADE075F00CA42410F582D8
:10197800E43400F583E0F8A3E0F9A3E0FAA3E0FB80
:101988001209199000ADE075F00CA4240CF582E45E
:101998003400F583E0F8A3E0F9A3E0FAA3E0FB1232
:0519A8000B17120BF209
:0119AD002217
:08155F009000ABEAF0A3EBF0F1
:10156700E4FBFAC3ED9FFFEC9EFEA3F0A3EFF09020
:101577000003E02FF0900002E03EF0D3A3E094B028
:10158700900002E06480948440077404F0A374B070
:10159700F0C3900003E09450900002E06480947BD5
:1015A700500774FBF0A37450F0900000E0FEA3E036
:1015B700FFC39000AEE09FFF9000ADE09E9000AFAC
:1015C700F0A3EFF0900002E0FCA3E0FDEC120BB9F2
:1015D7007B857AEB7951783F120A0EC004C005C0AB
:1015E70006C0079000ADE0FCA3E0FDEC120BB9E4E8
:1015F700FBFA79807841120A0EA804A905AA06AB5E
:1016070007D007D006D005D00412091DC004C005B5
:10161700C006C0079000AFE0FCA3E0FDEC120BB9D9
:101627007433FBFAF9783F120A0EA804A905AA0633
:10163700AB07D007D006D005D00412091D120BF254
:10164700AA06AB079000ADE0FFA3E0900000CFF043
:10165700A3EFF09000ABE0FEA3E0FFC39BEA64803A
:0F166700F8EE6480985004AA06AB07AE02AF03FA
:011676002251
:03000B00021E478B
:101E4700C0E0C083C082C0D090008220B305E00408
:101E5700F08002E4F090008320B205E004F08002F5
:101E6700E4F0900082E0D394504008E4F09000063C
:101E7700E004F0900083E0D394504008E4F0900031
:0D1E870007E004F0D0D0D082D083D0E0324C
:10224500438E805389F0758AC0758C63C28DD28C9C
:03225500D2A922E9
:03001B00021D1CA7
:101D1C00C0E0C083C082C0D075D000C000C006C077
:101D2C0007900080E0FEA3E0FFD3900005E09FEE5B
:101D3C006480F8900004E06480985006D2B6C2B576
:101D4C008004C2B6D2B5900005E004F07006900095
:101D5C0004E004F0D3900005E094D0900004E0641B
:101D6C008094874004E4F0A3F0D007D006D000D0D4
:081D7C00D0D082D083D0E03208
:10225800438E8053890F758B18758DFCC28FD28E73
:03226800D2AB22D4
:10226B00C3EE648094805008C3E49FFFE49EFE227B
:01227B002240
:10001E000000000000000000002F0000000007009C
:10002E00070000147F147F1400242A7F2A12006216
:10003E0064081323003649552250000005030000C2
:10004E0000001C224100000041221C000014083E4A
:10005E0008140008083E0808000000A06000000810
:10006E000808080800006060000000201008040264
:10007E00003E5149453E0000427F40000042615122
:10008E004946002141454B31001814127F100027BC
:10009E0045454539003C4A4949300001710905037F
:1000AE0000364949493600064949291E00003636B0
:1000BE000000000056360000000814224100001413
:1000CE0014141414000041221408000201510906F0
:1000DE0000324959513E007C1211127C007F494971
:1000EE004936003E41414122007F4141221C007FA2
:1000FE0049494941007F09090901003E4149497AB0
:10010E00007F0808087F0000417F41000020404129
:10011E003F01007F08142241007F40404040007F95
:10012E00020C027F007F0408107F003E4141413ED9
:10013E00007F09090906003E4151215E007F091921
:10014E0029460046494949310001017F0101003F1E
:10015E004040403F001F2040201F003F4038403F9E
:10016E000063140814630007087008070061514902
:10017E00454300007F41410000552A552A55000095
:10018E0041417F0000040201020400404040404013
:10019E00000001020400002054545478007F4844AB
:1001AE00443800384444442000384444487F0038E2
:1001BE005454541800087E0901020018A4A4A47C0B
:1001CE00007F080404780000447D400000408084D5
:1001DE007D00007F102844000000417F4000007C1D
:1001EE0004180478007C0804047800384444443829
:1001FE0000FC242424180018242418FC007C080475
:10020E00040800485454542000043F444020003C4D
:10021E004040207C001C2040201C003C4030403CD4
:10022E00004428102844001CA0A0A07C0044645464
:10023E004C441414141414140000000000000000A8
:10024E000000000000000000000000F800000000A8
:10025E00000000333000000000100C06100C0600E9
:10026E00000000000000000040C07840C078400050
:10027E00043F04043F040400007088FC08300000B2
:10028E00001820FF211E0000F008F000E01800000A
:10029E0000211C031E211E0000F0088870000000C3
:1002AE001E2123241927211010160E000000000015
:1002BE000000000000000000000000E01804020032
:1002CE00000000071820400000020418E0000000A3
:1002DE000040201807000000404080F080404000A1
:1002EE000202010F01020200000000F000000000F7
:1002FE000101011F010101000000000000000000CB
:10030E0080B070000000000000000000000000003F
:10031E0000010101010101010000000000000000C8
:10032E000030300000000000000000008060180463
:10033E00006018060100000000E010080810E00040
:10034E00000F102020100F00001010F80000000009
:10035E000020203F20200000007008080888700050
:10036E0000302824222130000030088888483000D0
:10037E000018202020110E000000C02010F80000F0
:10038E0000070424243F240000F808888808080089
:10039E000019212020110E0000E01088881800009E
:1003AE00000F112020110E0000380808C838080070
:1003BE000000003F000000000070880808887000F0
:1003CE00001C222121221C0000E010080810E00071
:1003DE000000312222110F00000000C0C0000000FA
:1003EE00000000303000000000000080000000001F
:1003FE000000806000000000000080402010080017
:10040E0000010204081020004040404040404000DF
:10041E0004040404040404000008102040800000BA
:10042E000020100804020100007048080808F000BF
:10043E000000003036010000C030C828E810E0008F
:10044E000718272423140B000000C038E00000001A
:10045E00203C23020227382008F888888870000084
:10046E00203F202020110E00C03008080808380058
:10047E00071820202010080008F808080810E000CF
:10048E00203F202020100F0008F88888E808100070
:10049E00203F20202320180008F88888E808100044
:1004AE00203F200003000000C0300808083800007C
:1004BE0007182020221E020008F808000008F8087D
:1004CE00203F210101213F20000808F80808000004
:1004DE000020203F2020000000000808F808080037
:1004EE00C08080807F00000008F888C028180800AF
:1004FE00203F20012638200008F8080000000000E8
:10050E00203F20202020300008F8F800F8F80800DE
:10051E00203F003F003F200008F830C00008F808D8
:10052E00203F200007183F00E01008080810E000E8
:10053E000F10202020100F0008F808080808F000FF
:10054E00203F210101010000E01008080810E00022
:10055E000F18242438504F0008F8888888887000B7
:10056E00203F2000030C3020007088080808380057
:10057E000038202121221C00180808F8080818004D
:10058E000000203F2000000008F808000008F808CE
:10059E00001F202020201F000878880000C838087F
:1005AE00000007380E010000F80800F80008F800F7
:1005BE00033C0700073C0300081868808068180891
:1005CE0020302C03032C30200838C800C83808000F
:1005DE000000203F2000000010080808C83808005E
:1005EE002038262120201800000000FE0202020002
:1005FE000000007F40404000000C30C000000000B2
:10060E00000000010638C00000020202FE000000D9
:10061E00004040407F00000000000402020204007F
:10062E0000000000000000000000000000000000BC
:10063E0080808080808080800002020400000000A4
:10064E00000000000000000000008080808000009C
:10065E000019242222223F2008F80080800000008A
:10066E00003F112020110E0000000080808000004D
:10067E00000E112020201100000000808088F8005C
:10068E00000E112020103F2000008080808000008E
:10069E00001F222222221300008080F088888818F2
:1006AE000020203F202000000000808080808000FD
:1006BE00006B94949493600008F800808080000092
:1006CE00203F210000203F2000809898000000006D
:1006DE000020203F2020000000000080989800009D
:1006EE0000C08080807F000008F8000080808000BD
:1006FE00203F24022D302000000808F800000000E2
:10070E000020203F2020000080808080808080009C
:10071E00203F20003F20003F80800080808000002E
:10072E00203F210000203F200000808080800000BC
:10073E00001F202020201F008080008080000000ED
:10074E0080FFA12020110E0000000080808080001C
:10075E00000E112020A0FF8080808000808080000D
:10076E0020203F212000010000008080808080003A
:10077E000033242424241900008080E080800000AF
:10078E000000001F202000008080000000808000FC
:10079E00001F202020103F2080808000008080805D
:1007AE0000010E30080601008080008000808080ED
:1007BE000F300C030C300F00008080008080800012
:1007CE000020312E0E31200080808000008080803D
:1007DE0080818E70180601000080808080808000ED
:1007EE000021302C2221300000000000807C02020B
:1007FE0000000000003F404000000000FF0000002D
:10080E0000000000FF0000000002027C80000000DB
:10081E000040403F000000000006010102020404F7
:10082E0000000000000000000000F010101010FF8B
:10083E0010101010F000000000000F04040404FF5C
:10084E00040404040F0000004040405F55555575E8
:10085E005555555F404040000040200F09498979A9
:10086E000909090F2040000000FE02424ACA4A4A06
:10087E00CA4A4A4202FE000000FF40504C4340402C
:10088E004F50505C40FF00000000F888888888FFB9
:10089E0088888888F800000000001F080808087F74
:1008AE00888888889F80F00080828282828282E29D
:1008BE00A2928A8682808000000000000040807F25
:1008CE000000000000000000101010FF10900888BB
:1008DE008888FF88888808000444827F01808040D1
:1008EE00432C1028468180000010101010D030FFCD
:1008FE0030D0121C1010000010080402010000FF7E
:08090E000000010204081000C2
:040003007F06DFFE97
:0100070022D6
:0F229E00D295D294120003C294120003C295226B
:0C22AD00C294D295120003D294020003E8
:10227C00C295A2019294120003D295120003C2954A
:01228C00222F
:101FEF00E49000C4F0A3F0D2947F01FE12228DD2B0
:101FFF00957F017E0012228D30941F9000C5E00462
:10200F00F070069000C4E004F0D39000C5E094E2B5
:0D201F009000C4E0940440E0D322C295C3B9
:01202C002291
:021FB000AD077B
:101FB200C295C2941200037C077E007401A8040833
:101FC2008005C333CE33CED8F9FFEDFBEF5B60045F
:101FD200D2948002C294120003D295120003C295D9
:0C1FE2001200031CC3EC6480948050CDFE
:011FEE0022D0
:1020D100E4FE7D07C295120003D29530940DA80548
:1020E1007401088002C333D8FC4EFE1200031DC3E5
:1020F100ED6480948050DDA200920112227CAF0633
:0121010022BB
:101F6C00F583E5822FF582E5833EF583E493FF7DCF
:011F7C000163
:101F7D009000C2EFF0A3EDF012229E7F78121FB0F9
:101F8D00121FEF9000C3E060047F408002E4FF1257
:101F9D001FB0121FEF9000C2E0FF121FB0121FEF13
:031FAD000222AD60
:1021CF009000D9EFF07006FD7FA6121F7D9000D909
:0C21DF00E0B40107E4FD7FA7121F7D2281
:10215B009000DAEFF0700DFD7FC8121F7DE4FD7F5C
:10216B00A1121F7D9000DAE0B4010EE4FD7FC012D6
:0A217B001F7DE4FD7FA0121F7D22EE
:07209F00E0FFA3E0FD04F0E7
:1020A6009000C1EFF0ED24B0FFE4FD121F7D90001B
:1020B600C1E054F0C4540F4410FFE4FD121F7D909C
:0B20C60000C1E0540FFFE4FD021F7D8D
:10221B00E4FD7F8D121F7DE4FD7F14121F7DE4FD15
:05222B007FAF021F7DE2
:10223000E4FD7F8D121F7DE4FD7F10121F7DE4FD04
:052240007FAE021F7DCE
:101F2600E49000ABF09000ABE0FFC394085036EFAE
:101F360024B0FFE4FD121F7DE4FDFF121F7DE4FDCA
:101F46007F10121F7DE49000ACF07D01E4FF121FAC
:101F56007D9000ACE004F0E0C3948040ED9000ABCF
:051F6600E004F080C062
:011F6B002253
:081677009000B7EFF0A3EDF0C5
:10167F00E49000BBF09000BAE0FFC313FD9000BCF4
:10168F00F0E4A3F0A3F0EFB40809A3E4F0A3740609
:10169F00F080319000BAE0FF131313541FF58275D9
:1016AF008300EF54077E0060047F0180027F00EF0C
:1016BF002582FFEE3583FE7C00120D969000BFEE63
:1016CF00F0A3EFF0EB24E09000BBF09000B7E0FF49
:1016DF00A3E0FD1220A6E49000BDF0A3F09000BFA0
:1016EF00E0FCA3E0FD9000BDE0FEA3E0FFC39DEE94
:1016FF009C50709000BCE0FD7C00120DA8ED4C706A
:10170F000E9000BAE0640860069000B712209F9018
:10171F0000BAE0B4081A9000BDE0FEA3E0FF90000D
:10172F00BBE075F006A4241EF582E5F03400801F9F
:10173F009000BAE0B4102C9000BDE0FEA3E0FF9043
:10174F0000BBE075F010A42446F582E5F0340212D8
:10175F001F6C9000BEE004F070069000BDE004F036
:03176F000216EC73
:011772002254
:081E94009000B7EFF0A3EDF0A0
:101E9C00A3120F80000000019000B8E0FF14F0EFD7
:101EAC006020A3E0F8A3E0F9A3E0FAA3E0FB900024
:101EBC00B7E0FFE4FCFDFE120E499000B9120F745E
:101ECC0080D69000B9E0FCA3E0FDA3E0FEA3E0FF08
:011EDC0022E3
:081773009000ABEFF0A3EDF0D4
:10177B00E49000B5F0A3F09000B2E0B4080690003E
:10178B00B57402F0E49000B3F09000B1E0FF90006C
:10179B00B3E0FEC39F4003021851C3EF9E14FD7FBD
:1017AB000A121E94A804A905AA06AB079000ADE087
:1017BB00FCA3E0FDA3E0FEA3E0FF120ED4E47B0A42
:1017CB00FAF9F8120ED49000B4EBF09000B6E0707A
:1017DB003C9000B1E014FF9000B3E0FEC39F502D8E
:1017EB00A3E070239000B2E0FCC313FF9000B5E0C0
:1017FB002F8EF0A4FF9000ABE02FFFA3E0FD900035
:10180B00BAECF07B2080339000B67401F09000B2FC
:10181B00E0FEC313FF9000B5E02FFF9000B3E0FD97
:10182B00EF8DF0A4FF9000ABE02FFFA3E0FD900045
:10183B00B4E02430FB9000BAEEF01216779000B3B0
:06184B00E004F002179416
:011851002274
:101CAC009000ABEFF0A3EDF0A3EBF0A3EAF0A3E907
:011CBC00F037
:101CBD00E49000B1F09000ADE0FBA3E0FAA3E0F9F1
:101CCD009000B1E0F582758300120D6960409000BF
:101CDD00ABE0FFA3E0FD9000B1E0FE04F08E827555
:101CED008300120D69FB9000B0E09000BAF012165F
:101CFD00779000B0E0FFB408099000ABE02406F047
:0E1D0D0080B3EFC313FF9000ABE02FF080A770
:011D1B0022A5
:0B1AF1009000D1EFF0A3EDF0A3EBF0AC
:101AFC00A3E0FF131313541FFD7C00EF54077E006B
:101B0C0060047F0180027F00EF2DFFEE3CFE900011
:101B1C00D4E0FD7C00120D969000D7EEF0A3EFF010
:101B2C00E49000D5F0A3F09000D7E0FCA3E0FD908A
:101B3C0000D5E0FEA3E0FFC39DEE9C50439000D483
:101B4C00E0FD7C00120DA8ED4C70069000D1122027
:101B5C009F9000D4E0B41028A3E0FEA3E0FF900017
:101B6C00D3E0C43354E02436F582E43408121F6CFD
:101B7C009000D6E004F070AF9000D5E004F080A7A0
:011B8C002236
:0B1B8D009000C6EFF0A3EDF0A3EBF01A
:101B9800E49000CDF0A3F09000C9E0FF13131354B4
:101BA8001FFEEF540760047F0180027F00EE2F9034
:101BB80000C9F0E49000CFF09000C9E0FF9000CF9A
:101BC800E0FEC39F50519000C6E0FFA3E0FDEE2D5C
:101BD800FD1220A6E49000D0F09000C8E0FF90002D
:101BE800D0E0C39F50299000CAE0FBA3E0FAA3E02D
:101BF800F9A3E475F001120E3385F082F583120D16
:101C080069FF7D01121F7D9000D0E004F080CA902A
:071C180000CFE004F080A101
:011C1F0022A2
:0522D100E4FD021F7D89
:1019AE007FC87E001222047FAE1222D17FA812229F
:1019BE00D17F1F1222D17FD31222D1E4FF1222D166
:1019CE007F401222D17FA01222D17FC01222D17F5E
:1019DE00811222D17F7F1222D17FA41222D17FA623
:1019EE001222D17FD51222D17F801222D17F8D1269
:1019FE0022D17F141222D17F2E1222D17F201222C9
:101A0E00D17F101222D17FDA1222D17F021222D17F
:101A1E007FD91222D17F221222D17FDB1222D17FD7
:101A2E00201222D17FB01222D1E4FF1222D17F10D8
:101A3E001222D17FAF1222D17F2C7E0112220402FC
:021A4E001F2651
:102204007DA07C0FED1D70011C144C70F7EF1F7046
:06221400011E144E70EAE9
:01221A0022A1
:10228D007C007D05120D96EF1F70011E144E70F728
:01229D00221E
:102102009000AEEFF0A3EDF012229E7FD2121FB02C
:10211200121FEF9000AEE0FF121FB0121FEF9000EF
:0F212200AFE0FF121FB0121FEF1222AD7F00229D
:05202D009000ADEFF092
:1020320012229E7FD2121FB0121FEF9000ADE0FF5E
:10204200121FB0121FEF12229E7FD3121FB0121F57
:10205200EFD2001220D19000AEEFF01222AD90002C
:03206200AEE0FFEE
:012065002258
:0C22B900EF33333354F8FD7F1B02210289
:0C22C500EF33333354F8FD7F1C0221027C
:101EDD00E4FDC3EF94BCEE940040030D8036C3EFD8
:101EED009462EE940040047D028029C3EF942AEEA3
:101EFD00940040047D03801CC3EF9414EE940040C5
:101F0D00047D04800FC3EF940AEE940040047D0518
:091F1D0080027D067F1A022102F8
:081DEC009000ABEEF0A3EFF054
:101DF400D394E8EE9403400A9000AB7403F0A37408
:101E0400E8F0C39000ACE094049000ABE094005080
:101E140006E4F0A37404F09000ABE0FCA3E0FD7EC4
:101E2400037FE8120DA8EF14A3F0FD7F191221021D
:101E34009000ADEFF09000ABE0C313FEA3E013FFFE
:031E4400021EDD9E
:101D84007D807F6B1221027F647E00122204E4FDB9
:101D94007F6B1221027F031222B9E4FF1222C57F56
:101DA400327E00121DECE4FD7F38122102E4FD7F37
:101DB4006A1221027DFF7F231221027D807F371268
:101DC40021027F7512202DEFB469177D017F6B12FC
:101DD4002102E4FD7F6C1221027FC87E00121DECFB
:071DE40080037F01227F0054
:011DEB0022D5
:052185009000ABEFF03B
:10218A0012202D9000ACEFF09000ABE004FF12207B
:10219A002DAD079000ACE0FE7C00E42DFFEC3EFE86
:0121AA002212
:102066007F4112202D9000DBEFF07F4212202DAD34
:10207600079000DBE0FE7C00E42DFFEC3EFEAD07A2
:10208600FC120BB9E4FBFA79AA7843120B177BB85A
:092096007A1E7912784202091D3C
:10091600020C5EE86480F8E933E83360110460F0A5
:10092600ED33EC337009E8FCE9FDEAFEEBFF220447
:1009360060DED3EB9FEA9EE99DE8C2E78CF0C2F742
:1009460095F0400CE8CCF8E9CDF9EACEFAEBCFFB0E
:10095600120C2985D0F05804700320D5B3E8047032
:10096600075002B2D5020C6892D5EC0460F7E4CCCD
:10097600C0E0C398F8603B94186008400DD0E0FBD7
:10098600020C40E4FBFAC9FC8028E830E406E4C91E
:10099600FBE4CAFCE830E305E4C9CACBFCE854072B
:1009A6006010F8C3E913F9EA13FAEB13FBEC13FC36
:1009B600D8F130F52FC3E49CFCEF9BFFEE9AFEEDD9
:1009C60099FDD0E0FBEF4E4D4C701222DB03020C7A
:1009D60065EC2CFCEF33FFEE33FEED33FDED30E737
:1009E600EB020C40EF2BFFEE3AFEED39FDD0E0FBBB
:1009F60050130BBB0003020C68ED13FDEE13FEEF64
:080A060013FFEC13FC020C408D
:100A0E00EC4D6011E8497017ED33EC3304600DE4E2
:100A1E00FCFFFEFD22E933E8330470F8020C5E128F
:100A2E000C2958046009E4CC248150062850090290
:100A3E000C68284003020C65C0E0EB4A7044B98094
:100A4E0006D0E0FB020C54EF4E701CBD8008EBFF8D
:100A5E00EAFEE9FD80EBE98DF0A4FEE5F0020AF76F
:100A6E00E9CDF9EAFEEBFFEF89F0A4FCE5F0CE89C3
:100A7E00F0A42EFFE435F0CD89F0A42DFEE435F080
:100A8E008067EF4E7005BD80D780C3EF8BF0A4ACAE
:100A9E00F0EE8BF0A42CFCE435F0F8EF8AF0A42CE9
:100AAE00E5F038FCE433CB8DF0A42CFCE5F03BF8FC
:100ABE00EE8AF0A42CFCE5F038F8E433CF89F0A4EC
:100ACE002CFCE5F038CF3400CE89F0A42FFFE5F0F2
:100ADE003EFEE433C98DF0A42EFEE5F039CD8AF04A
:100AEE00A42FFFE5F03EFEE43DFD33D0E0FB5007C2
:100AFE000BBB000F020C68EC2CFCEF33FFEE33FE49
:060B0E00ED33FD020C4076
:100B1400020C68EC5D046005E859047003020C5E85
:100B2400120C29580460F6EC4860F2EC7004FDFEE7
:100B3400FF22C860DB2481C85009C39860025006B4
:100B4400020C659850CAF582E9294B4A7005AB82BC
:100B5400020C5475F0007C1A7880C3EF9BEE9AED7A
:100B640099400DC3EF9BFFEE9AFEED99FDE842F02C
:100B7400DC23ACF0D0E0FFD0E0FED0E0FDAB82207F
:100B8400E7101BEB60BAEC2CFCEF33FFEE33FEED09
:100B940033FD020C40E803F830E705C0F075F000BF
:100BA400EF2FFFEE33FEED33FD40B830E7C280AAED
:100BB40075F020800E75F010800575F0087D007EBC
:100BC400007F003392D530D503120F66EC3340100A
:100BD400EF33FFEE33FEED33FDEC33FCD5F0ED22C5
:0E0BE400E5F0247EA2D513CC92E7CDCEFF2201
:100BF200EDD2E7CD33EC3392D524814006E4FFFEFB
:100C0200FDFC22FCE4CFCECDCC24E0501174FF8059
:100C1200EDC3CC13CCCD13CDCE13CECF13CF0470F6
:070C2200F030D5DE020F6681
:100C2900E9D2E7C933E833F892D5EDD2E7CD33EC11
:070C390033FC5002B2D5228A
:100C4000EC30E7100FBF000C0EBE00080DBD000415
:100C50000BEB6014A2D5EB13FCED92E7FD2274FFC1
:100C6000FCFDFEFF22E480F8A2D574FF13FC7D801A
:030C7000E480EF2E
:03000000021C20BF
:0C1C2000787FE4F6D8FD758120021C6777
:100C7300E709F608DFFA8046E709F208DFFA803E63
:100C830088828C83E709F0A3DFFA8032E309F60850
:100C9300DFFA8078E309F208DFFA807088828C83B8
:100CA300E309F0A3DFFA806489828A83E0A3F6086C
:100CB300DFFA805889828A83E0A3F208DFFA804C46
:100CC30080D280FA80C680D4806980F2803380101D
:100CD30080A680EA809A80A880DA80E280CA803386
:100CE30089828A83ECFAE493A3C8C582C8CCC583FE
:100CF300CCF0A3C8C582C8CCC583CCDFE9DEE780CE
:100D03000D89828A83E493A3F608DFF9ECFAA9F04C
:100D1300EDFB2289828A83ECFAE0A3C8C582C8CCA2
:100D2300C583CCF0A3C8C582C8CCC583CCDFEADEBB
:100D3300E880DB89828A83E493A3F208DFF980CC1D
:100D430088F0EF60010E4E60C388F0ED2402B40416
:100D53000050B9F582EB2402B4040050AF232345BD
:060D63008223900CC37313
:100D6900BB010CE58229F582E5833AF583E022503F
:100D790006E92582F8E622BBFE06E92582F8E22289
:0D0D8900E58229F582E5833AF583E49322A3
:100D9600EF8DF0A4A8F0CF8CF0A428CE8DF0A42E71
:020DA600FE222B
:100DA800BC000BBE0029EF8DF084FFADF022E4CC2F
:100DB800F875F008EF2FFFEE33FEEC33FCEE9DECF8
:100DC800984005FCEE9DFE0FD5F0E9E4CEFD22ED3E
:100DD800F8F5F0EE8420D21CFEADF075F008EF2F88
:100DE800FFED33FD4007985006D5F0F222C398FD79
:050DF8000FD5F0EA2216
:100DFD00C2D5EC30E709B2D5E4C39DFDE49CFCEE11
:100E0D0030E715B2D5E4C39FFFE49EFE120DA8C3D3
:100E1D00E49DFDE49CFC8003120DA830D507C3E4CE
:060E2D009FFFE49EFE227F
:100E3300A3F8E0C5F025F0F0E58215827002158372
:060E4300E0C838F0E822CF
:100E4900E88FF0A4CC8BF0A42CFCE98EF0A42CFC48
:100E59008AF0EDA42CFCEA8EF0A4CDA8F08BF0A4C6
:100E69002DCC3825F0FDE98FF0A42CCD35F0FCEB25
:100E79008EF0A4FEA9F0EB8FF0A4CFC5F02ECD39EA
:0F0E8900FEE43CFCEAA42DCE35F0FDE43CFC2257
:100E980075F008758200EF2FFFEE33FECD33CDCC11
:100EA80033CCC58233C5829BED9AEC99E582984094
:100EB8000CF582EE9BFEED9AFDEC99FC0FD5F0D671
:100EC800E4CEFBE4CDFAE4CCF9A88222B800C1B99B
:100ED8000059BA002DEC8BF084CFCECDFCE5F0CBD9
:100EE800F97818EF2FFFEE33FEED33FDEC33FCEB12
:100EF80033FB10D703994004EB99FB0FD8E5E4F9CD
:100F0800FA227818EF2FFFEE33FEED33FDEC33FCB9
:100F1800C933C910D7059BE99A4007EC9BFCE99AAD
:100F2800F90FD8E0E4C9FAE4CCFB2275F010EF2FF2
:100F3800FFEE33FEED33FDCC33CCC833C810D707F2
:100F48009BEC9AE899400AED9BFDEC9AFCE899F82D
:0E0F58000FD5F0DAE4CDFBE4CCFAE4C8F922C0
:0E0F6600C3E49FFFE49EFEE49DFDE49CFC229C
:0C0F7400ECF0A3EDF0A3EEF0A3EFF022F0
:100F8000A8828583F0D083D082120F97120F971218
:100F90000F97120F97E473E493A3C583C5F0C5833D
:100FA000C8C582C8F0A3C583C5F0C583C8C582C8BB
:010FB000221E
:101C2C00020FB1E493A3F8E493A34003F68001F20E
:101C3C0008DFF48029E493A3F85407240CC8C333B9
:101C4C00C4540F4420C8834004F456800146F6DF88
:101C5C00E4800B0102040810204080901A50E47EAE
:101C6C00019360BCA3FF543F30E509541FFEE4937D
:101C7C00A360010ECF54C025E060A840B8E493A344
:101C8C00FAE493A3F8E493A3C8C582C8CAC583CA6F
:101C9C00F0A3C8C582C8CAC583CADFE9DEE780BE27
:011AF00000F5
:00000001FF
