:1017F40041007A0041007B004100000041000100EB
:1018040060780002000000000000000000000000FA
:10181400003200640000000000000000006400C802
:1018240000000000000000000096012C00000000F1
:101834000000000000C8019000000000000000004B
:1018440000FA01F40000000000000000012C02581E
:101854000000000000000000015E02EE0000000035
:1018640000000000019003200000000000000000C0
:0C18740001C20352000000000000000050
:100F1500E490007CF0A3F0A3120EE400000000E4CE
:100F2500900082F0A3F0A3F0A3F0A3120EE400005A
:100F3500000090008A7401F0A3745EF0E490008EC6
:100F4500F0A3F0A3F0900090E0FF75F00CA424044A
:100F5500F582E43400F583E0FCA3E0FDEF75F00CC9
:100F6500A42410F582E43400F583E0FEA3E0C39DDC
:100F7500FDEE9CFC120C33E4FBFA79487842120B27
:100F850007900090E0FB75F00CA42406F582E4348C
:100F950000F583120ED8EB75F00CA42402F582E45B
:100FA5003400F583E0FCA3E0FDEC120C33900090D7
:100FB500E075F00CA42406F582E43400F583E0F82E
:100FC500A3E0F9A3E0FAA3E0FB1209FEC004C00503
:100FD500C006C007900090E075F00CA42404F582CB
:100FE500E43400F583E0FCA3E0FDEC120C33D00300
:100FF500D002D001D000120909900090E075F00CE4
:10100500A4240AF582E43400F583120ED8900090EA
:10101500E004F0E064096003020F4A121DAF1216E6
:10102500C6121E9C121E8912197DD2AFC2B690003F
:101035007CE0FEA3E0FFC3900083E09F900082E088
:101045009E5006D2B6C2B58004C2B6D2B57F327EF6
:1010550000121E60900083E004F07006900082E0AC
:1010650004F0900082E0B407C5A3E0B4D4C0E490D6
:101075000082F0A3F07F01121D35AC06AD07E41226
:101085000C3390007E120ED87F007E407D4E7C454D
:1010950090007EE0F8A3E0F9A3E0FAA3E0FB1209D3
:1010A500FEE4FBFA79807845120B0790007E120E5C
:1010B500D87B007A40791C784690007EE0FCA3E05E
:1010C500FDA3E0FEA3E0FF120B07E4FBFA79C87865
:1010D500421209FE90007E120ED8E4FFFE7D207CB0
:1010E5004190007EE0F8A3E0F9A3E0FAA3E0FB124B
:1010F50009FE120C6C900093120ED890009774059F
:10110500F0A37410F07D02E4FF1213267F43121D35
:101115008990008EEEF0A3EFF090008AE0FEA3E048
:10112500FF1214DA90008CEEF0A3EFF0E4FF121D2D
:1011350035E4FCFD900086120ED8E47FE47E0CFDBC
:10114500FC900086E0F8A3E0F9A3E0FAA3E0FB1227
:101155000DADE4FB7A10F9F8120E38900086120EE8
:10116500D8900086A3A3E0FEA3E0FF90008CE0FCEE
:10117500A3E0FD7BD07A0712140590007CEEF0A366
:10118500EFF0900086A3A3E0FEA3E0FF121582E432
:10119500FCFD900093120ED89000977405F0A3748F
:1011A50010F0E4FDFF121326900000E0FF602D7E95
:1011B5000090008AEE8FF0120D81AFF0FEE4FCFD89
:1011C500900093120ED89000977406F0A37410F057
:1011D500E4FD7F36121326E4900000F0900001E054
:1011E500FF6031C390008BE09FFF90008AE0940080
:1011F500FEF0A3EFF0E4FCFD900093120ED89000F2
:10120500977406F0A37410F0E4FD7F36121326E4FC
:10121500900001F0900085E004F07006900084E0F5
:0512250004F00210338B
:101DAF0043BA8043B26053B19F4392304391305353
:101DBF0092FC43910353B2F353B1F3D2B3D2B2D2E5
:041DCF0095D29422F3
:0D1E9C0090FEA8743FF075DE0F75BC80222B
:101D350043BC4053BCF0EF42BC0000E5BC30E5FBC2
:101D450053BCDF85BDA0AFBDEF75F010A4FFAEF0AD
:0A1D5500E5BEC4540FFDEF4DFF2260
:0814DA00900091EEF0A3EFF089
:1014E200E4A3F0F0900093E0FFC3940940030215D7
:1014F20081EF75F00CA42402F582E43400F583E058
:10150200FEA3E0FF900091E0FCA3E0FDC39FEC9EF0
:101512004064A3E075F00CA4240EF582E43400F5D7
:1015220083E0FEA3E0FFC3ED9FEC9E504990009143
:10153200A3E4120C33900093E075F00CA42406F59A
:1015420082E43400F583E0F8A3E0F9A3E0FAA3E033
:10155200FB1209FE900093E075F00CA4240AF582B8
:10156200E43400F583E0F8A3E0F9A3E0FAA3E0FB9A
:0F15720012090D020C6C900093E004F00214E6D5
:011581002247
:08158200900091EEF0A3EFF0E0
:10158A00E4A3F0F0900093E0FFC39409400302162D
:10159A0029EF75F00CA42404F582E43400F583E005
:1015AA00FEA3E0FF900091E0FCA3E0FDC39FEC9E48
:1015BA004064A3E075F00CA42410F582E43400F52D
:1015CA0083E0FEA3E0FFC3ED9FEC9E50499000919B
:1015DA00A3E4120C33900093E075F00CA4240AF5EE
:1015EA0082E43400F583E0F8A3E0F9A3E0FAA3E08B
:1015FA00FB120909900093E075F00CA42406F58209
:10160A00E43400F583E0F8A3E0F9A3E0FAA3E0FBF1
:0F161A00120B07020C6C900093E004F002158E87
:01162900229E
:10140500900091EEF0A3EFF0A3ECF0A3EDF0A3EACA
:04141500F0A3EBF065
:10141900A3120EE400000000900091E0FEA3E0FF9B
:10142900C3900094E09FFF900093E09EFEAD07FCFF
:10143900120C33E4FBFA79A078411209FE90009767
:10144900120ED8E4FFFEFDFC900097E0F8A3E0F946
:10145900A3E0FAA3E0FB120BA45017900097E0FC5D
:10146900A3E0FDA3E0FEA3E0FF120C1D900097127C
:101479000ED8900095E0FCA3E0FDE4120C33900037
:1014890097E0F8A3E0F9A3E0FAA3E0FB120BA4604C
:10149900144012900095E0FCA3E0FDE4120C339097
:1014A9000097120ED8900093E0FEA3E0FFD39000BE
:1014B90092E09F900091E09E40057E007F6422901B
:1014C9000097E0FCA3E0FDA3E0FEA3E0FF120C6C93
:0114D90022F0
:03000B00021AF4E2
:101AF400C0E0C083C082C0D090007A20B305E00467
:101B0400F08002E4F090007B20B205E004F0800253
:101B1400E4F090007AE0D394464008E4F0900000AA
:101B2400E004F090007BE0D394464008E4F0900099
:0D1B340001E004F0D0D0D082D083D0E032A8
:101E8900438E805389F0758AC0758C63C28DD28C5C
:031E9900D2A922A9
:10000E000000000000000000002F000000000700AC
:10001E00070000147F147F1400242A7F2A12006226
:10002E0064081323003649552250000005030000D2
:10003E0000001C224100000041221C000014083E5A
:10004E0008140008083E0808000000A06000000820
:10005E000808080800006060000000201008040274
:10006E00003E5149453E0000427F40000042615132
:10007E004946002141454B31001814127F100027CC
:10008E0045454539003C4A4949300001710905038F
:10009E0000364949493600064949291E00003636C0
:1000AE000000000056360000000814224100001423
:1000BE001414141400004122140800020151090600
:1000CE0000324959513E007C1211127C007F494981
:1000DE004936003E41414122007F4141221C007FB2
:1000EE0049494941007F09090901003E4149497AC0
:1000FE00007F0808087F0000417F4100002040413A
:10010E003F01007F08142241007F40404040007FA5
:10011E00020C027F007F0408107F003E4141413EE9
:10012E00007F09090906003E4151215E007F091931
:10013E0029460046494949310001017F0101003F2E
:10014E004040403F001F2040201F003F4038403FAE
:10015E000063140814630007087008070061514912
:10016E00454300007F41410000552A552A550000A5
:10017E0041417F0000040201020400404040404023
:10018E00000001020400002054545478007F4844BB
:10019E00443800384444442000384444487F0038F2
:1001AE005454541800087E0901020018A4A4A47C1B
:1001BE00007F080404780000447D400000408084E5
:1001CE007D00007F102844000000417F4000007C2D
:1001DE0004180478007C0804047800384444443839
:1001EE0000FC242424180018242418FC007C080485
:1001FE00040800485454542000043F444020003C5E
:10020E004040207C001C2040201C003C4030403CE4
:10021E00004428102844001CA0A0A07C0044645474
:10022E004C441414141414140000000000000000B8
:10023E000000000000000000000000F800000000B8
:10024E00000000333000000000100C06100C0600F9
:10025E00000000000000000040C07840C078400060
:10026E00043F04043F040400007088FC08300000C2
:10027E00001820FF211E0000F008F000E01800001A
:10028E0000211C031E211E0000F0088870000000D3
:10029E001E2123241927211010160E000000000025
:1002AE000000000000000000000000E01804020042
:1002BE00000000071820400000020418E0000000B3
:1002CE000040201807000000404080F080404000B1
:1002DE000202010F01020200000000F00000000007
:1002EE000101011F010101000000000000000000DB
:1002FE0080B0700000000000000000000000000050
:10030E0000010101010101010000000000000000D8
:10031E000030300000000000000000008060180473
:10032E00006018060100000000E010080810E00050
:10033E00000F102020100F00001010F80000000019
:10034E000020203F20200000007008080888700060
:10035E0000302824222130000030088888483000E0
:10036E000018202020110E000000C02010F8000000
:10037E0000070424243F240000F808888808080099
:10038E000019212020110E0000E0108888180000AE
:10039E00000F112020110E0000380808C838080080
:1003AE000000003F00000000007088080888700000
:1003BE00001C222121221C0000E010080810E00081
:1003CE000000312222110F00000000C0C00000000A
:1003DE00000000303000000000000080000000002F
:1003EE000000806000000000000080402010080027
:1003FE0000010204081020004040404040404000F0
:10040E0004040404040404000008102040800000CA
:10041E000020100804020100007048080808F000CF
:10042E000000003036010000C030C828E810E0009F
:10043E000718272423140B000000C038E00000002A
:10044E00203C23020227382008F888888870000094
:10045E00203F202020110E00C03008080808380068
:10046E00071820202010080008F808080810E000DF
:10047E00203F202020100F0008F88888E808100080
:10048E00203F20202320180008F88888E808100054
:10049E00203F200003000000C0300808083800008C
:1004AE0007182020221E020008F808000008F8088D
:1004BE00203F210101213F20000808F80808000014
:1004CE000020203F2020000000000808F808080047
:1004DE00C08080807F00000008F888C028180800BF
:1004EE00203F20012638200008F8080000000000F8
:1004FE00203F20202020300008F8F800F8F80800EF
:10050E00203F003F003F200008F830C00008F808E8
:10051E00203F200007183F00E01008080810E000F8
:10052E000F10202020100F0008F808080808F0000F
:10053E00203F210101010000E01008080810E00032
:10054E000F18242438504F0008F8888888887000C7
:10055E00203F2000030C3020007088080808380067
:10056E000038202121221C00180808F8080818005D
:10057E000000203F2000000008F808000008F808DE
:10058E00001F202020201F000878880000C838088F
:10059E00000007380E010000F80800F80008F80007
:1005AE00033C0700073C03000818688080681808A1
:1005BE0020302C03032C30200838C800C83808001F
:1005CE000000203F2000000010080808C83808006E
:1005DE002038262120201800000000FE0202020012
:1005EE000000007F40404000000C30C000000000C2
:1005FE00000000010638C00000020202FE000000EA
:10060E00004040407F00000000000402020204008F
:10061E0000000000000000000000000000000000CC
:10062E0080808080808080800002020400000000B4
:10063E0000000000000000000000808080800000AC
:10064E000019242222223F2008F80080800000009A
:10065E00003F112020110E0000000080808000005D
:10066E00000E112020201100000000808088F8006C
:10067E00000E112020103F2000008080808000009E
:10068E00001F222222221300008080F08888881802
:10069E000020203F2020000000008080808080000D
:1006AE00006B94949493600008F8008080800000A2
:1006BE00203F210000203F2000809898000000007D
:1006CE000020203F202000000000008098980000AD
:1006DE0000C08080807F000008F8000080808000CD
:1006EE00203F24022D302000000808F800000000F2
:1006FE000020203F202000008080808080808000AD
:10070E00203F20003F20003F80800080808000003E
:10071E00203F210000203F200000808080800000CC
:10072E00001F202020201F008080008080000000FD
:10073E0080FFA12020110E0000000080808080002C
:10074E00000E112020A0FF8080808000808080001D
:10075E0020203F212000010000008080808080004A
:10076E000033242424241900008080E080800000BF
:10077E000000001F2020000080800000008080000C
:10078E00001F202020103F2080808000008080806D
:10079E0000010E30080601008080008000808080FD
:1007AE000F300C030C300F00008080008080800022
:1007BE000020312E0E31200080808000008080804D
:1007CE0080818E70180601000080808080808000FD
:1007DE000021302C2221300000000000807C02021B
:1007EE0000000000003F404000000000FF0000003D
:1007FE0000000000FF0000000002027C80000000EC
:10080E000040403F00000000000601010202040407
:10081E0000000000000000000000F010101010FF9B
:10082E0010101010F000000000000F04040404FF6C
:10083E00040404040F0000004040405F55555575F8
:10084E005555555F404040000040200F09498979B9
:10085E000909090F2040000000FE02424ACA4A4A16
:10086E00CA4A4A4202FE000000FF40504C4340403C
:10087E004F50505C40FF00000000F888888888FFC9
:10088E0088888888F800000000001F080808087F84
:10089E00888888889F80F00080828282828282E2AD
:1008AE00A2928A8682808000000000000040807F35
:1008BE000000000000000000101010FF10900888CB
:1008CE008888FF88888808000444827F01808040E1
:1008DE00432C1028468180000010101010D030FFDD
:1008EE0030D0121C1010000010080402010000FF8E
:0808FE000000010204081000D3
:101E0800D295D2947F017E00121E60C2947F017E1B
:071E180000121E60C29522BA
:101E7500C294D2957F017E00121E60D2947F017EAE
:041E850000021E60D9
:101DEF00C295A20192947F017E00121E60D2957F50
:091DFF00017E00121E60C2952253
:101C5D00E49000AAF0A3F0D2947F01FE121E60D290
:101C6D00957F017E00121E6030941F9000ABE00442
:101C7D00F070069000AAE004F0D39000ABE094E27F
:0D1C8D009000AAE0940440E0D322C295C369
:011C9A002227
:0519E5009000AAEFF0E4
:1019EA00C295C2947F017E00121E609000AB7407FC
:1019FA00F09000ABE0FFC36480948040417E0074A5
:101A0A0001A807088005C333CE33CED8F9FF90006A
:101A1A00AAE0FDEF5D6004D2948002C2947F017E49
:101A2A0000121E60D2957F017E00121E60C2957F51
:0E1A3A00017E00121E609000ABE014F080B33D
:011A4800227B
:101AA400E4900095F0A37407F0C2957F017E0012C4
:101AB4001E60D295309417900095E0FFA3E0FEF8E5
:101AC4007401088002C333D8FC4F900095F07F0165
:101AD4007E00121E60900096E014F0E0C3648094CF
:0F1AE4008050C6A2009201121DEF900095E0FF06
:011AF30022D0
:101C1900F583E5822FF582E5833EF583E493FF7D25
:011C290001B9
:101C2A009000A8EFF0A3EDF0121E087F781219E5D4
:101C3A00121C5D9000A9E060047F408002E4FF125C
:101C4A0019E5121C5D9000A8E0FF1219E5121C5D4F
:031C5A00021E75F2
:101DD3009000C6EFF07006FD7FA6121C2A9000C685
:0C1DE300E0B40107E4FD7FA7121C2A22D7
:101D5F009000C7EFF0700DFD7FC8121C2AE4FD7FC5
:101D6F00A1121C2A9000C7E0B4010EE4FD7FC0123F
:0A1D7F001C2AE4FD7FA0121C2A229A
:071CD400E0FFA3E0FD04F0B6
:101CDB009000A7EFF0ED24B0FFE4FD121C2A90005A
:101CEB00A7E054F0C4540F4410FFE4FD121C2A90DB
:0B1CFB0000A7E0540FFFE4FD021C2ACC
:101E3600E4FD7F8D121C2AE4FD7F14121C2AE4FDAA
:051E46007FAF021C2A21
:101E4B00E4FD7F8D121C2AE4FD7F10121C2AE4FD99
:051E5B007FAE021C2A0D
:101BD300E4900091F0900091E0FFC394085036EF39
:101BE30024B0FFE4FD121C2AE4FDFF121C2AE4FDCD
:101BF3007F10121C2AE4900092F07D01E4FF121C76
:101C03002A900092E004F0E0C3948040ED900091AC
:051C1300E004F080C0B8
:011C180022A9
:08122A0090009DEFF0A3EDF030
:10123200E49000A1F09000A0E0FFC313FD9000A293
:10124200F0E4A3F0A3F0EFB40809A3E4F0A374065A
:10125200F080319000A0E0FF131313541FF5827544
:101262008300EF54077E0060047F0180027F00EF5D
:101272002582FFEE3583FE7C00120D1A9000A5EE4A
:10128200F0A3EFF0EB24E09000A1F090009DE0FFCE
:10129200A3E0FD121CDBE49000A3F0A3F09000A5F4
:1012A200E0FCA3E0FD9000A3E0FEA3E0FFC39DEEFF
:1012B2009C50709000A2E0FD7C00120D2CED4C7051
:1012C2000E9000A0E06408600690009D121CD4906D
:1012D20000A0E0B4081A9000A3E0FEA3E0FF900093
:1012E200A1E075F006A4240EF582E5F03400801F1B
:1012F2009000A0E0B4102C9000A3E0FEA3E0FF90C9
:1013020000A1E075F010A42436F582E5F034021253
:101312001C199000A4E004F070069000A3E004F011
:0313220002129F15
:0113250022A5
:081B410090009DEFF0A3EDF010
:101B4900A3120EE40000000190009EE0FF14F0EFE4
:101B59006020A3E0F8A3E0F9A3E0FAA3E0FB90007A
:101B69009DE0FFE4FCFDFE120DAD90009F120ED822
:101B790080D690009FE0FCA3E0FDA3E0FEA3E0FF78
:011B89002239
:08132600900091EFF0A3EDF03F
:10132E00E490009BF0A3F0900098E0B408069000C3
:10133E009B7402F0E4900099F0900097E0FF90000B
:10134E0099E0FEC39F4003021404C3EF9E14FD7F79
:10135E000A121B41A804A905AA06AB07900093E048
:10136E00FCA3E0FDA3E0FEA3E0FF120E38E47B0A2F
:10137E00FAF9F8120E3890009AEBF090009CE0709B
:10138E003C900097E014FF900099E0FEC39F502D13
:10139E00A3E07023900098E0FCC313FF90009BE045
:1013AE002F8EF0A4FF900091E02FFFA3E0FD9000A0
:1013BE00A0ECF07B20803390009C7401F09000989C
:1013CE00E0FEC313FF90009BE02FFF900099E0FD1D
:1013DE00EF8DF0A4FF900091E02FFFA3E0FD9000B1
:1013EE009AE02430FB9000A0EEF012122A900099A1
:0613FE00E004F0021347B9
:0114040022C5
:10190D009000BFEFF0A3EDF0A3EBF0A3EAF0A3E995
:01191D00F0D9
:10191E00E49000C5F09000C1E0FBA3E0FAA3E0F96B
:10192E009000C5E0F582758300120CED60409000CA
:10193E00BFE0FFA3E0FD9000C5E0FE04F08E8275CF
:10194E008300120CEDFB9000C4E09000A0F0121288
:10195E002A9000C4E0FFB408099000BFE02406F00E
:0E196E0080B3EFC313FF9000BFE02FF080A7FF
:01197C002248
:0B162A009000B7EFF0A3EDF0A3EBF091
:10163500A3E0FF131313541FFD7C00EF54077E0036
:1016450060047F0180027F00EF2DFFEE3CFE9000DD
:10165500BAE0FD7C00120D1A9000BDEEF0A3EFF08C
:10166500E49000BBF0A3F09000BDE0FCA3E0FD908A
:1016750000BBE0FEA3E0FFC39DEE9C50439000BA83
:10168500E0FD7C00120D2CED4C70069000B7121C8D
:10169500D49000BAE0B41028A3E0FEA3E0FF9000C8
:1016A500B9E0C43354E02426F582E43408121C1949
:1016B5009000BCE004F070AF9000BBE004F080A7A0
:0116C5002202
:0B1761009000ACEFF0A3EDF0A3EBF064
:10176C00E49000B3F0A3F09000AFE0FF1313135418
:10177C001FFEEF540760047F0180027F00EE2F9064
:10178C0000AFF0E49000B5F09000AFE0FF9000B532
:10179C00E0FEC39F50519000ACE0FFA3E0FDEE2DA6
:1017AC00FD121CDBE49000B6F09000AEE0FF900060
:1017BC00B6E0C39F50299000B0E0FBA3E0FAA3E091
:1017CC00F9A3E475F001120D9785F082F583120CE4
:1017DC00EDFF7D01121C2A9000B6E004F080CA9047
:0717EC0000B5E004F080A14C
:0117F30022D3
:05000300E4FD021C2ACF
:1016C6007FC87E00121E1F7FAE1200037FA8120085
:1016D600037F1F1200037FD3120003E4FF120003EF
:1016E6007F401200037FA01200037FC01200037F19
:1016F600811200037F7F1200037FA41200037FA6DE
:101706001200037FD51200037F801200037F8D1223
:1017160000037F141200037F2E1200037F201200A5
:10172600037F101200037FDA1200037F0212000308
:101736007FD91200037F221200037FDB1200037F92
:10174600201200037FB0120003E4FF1200037F1093
:0B1756001200037FAF120003021BD340
:101E1F007DA07C0FED1D70011C144C70F7EF1F702F
:061E2F00011E144E70EAD2
:011E3500228A
:101E6000EF7803C333CE33CED8F9FFEF1F70011ED6
:041E7000144E70F7A5
:011E7400224B
:101D0600900094EFF0A3EDF0121E087FD01219E5B3
:101D1600121C5D900094E0FF1219E5121C5D900004
:0F1D260095E0FF1219E5121C5D121E757F002259
:051C9B00900093EFF042
:101CA000121E087FD01219E5121C5D900093E0FF10
:101CB0001219E5121C5D121E087FD11219E5121CC3
:101CC0005DD200121AA4900094EFF0121E759000DD
:031CD00094E0FF9E
:011CD30022EE
:0C1EA900EF33333354F8FD7F1B021D069D
:0C1EB500EF33333354F8FD7F1C021D0690
:101B8A00E4FDC3EF94BCEE940040030D8036C3EF2E
:101B9A009462EE940040047D028029C3EF942AEEF9
:101BAA00940040047D03801CC3EF9414EE9400401B
:101BBA00047D04800FC3EF940AEE940040047D056F
:091BCA0080027D067F1A021D064F
:081A4900900091EEF0A3EFF014
:101A5100D394E8EE9403400A9000917403F0A374C8
:101A6100E8F0C3900092E09404900091E09400505B
:101A710006E4F0A37404F0900091E0FCA3E0FD7E85
:101A8100037FE8120D2CEF14A3F0FD7F19121D0640
:101A9100900093EFF0900091E0C313FEA3E013FFD9
:031AA100021B8A9B
:10197D007D807F6B121D067F647E00121E1FE4FDAD
:10198D007F6B121D067F03121EA9E4FF121EB57F89
:10199D00327E00121A49E4FD7F38121D06E4FD7FE8
:1019AD006A121D067DFF7F23121D067D807F371273
:1019BD001D067F75121C9BEFB468177D017F6B129E
:1019CD001D06E4FD7F6C121D067FC87E00121A49AC
:0719DD0080037F01227F005F
:0119E40022E0
:051D8900900091EFF055
:101D8E00121C9B900092EFF0900091E004FF121C49
:101D9E009BAD07900092E0FE7C00E42DFFEC3EFE32
:011DAE002212
:10090600020CD8E86480F8E933E83360110460F03B
:10091600ED33EC337009E8FCE9FDEAFEEBFF220457
:1009260060DED3EB9FEA9EE99DE8C2E78CF0C2F752
:1009360095F0400CE8CCF8E9CDF9EACEFAEBCFFB1E
:10094600120CA385D0F05804700320D5B3E80470C8
:10095600075002B2D5020CE292D5EC0460F7E4CC63
:10096600C0E0C398F8603B94186008400DD0E0FBE7
:10097600020CBAE4FBFAC9FC8028E830E406E4C9B4
:10098600FBE4CAFCE830E305E4C9CACBFCE854073B
:100996006010F8C3E913F9EA13FAEB13FBEC13FC46
:1009A600D8F130F52FC3E49CFCEF9BFFEE9AFEEDE9
:1009B60099FDD0E0FBEF4E4D4C701222DB03020C8A
:1009C600DFEC2CFCEF33FFEE33FEED33FDED30E7CD
:1009D600EB020CBAEF2BFFEE3AFEED39FDD0E0FB51
:1009E60050130BBB0003020CE2ED13FDEE13FEEFFA
:0809F60013FFEC13FC020CBA24
:1009FE00EC4D6011E8497017ED33EC3304600DE4F3
:100A0E00FCFFFEFD22E933E8330470F8020CD81225
:100A1E000CA358046009E4CC248150062850090226
:100A2E000CE2284003020CDFC0E0EB4A7044B980B0
:100A3E0006D0E0FB020CCEEF4E701CBD8008EBFF23
:100A4E00EAFEE9FD80EBE98DF0A4FEE5F0020AE78F
:100A5E00E9CDF9EAFEEBFFEF89F0A4FCE5F0CE89D3
:100A6E00F0A42EFFE435F0CD89F0A42DFEE435F090
:100A7E008067EF4E7005BD80D780C3EF8BF0A4ACBE
:100A8E00F0EE8BF0A42CFCE435F0F8EF8AF0A42CF9
:100A9E00E5F038FCE433CB8DF0A42CFCE5F03BF80C
:100AAE00EE8AF0A42CFCE5F038F8E433CF89F0A4FC
:100ABE002CFCE5F038CF3400CE89F0A42FFFE5F002
:100ACE003EFEE433C98DF0A42EFEE5F039CD8AF05A
:100ADE00A42FFFE5F03EFEE43DFD33D0E0FB5007D2
:100AEE000BBB000F020CE2EC2CFCEF33FFEE33FEDF
:060AFE00ED33FD020CBA0D
:100B0400020CE2EC5D046005E859047003020CD8A1
:100B1400120CA3580460F6EC4860F2EC7004FDFE7D
:100B2400FF22C860DB2481C85009C39860025006C4
:100B3400020CDF9850CAF582E9294B4A7005AB8252
:100B4400020CCE75F0007C1A7880C3EF9BEE9AED10
:100B540099400DC3EF9BFFEE9AFEED99FDE842F03C
:100B6400DC23ACF0D0E0FFD0E0FED0E0FDAB82208F
:100B7400E7101BEB60BAEC2CFCEF33FFEE33FEED19
:100B840033FD020CBAE803F830E705C0F075F00055
:100B9400EF2FFFEE33FEED33FD40B830E7C280AAFD
:100BA40074F8CC6480CCC86480C8F58204604FC3F8
:100BB400EB9FF5F0EA9E42F0E99D42F0E89C45F097
:100BC400603C501DE5825FFFE582D313CB5BCBF421
:100BD4002B5582FB50280ABA002409B9002008804A
:100BE4001DE5825BFBE582D313CF5FCFF4C3132FE4
:100BF4005582FF50090EBE00050DBD00010CC3EB6C
:100C04009FF5F0EA9E42F0E99D42F0E89C45F060D1
:090C140007CC4820E701B3EC22F3
:100C1D00ED33EC33600A047003BD8004ECB2E7FCE5
:010C2D0022A4
:100C2E0075F020800E75F010800575F0087D007E41
:100C3E00007F003392D530D503120ECAEC3340102C
:100C4E00EF33FFEE33FEED33FDEC33FCD5F0ED224A
:0E0C5E00E5F0247EA2D513CC92E7CDCEFF2286
:100C6C00EDD2E7CD33EC3392D524814006E4FFFE80
:100C7C00FDFC22FCE4CFCECDCC24E0501174FF80DF
:100C8C00EDC3CC13CCCD13CDCE13CECF13CF04707C
:070C9C00F030D5DE020ECAA4
:100CA300E9D2E7C933E833F892D5EDD2E7CD33EC97
:070CB30033FC5002B2D52210
:100CBA00EC30E7100FBF000C0EBE00080DBD00049B
:100CCA000BEB6014A2D5EB13FCED92E7FD2274FF47
:100CDA00FCFDFEFF22E480F8A2D574FF13FC7D80A0
:030CEA00E480EFB4
:0300000002188162
:0C188100787FE4F6D8FD7581200218C8BD
:100CED00BB010CE58229F582E5833AF583E02250BC
:100CFD0006E92582F8E622BBFE06E92582F8E22206
:0D0D0D00E58229F582E5833AF583E493221F
:100D1A00EF8DF0A4A8F0CF8CF0A428CE8DF0A42EED
:020D2A00FE22A7
:100D2C00BC000BBE0029EF8DF084FFADF022E4CCAB
:100D3C00F875F008EF2FFFEE33FEEC33FCEE9DEC74
:100D4C00984005FCEE9DFE0FD5F0E9E4CEFD22EDBA
:100D5C00F8F5F0EE8420D21CFEADF075F008EF2F04
:100D6C00FFED33FD4007985006D5F0F222C398FDF5
:050D7C000FD5F0EA2292
:100D8100C5F0F8A3E028F0C5F0F8E58215827002FD
:060D91001583E038F0229A
:100D9700A3F8E0C5F025F0F0E5821582700215830F
:060DA700E0C838F0E8226C
:100DAD00E88FF0A4CC8BF0A42CFCE98EF0A42CFCE5
:100DBD008AF0EDA42CFCEA8EF0A4CDA8F08BF0A463
:100DCD002DCC3825F0FDE98FF0A42CCD35F0FCEBC2
:100DDD008EF0A4FEA9F0EB8FF0A4CFC5F02ECD3987
:0F0DED00FEE43CFCEAA42DCE35F0FDE43CFC22F4
:100DFC0075F008758200EF2FFFEE33FECD33CDCCAE
:100E0C0033CCC58233C5829BED9AEC99E582984030
:100E1C000CF582EE9BFEED9AFDEC99FC0FD5F0D60D
:100E2C00E4CEFBE4CDFAE4CCF9A88222B800C1B937
:100E3C000059BA002DEC8BF084CFCECDFCE5F0CB75
:100E4C00F97818EF2FFFEE33FEED33FDEC33FCEBAE
:100E5C0033FB10D703994004EB99FB0FD8E5E4F969
:100E6C00FA227818EF2FFFEE33FEED33FDEC33FC56
:100E7C00C933C910D7059BE99A4007EC9BFCE99A4A
:100E8C00F90FD8E0E4C9FAE4CCFB2275F010EF2F8F
:100E9C00FFEE33FEED33FDCC33CCC833C810D7078F
:100EAC009BEC9AE899400AED9BFDEC9AFCE899F8CA
:0E0EBC000FD5F0DAE4CDFBE4CCFAE4C8F9225D
:0E0ECA00C3E49FFFE49EFEE49DFDE49CFC2239
:0C0ED800ECF0A3EDF0A3EEF0A3EFF0228D
:100EE400A8828583F0D083D082120EFB120EFB12EF
:100EF4000EFB120EFBE473E493A3C583C5F0C58314
:100F0400C8C582C8F0A3C583C5F0C583C8C582C857
:010F140022BA
:10188D00020F15E493A3F8E493A34003F68001F24D
:10189D0008DFF48029E493A3F85407240CC8C3335C
:1018AD00C4540F4420C8834004F456800146F6DF2B
:1018BD00E4800B01020408102040809017F4E47EB0
:1018CD00019360BCA3FF543F30E509541FFEE49320
:1018DD00A360010ECF54C025E060A840B8E493A3E7
:1018ED00FAE493A3F8E493A3C8C582C8CAC583CA12
:1018FD00F0A3C8C582C8CAC583CADFE9DEE780BECA
:011880000067
:00000001FF
