:102171005365743A004300506F773A002E005600C1
:10218100536C703A00530000000000000000000092
:10219100000000000000000000000000000000003E
:0F21A1000000000000000000000000000000002F
:101B76004100820041008300410006004100070049
:101B86004200800000420004000060780008000067
:101B9600000000000000000000000032005A0000B3
:101BA600000000000000006400FE000000000000CD
:101BB60000000096015E000000000000000000C862
:101BC60001E8000000000000000000FA026C0000BE
:101BD600000000000000012C0312000000000000BD
:101BE6000000015E039A0000000000000000019062
:101BF6000424000000000000000001C204E200000E
:101C06000000000000004200000000420002000048
:100916009000841216EA0000000078887C007D01B1
:100926007BFF7A2179887E007F2812149C9000C074
:100936001216EA000000009000C47401F0A374408F
:10094600F0A37401F0A37440F0E49000CAF0A3F0A1
:10095600A3F0A3F0A3F0A3F0A3F0A3F09000D57446
:1009660032F0F0E49000D4F09000D4E0FFC3940A93
:100976004003020AADEF6409705CE0FB75F00CA45D
:100986002400F582E43400F583E0FCA3E0FDA3E057
:10099600FEA3E0FFEB75F00CA4240CF582E4340012
:1009A600F5831216DE9000D4E0FB75F00CA4240447
:1009B600F582E43400F583E0FCA3E0FDA3E0FEA3AA
:1009C600E0FFEB75F00CA42410F582E43400F58307
:1009D6001216DE020AAD9000D4E0FF75F00CA424D6
:1009E6000AF582E43400F583E0FCA3E0FDEF75F040
:1009F6000CA42416F582E43400F583E0FEA3E0C3DC
:100A06009DFDEE9CFC121312E4FBFA794878421223
:100A160012709000D4E0FB75F00CA4240CF582E46F
:100A26003400F5831216DEEB75F00CA42408F5826B
:100A3600E43400F583E0FCA3E0FDEC121312900011
:100A4600D4E075F00CA4240CF582E43400F583E0C0
:100A5600F8A3E0F9A3E0FAA3E0FB121167C004C013
:100A660005C006C0079000D4E075F00CA4240AF572
:100A760082E43400F583E0FCA3E0FDEC121312D00F
:100A860003D002D001D0001210729000D4E075F0AD
:100A96000CA42410F582E43400F5831216DE9000CF
:100AA600D4E004F002096E122331121C1712000E54
:100AB600122432122445121F49D2AFC2B67BFF7AE6
:100AC6002179719000DB7408F0E4FD7F44121E71F9
:100AD6007BFF7A2179769000DB7408F0E4FD7F785D
:100AE600121E717BFF7A2179789000DB7408F07D05
:100AF600017F44121E717BFF7A21797D9000DB74A1
:100B060008F07D017F68121E717BFF7A21797F9044
:100B160000DB7408F07D017F78121E717BFF7A215D
:100B260079819000DB7408F07D027F44121E717B90
:100B3600FF7A2179869000DB7408F07D027F7812B7
:100B46001E719000C4E0FEA3E0FFE4FCFD9000D817
:100B56001216DE9000DC7403F0A37408F0E4FD7F47
:100B66006212193BC2ABE4900004F0A3F0C2B6D205
:100B7600B57F267E0212247A9000C4E0FEA3E0FF31
:100B8600121A1A9000C8EEF0A3EFF0E4FF12235BEE
:100B9600E4FCFD9000C0A3A3E0FAA3E090008875F2
:100BA600F00412171BEA25E025E02583F5831216CB
:100BB600DE9000C0A3A3E0FEA3E090008875F004D9
:100BC60012171BEE25E025E02583F583E0FCA3E064
:100BD600FDA3E0FEA3E0FFE47BE47A0CF9F812152E
:100BE600A2E4FB7A10F9F812162D9000C0A3A3E038
:100BF600FAA3E090008875F00412171BEA25E02599
:100C0600E02583F5831216DE9000C0E0FCA3E0FD2C
:100C1600A3E0FEA3E02401FFE43EFEE43DFDE43C48
:100C2600FC9000C01216DEE47F0AFEFDFC9000C0B8
:100C3600E0F8A3E0F9A3E0FAA3E0FBC31216CD7037
:100C46000A9000C01216EA00000000D2AB9000889D
:100C5600E0FCA3E0FDA3E0FEA3E0FF9000B01216C7
:100C6600DE900088E0FCA3E0FDA3E0FEA3E0FF9099
:100C760000B41216DE9000B81216EA00000000E476
:100C86009000D4F09000D4E0FFC3940A4003020D14
:100C96007DEF25E025E02488F582E43400F583E045
:100CA600FCA3E0FDA3E0FEA3E0FF9000B4E0F8A300
:100CB600E0F9A3E0FAA3E0FBD31216CD40229000A0
:100CC600D4E025E025E02488F582E43400F583E0CD
:100CD600FCA3E0FDA3E0FEA3E0FF9000B41216DE45
:100CE6009000D4E025E025E02488F582E43400F580
:100CF60083E0FCA3E0FDA3E0FEA3E0FF9000B0E0EC
:100D0600F8A3E0F9A3E0FAA3E0FBC31216CD502244
:100D16009000D4E025E025E02488F582E43400F54F
:100D260083E0FCA3E0FDA3E0FEA3E0FF9000B01289
:100D360016DE9000B8E0FCA3E0FDA3E0FEA3E0FF12
:100D46009000D4E025E025E02488F582E43400F51F
:100D560083E0F8A3E0F9A3E0FAA3E0FBEF2BFFEEB4
:100D66003AFEED39FDEC38FC9000B81216DE900024
:100D7600D4E004F0020C8A9000B0E0F8A3E0F9A3F6
:100D8600E0FAA3E0FB9000B8E0FCA3E0FDA3E0FEE0
:100D9600A3E0C39BFFEE9AFEED99FDEC98FC900054
:100DA600B4E0F8A3E0F9A3E0FAA3E0FBC3EF9BFFEE
:100DB600EE9AFEED99FDEC98FCE47B08FAF9F81240
:100DC600162D9000BC1216DE9000BCA3A3E0FEA375
:100DD600E0FF9000C8E0FCA3E0FD7BD07A07121785
:100DE60027900080EEF0A3EFF09000BCA3A3E0FEF6
:100DF600A3E0FF121AC8E4FCFD9000D81216DE909C
:100E060000DC7403F0A37410F0E4FD7F2012193B9C
:100E16007F451223AF9000CAEEF0FCA3EFF0FD90E1
:100E260000CEE0FEA3E0FFC3ED9FFFEC9EFE900028
:100E3600CCF0A3EFF0A3ECF0A3EDF0122458C3EF2F
:100E46009432EE6480948050109000D1E004F070EB
:100E56000F9000D0E004F08007E49000D0F0A3F0FB
:100E66009000D0E0FEA3E0FF7C007D14121556D35F
:100E7600EF9458EE648094824009E49000C4F0A395
:100E8600F08025D3EF942CEE64809481400B900083
:100E9600C4E4F0A374C8F0800F9000C6E0FFA3E09E
:100EA6009000C4CFF0A3EFF07F0112235BAC06AD38
:100EB60007E41213129000841216DE7F007E407D36
:100EC6004E7C45900084E0F8A3E0F9A3E0FAA3E0A5
:100ED600FB121167E4FBFA798078451212709000D4
:100EE600841216DEE4FBFA797A7844900084E0FCFA
:100EF600A3E0FDA3E0FEA3E0FF1212707433FBFA39
:100F0600F978411211679000841216DE900084E091
:100F1600FCA3E0FDA3E0FEA3E0FF12134B9000D874
:100F26001216DE9000DC7402F0A37408F07D017FD7
:100F36005C12193BE4FFFE7D207C41900084E0F8C2
:100F4600A3E0F9A3E0FAA3E0FB12116712134B7CAE
:100F5600007D0A121556AE04AF05EE3395E0FDFC92
:100F66009000D81216DE9000DC7401F0A37408F02D
:100F76007D017F6E12193B9000D0E0FEA3E0FF7C5E
:100F8600007D14121556EE3395E0FDFC9000D81244
:100F960016DE9000DC7403F0A37408F07D027F6215
:100FA60012193B900006E0600BA3E06007E4900096
:100FB60006F0A3F0900006E0FF604E9000C5E02F1B
:100FC600F09000C4E03400F0D3A3E094C29000C4D3
:100FD600E0940140077401F0A374C2F09000C4E0ED
:100FE600FEA3E0FFA3EEF0A3EFF0E4FCFD9000D833
:100FF6001216DE9000DC7403F0A37408F0E4FD7FA3
:101006006212193BE4900006F0900007E0FF604C86
:10101600C39000C5E09FFF9000C4E09400FEF0A3DB
:10102600EFF0C3EE94005007E49000C4F0A3F090F4
:1010360000C4E0FEA3E0FFA3EEF0A3EFF0E4FCFDA6
:101046009000D81216DE9000DC7403F0A37408F04A
:10105600E4FD7F6212193BE4900007F09000D5E0B2
:09106600FF7E001223F1020B6A67
:1023310043BA8043B26053B19F4392405391BF432C
:1023410092304391305392FC43910353B2F353B112
:0A235100F3D2B3D2B2D295D2942297
:0D000E0090FEA8743FF075DE0F75BC8022D7
:10235B0043BC4053BCF0EF42BC0000E5BC30E5FB96
:10236B0053BCDF85BDA0AFBDEF75F010A4FFAEF081
:0A237B00E5BEC4540FFDEF4DFF2234
:081A1A009000D6EEF0A3EFF0FE
:101A2200E4A3F0F09000D8E0FFC39409504AEF75A8
:101A3200F00CA42408F582E43400F583E0FEA3E070
:101A4200FF9000D6E0FCA3E0FDC39FEC9E4021A3E3
:101A5200E075F00CA42414F582E43400F583E0FE72
:101A6200A3E0FFC3ED9FEC9E50069000D6A380102A
:101A72009000D8E004F080AC9000D6E0FCA3E0FD3A
:101A8200E41213129000D8E075F00CA4240CF58235
:101A9200E43400F583E0F8A3E0F9A3E0FAA3E0FB65
:101AA2001211679000D8E075F00CA42410F582E4BE
:101AB2003400F583E0F8A3E0F9A3E0FAA3E0FB1217
:051AC200107612134B29
:011AC70022FC
:081AC8009000D6EEF0A3EFF050
:101AD000E4A3F0F09000D8E0FFC39409504AEF75FA
:101AE000F00CA4240AF582E43400F583E0FEA3E0C0
:101AF000FF9000D6E0FCA3E0FDC39FEC9E4021A335
:101B0000E075F00CA42416F582E43400F583E0FEC1
:101B1000A3E0FFC3ED9FEC9E50069000D6A380107B
:101B20009000D8E004F080AC9000D6E0FCA3E0FD8B
:101B3000E41213129000D8E075F00CA42410F58282
:101B4000E43400F583E0F8A3E0F9A3E0FAA3E0FBB6
:101B50001210729000D8E075F00CA4240CF582E409
:101B60003400F583E0F8A3E0F9A3E0FAA3E0FB1268
:051B7000127012134B7E
:011B7500224D
:081727009000D6EAF0A3EBF0FC
:10172F00E4FBFAC3ED9FFFEC9EFEA3F0A3EFF09056
:10173F000003E02FF0900002E03EF0D3A3E094B05E
:10174F00900002E06480948440077404F0A374B0A6
:10175F00F0C3900003E09450900002E06480947B0B
:10176F00500774FBF0A37450F0900000E0FEA3E06C
:10177F00FFC39000D9E09FFF9000D8E09E9000DA61
:10178F00F0A3EFF0900002E0FCA3E0FDEC121312C7
:10179F007B857AEB7951783F121167C004C005C081
:1017AF0006C0079000D8E0FCA3E0FDEC121312E492
:1017BF00FBFA79807841121167A804A905AA06AB34
:1017CF0007D007D006D005D004121076C004C0058C
:1017DF00C006C0079000DAE0FCA3E0FDEC12131284
:1017EF007433FBFAF9783F121167A804A905AA060A
:1017FF00AB07D007D006D005D00412107612134BCA
:10180F00AA06AB079000D8E0FFA3E0900000CFF04E
:10181F00A3EFF09000D6E0FEA3E0FFC39BEA648045
:0F182F00F8EE6480985004AA06AB07AE02AF0330
:01183E002287
:03000B00022008C8
:10200800C0E0C083C082C0D090008220B305E00445
:10201800F08002E4F090008320B205E004F0800232
:10202800E4F0900082E0D394504008E4F090000679
:10203800E004F0900083E0D394504008E4F090006E
:0D20480007E004F0D0D0D082D083D0E03289
:10243200438E805389F0758AC0758C63C28DD28CAD
:03244200D2A922FA
:03001B00021EE1E1
:101EE100C0E0C083C082C0D075D000C000C006C0B1
:101EF10007900080E0FEA3E0FFD3900005E09FEE95
:101F01006480F8900004E06480985006D2B6C2B5AF
:101F11008004C2B6D2B5900005E004F070069000CE
:101F210004E004F0D3900005E094D0900004E06454
:101F31008094874004E4F0A3F0D007D006D000D00D
:081F4100D0D082D083D0E03241
:10244500438E8053890F758B18758DFCC28FD28E84
:03245500D2AB22E5
:10245800C3EE648094805008C3E49FFFE49EFE228C
:012468002251
:10001E000000000000000000002F0000000007009C
:10002E00070000147F147F1400242A7F2A12006216
:10003E0064081323003649552250000005030000C2
:10004E0000001C224100000041221C000014083E4A
:10005E0008140008083E0808000000A06000000810
:10006E000808080800006060000000201008040264
:10007E00003E5149453E0000427F40000042615122
:10008E004946002141454B31001814127F100027BC
:10009E0045454539003C4A4949300001710905037F
:1000AE0000364949493600064949291E00003636B0
:1000BE000000000056360000000814224100001413
:1000CE0014141414000041221408000201510906F0
:1000DE0000324959513E007C1211127C007F494971
:1000EE004936003E41414122007F4141221C007FA2
:1000FE0049494941007F09090901003E4149497AB0
:10010E00007F0808087F0000417F41000020404129
:10011E003F01007F08142241007F40404040007F95
:10012E00020C027F007F0408107F003E4141413ED9
:10013E00007F09090906003E4151215E007F091921
:10014E0029460046494949310001017F0101003F1E
:10015E004040403F001F2040201F003F4038403F9E
:10016E000063140814630007087008070061514902
:10017E00454300007F41410000552A552A55000095
:10018E0041417F0000040201020400404040404013
:10019E00000001020400002054545478007F4844AB
:1001AE00443800384444442000384444487F0038E2
:1001BE005454541800087E0901020018A4A4A47C0B
:1001CE00007F080404780000447D400000408084D5
:1001DE007D00007F102844000000417F4000007C1D
:1001EE0004180478007C0804047800384444443829
:1001FE0000FC242424180018242418FC007C080475
:10020E00040800485454542000043F444020003C4D
:10021E004040207C001C2040201C003C4030403CD4
:10022E00004428102844001CA0A0A07C0044645464
:10023E004C441414141414140000000000000000A8
:10024E000000000000000000000000F800000000A8
:10025E00000000333000000000100C06100C0600E9
:10026E00000000000000000040C07840C078400050
:10027E00043F04043F040400007088FC08300000B2
:10028E00001820FF211E0000F008F000E01800000A
:10029E0000211C031E211E0000F0088870000000C3
:1002AE001E2123241927211010160E000000000015
:1002BE000000000000000000000000E01804020032
:1002CE00000000071820400000020418E0000000A3
:1002DE000040201807000000404080F080404000A1
:1002EE000202010F01020200000000F000000000F7
:1002FE000101011F010101000000000000000000CB
:10030E0080B070000000000000000000000000003F
:10031E0000010101010101010000000000000000C8
:10032E000030300000000000000000008060180463
:10033E00006018060100000000E010080810E00040
:10034E00000F102020100F00001010F80000000009
:10035E000020203F20200000007008080888700050
:10036E0000302824222130000030088888483000D0
:10037E000018202020110E000000C02010F80000F0
:10038E0000070424243F240000F808888808080089
:10039E000019212020110E0000E01088881800009E
:1003AE00000F112020110E0000380808C838080070
:1003BE000000003F000000000070880808887000F0
:1003CE00001C222121221C0000E010080810E00071
:1003DE000000312222110F00000000C0C0000000FA
:1003EE00000000303000000000000080000000001F
:1003FE000000806000000000000080402010080017
:10040E0000010204081020004040404040404000DF
:10041E0004040404040404000008102040800000BA
:10042E000020100804020100007048080808F000BF
:10043E000000003036010000C030C828E810E0008F
:10044E000718272423140B000000C038E00000001A
:10045E00203C23020227382008F888888870000084
:10046E00203F202020110E00C03008080808380058
:10047E00071820202010080008F808080810E000CF
:10048E00203F202020100F0008F88888E808100070
:10049E00203F20202320180008F88888E808100044
:1004AE00203F200003000000C0300808083800007C
:1004BE0007182020221E020008F808000008F8087D
:1004CE00203F210101213F20000808F80808000004
:1004DE000020203F2020000000000808F808080037
:1004EE00C08080807F00000008F888C028180800AF
:1004FE00203F20012638200008F8080000000000E8
:10050E00203F20202020300008F8F800F8F80800DE
:10051E00203F003F003F200008F830C00008F808D8
:10052E00203F200007183F00E01008080810E000E8
:10053E000F10202020100F0008F808080808F000FF
:10054E00203F210101010000E01008080810E00022
:10055E000F18242438504F0008F8888888887000B7
:10056E00203F2000030C3020007088080808380057
:10057E000038202121221C00180808F8080818004D
:10058E000000203F2000000008F808000008F808CE
:10059E00001F202020201F000878880000C838087F
:1005AE00000007380E010000F80800F80008F800F7
:1005BE00033C0700073C0300081868808068180891
:1005CE0020302C03032C30200838C800C83808000F
:1005DE000000203F2000000010080808C83808005E
:1005EE002038262120201800000000FE0202020002
:1005FE000000007F40404000000C30C000000000B2
:10060E00000000010638C00000020202FE000000D9
:10061E00004040407F00000000000402020204007F
:10062E0000000000000000000000000000000000BC
:10063E0080808080808080800002020400000000A4
:10064E00000000000000000000008080808000009C
:10065E000019242222223F2008F80080800000008A
:10066E00003F112020110E0000000080808000004D
:10067E00000E112020201100000000808088F8005C
:10068E00000E112020103F2000008080808000008E
:10069E00001F222222221300008080F088888818F2
:1006AE000020203F202000000000808080808000FD
:1006BE00006B94949493600008F800808080000092
:1006CE00203F210000203F2000809898000000006D
:1006DE000020203F2020000000000080989800009D
:1006EE0000C08080807F000008F8000080808000BD
:1006FE00203F24022D302000000808F800000000E2
:10070E000020203F2020000080808080808080009C
:10071E00203F20003F20003F80800080808000002E
:10072E00203F210000203F200000808080800000BC
:10073E00001F202020201F008080008080000000ED
:10074E0080FFA12020110E0000000080808080001C
:10075E00000E112020A0FF8080808000808080000D
:10076E0020203F212000010000008080808080003A
:10077E000033242424241900008080E080800000AF
:10078E000000001F202000008080000000808000FC
:10079E00001F202020103F2080808000008080805D
:1007AE0000010E30080601008080008000808080ED
:1007BE000F300C030C300F00008080008080800012
:1007CE000020312E0E31200080808000008080803D
:1007DE0080818E70180601000080808080808000ED
:1007EE000021302C2221300000000000807C02020B
:1007FE0000000000003F404000000000FF0000002D
:10080E0000000000FF0000000002027C80000000DB
:10081E000040403F000000000006010102020404F7
:10082E0000000000000000000000F010101010FF8B
:10083E0010101010F000000000000F04040404FF5C
:10084E00040404040F0000004040405F55555575E8
:10085E005555555F404040000040200F09498979A9
:10086E000909090F2040000000FE02424ACA4A4A06
:10087E00CA4A4A4202FE000000FF40504C4340402C
:10088E004F50505C40FF00000000F888888888FFB9
:10089E0088888888F800000000001F080808087F74
:1008AE00888888889F80F00080828282828282E29D
:1008BE00A2928A8682808000000000000040807F25
:1008CE000000000000000000101010FF10900888BB
:1008DE008888FF88888808000444827F01808040D1
:1008EE00432C1028468180000010101010D030FFCD
:1008FE0030D0121C1010000010080402010000FF7E
:08090E000000010204081000C2
:040003007F06DFFE97
:0100070022D6
:0F248B00D295D294120003C294120003C295227C
:0C249A00C294D295120003D294020003F9
:10246900C295A2019294120003D295120003C2955B
:012479002240
:1021EF00E49000EFF0A3F0D2947F01FE12247AD294
:1021FF00957F017E0012247A30941F9000F0E00446
:10220F00F070069000EFE004F0D39000F0E094E25D
:0D221F009000EFE0940440E0D322C295C38C
:01222C00228F
:0221B000AD0779
:1021B200C295C2941200037C077E007401A8040831
:1021C2008005C333CE33CED8F9FFEDFBEF5B60045D
:1021D200D2948002C294120003D295120003C295D7
:0C21E2001200031CC3EC6480948050CDFC
:0121EE0022CE
:1022D100E4FE7D07C295120003D29530940DA80546
:1022E1007401088002C333D8FC4EFE1200031DC3E3
:1022F100ED6480948050DDA2009201122469AF0642
:0123010022B9
:10212D00F583E5822FF582E5833EF583E493FF7D0C
:01213D0001A0
:10213E009000EDEFF0A3EDF012248B7F781221B01A
:10214E001221EF9000EEE060047F408002E4FF1267
:10215E0021B01221EF9000EDE0FF1221B01221EF1D
:03216E0002249AAE
:1023D500900104EFF07006FD7FA612213E900104E6
:0C23E500E0B40107E4FD7FA712213E22B6
:10238500900105EFF0700DFD7FC812213EE4FD7F41
:10239500A112213E900105E0B4010EE4FD7FC012BB
:0A23A500213EE4FD7FA012213E223C
:07229F00E0FFA3E0FD04F0E5
:1022A6009000ECEFF0ED24B0FFE4FD12213E90002B
:1022B600ECE054F0C4540F4410FFE4FD12213E90AC
:0B22C60000ECE0540FFFE4FD02213E9D
:10240800E4FD7F8D12213EE4FD7F1412213EE4FDA0
:052418007FAF02213E30
:10241D00E4FD7F8D12213EE4FD7F1012213EE4FD8F
:05242D007FAE02213E1C
:1020E700E49000D6F09000D6E0FFC394085036EF96
:1020F70024B0FFE4FD12213EE4FDFF12213EE4FD82
:102107007F1012213EE49000D7F07D01E4FF1221F9
:102117003E9000D7E004F0E0C3948040ED9000D6F5
:05212700E004F080C09F
:01212C002290
:08183F009000E2EFF0A3EDF0D0
:10184700E49000E6F09000E5E0FFC313FD9000E7A9
:10185700F0E4A3F0A3F0EFB40809A3E4F0A374063F
:10186700F080319000E5E0FF131313541FF58275E4
:101877008300EF54077E0060047F0180027F00EF42
:101887002582FFEE3583FE7C001214EF9000EAEE0E
:10189700F0A3EFF0EB24E09000E6F09000E2E0FF29
:1018A700A3E0FD1222A6E49000E8F0A3F09000EA7E
:1018B700E0FCA3E0FD9000E8E0FEA3E0FFC39DEE9F
:1018C7009C50709000E7E0FD7C00121501ED4C7014
:1018D7000E9000E5E0640860069000E212229F90F7
:1018E70000E5E0B4081A9000E8E0FEA3E0FF9000EE
:1018F700E6E075F006A4241EF582E5F03400801FAB
:101907009000E5E0B4102C9000E8E0FEA3E0FF9023
:1019170000E6E075F010A42446F582E5F0340212E3
:10192700212D9000E9E004F070069000E8E004F053
:031937000218B4DF
:01193A00228A
:082055009000E2EFF0A3EDF0B2
:10205D00A31216EA000000019000E3E0FF14F0EF78
:10206D006020A3E0F8A3E0F9A3E0FAA3E0FB900061
:10207D00E2E0FFE4FCFDFE1215A29000E41216DE74
:10208D0080D69000E4E0FCA3E0FDA3E0FEA3E0FF1A
:01209D002220
:08193B009000D6EFF0A3EDF0DF
:10194300E49000E0F0A3F09000DDE0B4080690001E
:10195300E07402F0E49000DEF09000DCE0FF900021
:10196300DEE0FEC39F4003021A19C3EF9E14FD7FFE
:101973000A122055A804A905AA06AB079000D8E0CF
:10198300FCA3E0FDA3E0FEA3E0FF12162DE47B0A17
:10199300FAF9F812162D9000DFEBF09000E1E070F9
:1019A3003C9000DCE014FF9000DEE0FEC39F502D6E
:1019B300A3E070239000DDE0FCC313FF9000E0E0A0
:1019C3002F8EF0A4FF9000D6E02FFFA3E0FD900040
:1019D300E5ECF07B2080339000E17401F09000DDB2
:1019E300E0FEC313FF9000E0E02FFF9000DEE0FD78
:1019F300EF8DF0A4FF9000D6E02FFFA3E0FD900051
:101A0300DFE02430FB9000E5EEF012183F9000DE9B
:061A1300E004F002195C82
:011A190022AA
:101E71009000D6EFF0A3EDF0A3EBF0A3EAF0A3E915
:011E8100F070
:101E8200E49000DCF09000D8E0FBA3E0FAA3E0F9D4
:101E92009000DCE0F5827583001214C2604090006D
:101EA200D6E0FFA3E0FD9000DCE0FE04F08E827538
:101EB20083001214C2FB9000DBE09000E5F01218E0
:101EC2003F9000DBE0FFB408099000D6E02406F062
:0E1ED20080B3EFC313FF9000D6E02FF080A77F
:011EE00022DF
:0B1CB6009000FCEFF0A3EDF0A3EBF0BA
:101CC100A3E0FF131313541FFD7C00EF54077E00A4
:101CD10060047F0180027F00EF2DFFEE3CFE90004B
:101CE100FFE0FD7C001214EF900102EEF0A3EFF093
:101CF100E4900100F0A3F0900102E0FCA3E0FD906C
:101D01000100E0FEA3E0FFC39DEE9C50439000FF65
:101D1100E0FD7C00121501ED4C70069000FC1222D2
:101D21009F9000FFE0B41028A3E0FEA3E0FF900025
:101D3100FEE0C43354E02436F582E4340812212D48
:101D4100900101E004F070AF900100E004F080A781
:011D5100226F
:0B1D52009000F1EFF0A3EDF0A3EBF028
:101D5D00E49000F8F0A3F09000F4E0FF1313135497
:101D6D001FFEEF540760047F0180027F00EE2F906D
:101D7D0000F4F0E49000FAF09000F4E0FF9000FA27
:101D8D00E0FEC39F50519000F1E0FFA3E0FDEE2D6A
:101D9D00FD1222A6E49000FBF09000F3E0FF90000E
:101DAD00FBE0C39F50299000F5E0FBA3E0FAA3E010
:101DBD00F9A3E475F00112158C85F082F5831214E8
:101DCD00C2FF7D0112213E9000FBE004F080CA901D
:071DDD0000FAE004F080A110
:011DE40022DC
:0524BE00E4FD02213ED7
:101C1700C2967FC87E001223F1D2967FAE1224BEF1
:101C27007FA81224BE7F1F1224BE7FD31224BEE4D6
:101C3700FF1224BE7F401224BE7FA01224BE7FC0A5
:101C47001224BE7F811224BE7F7F1224BE7FA4127E
:101C570024BE7FA61224BE7FD51224BE7F80122405
:101C6700BE7F8D1224BE7F141224BE7F2E1224BE87
:101C77007F201224BE7F101224BE7FDA1224BE7F7B
:101C8700021224BE7FD91224BE7F221224BE7FDB1C
:101C97001224BE7F201224BE7FB01224BEE4FF129E
:0F1CA70024BE7F101224BE7FAF1224BE0220E79E
:1023F1007DA07C0FED1D70011C144C70F7EF1F7058
:06240100011E144E70EAFA
:0124070022B2
:10247A007C007D051214EFEF1F70011E144E70F7D9
:01248A00222F
:102302009000DAEFF0A3EDF012248B7FD21221B00D
:102312001221EF9000DAE0FF1221B01221EF9000BB
:0F232200DBE0FF1221B01221EF12249A7F00227C
:05222D009000D8EFF065
:1022320012248B7FD21221B01221EF9000D8E0FF3E
:102242001221B01221EF12248B7FD31221B012215E
:10225200EFD2001222D19000D9EFF012249A90000E
:03226200D9E0FFC1
:012265002256
:0C24A600EF33333354F8FD7F1B02230298
:0C24B200EF33333354F8FD7F1C0223028B
:10209E00E4FDC3EF94BCEE940040030D8036C3EF15
:1020AE009462EE940040047D028029C3EF942AEEE0
:1020BE00940040047D03801CC3EF9414EE94004002
:1020CE00047D04800FC3EF940AEE940040047D0556
:0920DE0080027D067F1A02230234
:081FAD009000D7EEF0A3EFF065
:101FB500D394E8EE9403400A9000D77403F0A37419
:101FC500E8F0C39000D8E094049000D7E094005066
:101FD50006E4F0A37404F09000D7E0FCA3E0FD7ED6
:101FE500037FE8121501EF14A3F0FD7F19122302F8
:101FF5009000D9EFF09000D7E0C313FEA3E013FFE4
:0320050002209E18
:101F49007D807F6B1223027F647E001223F1E4FD02
:101F59007F6B1223027F031224A6E4FF1224B27FAF
:101F6900327E00121FADE4FD7F38122302E4FD7FAB
:101F79006A1223027DFF7F231223027D807F37129D
:101F890023027F7512222D9000D6EFF07D017F6B21
:101F9900122302E4FD7F6C1223027FC87E00121F08
:031FA900AD7F0009
:011FAC002212
:0523AF009000D6EFF0E4
:1023B40012222D9000D7EFF09000D6E004FF1222F5
:1023C4002DAD079000D7E0FE7C00E42DFFEC3EFE2F
:0123D40022E6
:102266007F4112222D900106EFF07F4212222DAD02
:1022760007900106E0FE7C00E42DFFEC3EFEAD0774
:10228600FC121312E4FBFA79AA78431212707BB897
:092296007A1E79127842021076DA
:10106F000213B7E86480F8E933E83360110460F0E5
:10107F00ED33EC337009E8FCE9FDEAFEEBFF2204E7
:10108F0060DED3EB9FEA9EE99DE8C2E78CF0C2F7E2
:10109F0095F0400CE8CCF8E9CDF9EACEFAEBCFFBAE
:1010AF0012138285D0F05804700320D5B3E8047072
:1010BF00075002B2D50213C192D5EC0460F7E4CC0D
:1010CF00C0E0C398F8603B94186008400DD0E0FB77
:1010DF00021399E4FBFAC9FC8028E830E406E4C95E
:1010EF00FBE4CAFCE830E305E4C9CACBFCE85407CB
:1010FF006010F8C3E913F9EA13FAEB13FBEC13FCD6
:10110F00D8F130F52FC3E49CFCEF9BFFEE9AFEED78
:10111F0099FDD0E0FBEF4E4D4C701222DB03021312
:10112F00BEEC2CFCEF33FFEE33FEED33FDED30E77D
:10113F00EB021399EF2BFFEE3AFEED39FDD0E0FBFA
:10114F0050130BBB00030213C1ED13FDEE13FEEFA3
:08115F0013FFEC13FC021399CD
:10116700EC4D6011E8497017ED33EC3304600DE482
:10117700FCFFFEFD22E933E8330470F80213B712CF
:10118700138258046009E4CC2481500628500902D0
:1011970013C12840030213BEC0E0EB4A7044B98074
:1011A70006D0E0FB0213ADEF4E701CBD8008EBFFCD
:1011B700EAFEE9FD80EBE98DF0A4FEE5F0021250AE
:1011C700E9CDF9EAFEEBFFEF89F0A4FCE5F0CE8963
:1011D700F0A42EFFE435F0CD89F0A42DFEE435F020
:1011E7008067EF4E7005BD80D780C3EF8BF0A4AC4E
:1011F700F0EE8BF0A42CFCE435F0F8EF8AF0A42C89
:10120700E5F038FCE433CB8DF0A42CFCE5F03BF89B
:10121700EE8AF0A42CFCE5F038F8E433CF89F0A48B
:101227002CFCE5F038CF3400CE89F0A42FFFE5F091
:101237003EFEE433C98DF0A42EFEE5F039CD8AF0E9
:10124700A42FFFE5F03EFEE43DFD33D0E0FB500761
:101257000BBB000F0213C1EC2CFCEF33FFEE33FE88
:06126700ED33FD021399B6
:10126D000213C1EC5D046005E8590470030213B765
:10127D00121382580460F6EC4860F2EC7004FDFE27
:10128D00FF22C860DB2481C85009C3986002500654
:10129D000213BE9850CAF582E9294B4A7005AB82FC
:1012AD000213AD75F0007C1A7880C3EF9BEE9AEDBA
:1012BD0099400DC3EF9BFFEE9AFEED99FDE842F0CC
:1012CD00DC23ACF0D0E0FFD0E0FED0E0FDAB82201F
:1012DD00E7101BEB60BAEC2CFCEF33FFEE33FEEDA9
:1012ED0033FD021399E803F830E705C0F075F000FF
:1012FD00EF2FFFEE33FEED33FD40B830E7C280AA8D
:10130D0075F020800E75F010800575F0087D007E5B
:10131D00007F003392D530D5031216BFEC33401049
:10132D00EF33FFEE33FEED33FDEC33FCD5F0ED2264
:0E133D00E5F0247EA2D513CC92E7CDCEFF22A0
:10134B00EDD2E7CD33EC3392D524814006E4FFFE9A
:10135B00FDFC22FCE4CFCECDCC24E0501174FF80F9
:10136B00EDC3CC13CCCD13CDCE13CECF13CF047096
:07137B00F030D5DE0216BFC1
:10138200E9D2E7C933E833F892D5EDD2E7CD33ECB1
:0713920033FC5002B2D5222A
:10139900EC30E7100FBF000C0EBE00080DBD0004B5
:1013A9000BEB6014A2D5EB13FCED92E7FD2274FF61
:1013B900FCFDFEFF22E480F8A2D574FF13FC7D80BA
:0313C900E480EFCE
:03000000021DE5F9
:0C1DE500787FE4F6D8FD758120021E2CEA
:1013CC00E709F608DFFA8046E709F208DFFA803E03
:1013DC0088828C83E709F0A3DFFA8032E309F608F0
:1013EC00DFFA8078E309F208DFFA807088828C8358
:1013FC00E309F0A3DFFA806489828A83E0A3F6080C
:10140C00DFFA805889828A83E0A3F208DFFA804CE5
:10141C0080D280FA80C680D4806980F280338010BC
:10142C0080A680EA809A80A880DA80E280CA803325
:10143C0089828A83ECFAE493A3C8C582C8CCC5839D
:10144C00CCF0A3C8C582C8CCC583CCDFE9DEE7806D
:10145C000D89828A83E493A3F608DFF9ECFAA9F0EC
:10146C00EDFB2289828A83ECFAE0A3C8C582C8CC42
:10147C00C583CCF0A3C8C582C8CCC583CCDFEADE5B
:10148C00E880DB89828A83E493A3F208DFF980CCBD
:10149C0088F0EF60010E4E60C388F0ED2402B404B6
:1014AC000050B9F582EB2402B4040050AF2323455D
:0614BC00822390141C7352
:1014C200BB010CE58229F582E5833AF583E02250DF
:1014D20006E92582F8E622BBFE06E92582F8E22229
:0D14E200E58229F582E5833AF583E4932243
:1014EF00EF8DF0A4A8F0CF8CF0A428CE8DF0A42E11
:0214FF00FE22CB
:10150100BC000BBE0029EF8DF084FFADF022E4CCCE
:10151100F875F008EF2FFFEE33FEEC33FCEE9DEC97
:10152100984005FCEE9DFE0FD5F0E9E4CEFD22EDDD
:10153100F8F5F0EE8420D21CFEADF075F008EF2F27
:10154100FFED33FD4007985006D5F0F222C398FD18
:051551000FD5F0EA22B5
:10155600C2D5EC30E709B2D5E4C39DFDE49CFCEEB0
:1015660030E715B2D5E4C39FFFE49EFE121501C312
:10157600E49DFDE49CFC800312150130D507C3E40D
:061586009FFFE49EFE221F
:10158C00A3F8E0C5F025F0F0E58215827002158312
:06159C00E0C838F0E8226F
:1015A200E88FF0A4CC8BF0A42CFCE98EF0A42CFCE8
:1015B2008AF0EDA42CFCEA8EF0A4CDA8F08BF0A466
:1015C2002DCC3825F0FDE98FF0A42CCD35F0FCEBC5
:1015D2008EF0A4FEA9F0EB8FF0A4CFC5F02ECD398A
:0F15E200FEE43CFCEAA42DCE35F0FDE43CFC22F7
:1015F10075F008758200EF2FFFEE33FECD33CDCCB1
:1016010033CCC58233C5829BED9AEC99E582984033
:101611000CF582EE9BFEED9AFDEC99FC0FD5F0D610
:10162100E4CEFBE4CDFAE4CCF9A88222B800C1B93A
:101631000059BA002DEC8BF084CFCECDFCE5F0CB78
:10164100F97818EF2FFFEE33FEED33FDEC33FCEBB1
:1016510033FB10D703994004EB99FB0FD8E5E4F96C
:10166100FA227818EF2FFFEE33FEED33FDEC33FC59
:10167100C933C910D7059BE99A4007EC9BFCE99A4D
:10168100F90FD8E0E4C9FAE4CCFB2275F010EF2F92
:10169100FFEE33FEED33FDCC33CCC833C810D70792
:1016A1009BEC9AE899400AED9BFDEC9AFCE899F8CD
:0E16B1000FD5F0DAE4CDFBE4CCFAE4C8F92260
:0E16BF00C3E49FFFE49EFEE49DFDE49CFC223C
:1016CD00EB9FF5F0EA9E42F0E99D42F0E89C45F073
:0116DD0022EA
:0C16DE00ECF0A3EDF0A3EEF0A3EFF0227F
:1016EA00A8828583F0D083D08212170112170112C3
:1016FA001701121701E473E493A3C583C5F0C583E8
:10170A00C8C582C8F0A3C583C5F0C583C8C582C849
:01171A0022AC
:0C171B00A42582F582E5F03583F58322D9
:101DF100020916E493A3F8E493A34003F68001F2E9
:101E010008DFF48029E493A3F85407240CC8C333F2
:101E1100C4540F4420C8834004F456800146F6DFC1
:101E2100E4800B0102040810204080901B76E47EC0
:101E3100019360BCA3FF543F30E509541FFEE493B6
:101E4100A360010ECF54C025E060A840B8E493A37D
:101E5100FAE493A3F8E493A3C8C582C8CAC583CAA8
:101E6100F0A3C8C582C8CAC583CADFE9DEE780BE60
:011C160000CD
:00000001FF
