:102159005365743A00506F773A00546D703A000035
:102169000000000000000000000000000000000066
:0321790000000063
:101AA40041007E0041007F00410004004100050028
:101AB4006078000600000000000000000000000044
:101AC400003200640000000000000000006400C850
:101AD40000000000000000000096012C000000003F
:101AE4000000000000C80190000000000000000099
:101AF40000FA01F40000000000000000012C02586C
:101B04000000000000000000015E02EE0000000082
:101B1400000000000190032000000000000000000D
:101B240001C2035200000000000000004200000057
:061B340000420002000067
:100F8800E4900080F0A3F0A3120F4B00000000E4EF
:100F9800900086F0A3F078887C007D017BFF7A21A1
:100FA8007968FE7F14120D339000AC120F4B0000CD
:100FB80000009000B07401F0A3745EF0E49000B4F7
:100FC800F0A3F0A3F0A3F0A3F0A3F09000BCF0907E
:100FD80000BCE0FF75F00CA42408F582E43400F5A9
:100FE80083E0FCA3E0FDEF75F00CA42414F582E483
:100FF8003400F583E0FEA3E0C39DFDEE9CFC120BDC
:10100800A9E4FBFA79487842120B079000BCE0FB90
:1010180075F00CA4240AF582E43400F583120F3F1E
:10102800EB75F00CA42406F582E43400F583E0FCAB
:10103800A3E0FDEC120BA99000BCE075F00CA42411
:101048000AF582E43400F583E0F8A3E0F9A3E0FAB6
:10105800A3E0FB1209FEC004C005C006C00790004B
:10106800BCE075F00CA42408F582E43400F583E0B4
:10107800FCA3E0FDEC120BA9D003D002D001D000F4
:101088001209099000BCE075F00CA4240EF582E466
:101098003400F583120F3F9000BCE004F0E06409CF
:1010A8006003020FD712213512196612224112224B
:1010B8001D121CCAD2AFC2B67BFF7A2179599000A3
:1010C800C27408F0E4FD7F48121C5A7BFF7A21792C
:1010D8005E9000C27408F07D017F48121C5A7BFFA5
:1010E8007A2179639000C27408F07D027F48121C4F
:1010F8005A9000B0E0FEA3E0FFE4FCFD9000BF12B0
:101108000F3F9000C37403F0A37408F0E4FD7F66FA
:1011180012172B9000BAE0FEA3E0FFEE3395E0FD36
:10112800FC9000BF120F3F9000C37403F0A3740833
:10113800F07D027F6612172B900080E0FEA3E0FF8F
:10114800C3900087E09F900086E09E5006D2B6C20A
:10115800B58004C2B6D2B57F197E00122230900045
:1011680087E004F07006900086E004F0900086E0C6
:10117800B409C5A3E0B4C5C0E4900086F0A3F07F2D
:101188004512210F9000B4EEF0A3EFF0900080E03C
:10119800FEA3E0FFC374C49FFF74099EFED3EF94BF
:1011A800E8EE940340259000B4E0FEA3E0FFEE33A0
:1011B80095E0FDFC9000BF120F3F9000C37405F04E
:1011C800A37408F07D027F0A12172B9000B0E0FE8E
:1011D800A3E0FF12180A9000B2EEF0A3EFF090001F
:1011E80088E0FCA3E0FDA3E0FEA3E0FF90009C12D2
:1011F8000F3F900088E0FCA3E0FDA3E0FEA3E0FF22
:101208009000A0120F3F9000A4120F4B00000000A6
:10121800E49000BCF09000BCE0FFC39405400302DA
:101228001310EF25E025E02488F582E43400F583E7
:10123800E0FCA3E0FDA3E0FEA3E0FF9000A0E0F83F
:10124800A3E0F9A3E0FAA3E0FBD3120F2E4022900B
:1012580000BCE025E025E02488F582E43400F5832D
:10126800E0FCA3E0FDA3E0FEA3E0FF9000A0120FC6
:101278003F9000BCE025E025E02488F582E43400B6
:10128800F583E0FCA3E0FDA3E0FEA3E0FF90009C53
:10129800E0F8A3E0F9A3E0FAA3E0FBC3120F2E5095
:1012A800229000BCE025E025E02488F582E43400A3
:1012B800F583E0FCA3E0FDA3E0FEA3E0FF90009C23
:1012C800120F3F9000A4E0FCA3E0FDA3E0FEA3E022
:1012D800FF9000BCE025E025E02488F582E4340096
:1012E800F583E0F8A3E0F9A3E0FAA3E0FBEF2BFF16
:1012F800EE3AFEED39FDEC38FC9000A4120F3F9059
:1013080000BCE004F002121D90009CE0F8A3E0F994
:10131800A3E0FAA3E0FB9000A4E0FCA3E0FDA3E0B7
:10132800FEA3E0C39BFFEE9AFEED99FDEC98FC90BE
:1013380000A0E0F8A3E0F9A3E0FAA3E0FBC3EF9B69
:10134800FFEE9AFEED99FDEC98FCE47B03FAF9F8C0
:10135800120E8E9000A8120F3F9000A8A3A3E0FEE3
:10136800A3E0FF9000B2E0FCA3E0FD7BC47A091281
:10137800151C900080EEF0A3EFF09000A8A3A3E066
:10138800FEA3E0FF1218B8E4FCFD9000BF120F3F67
:101398009000C37403F0A37410F0E4FD7F201217CB
:1013A8002BE4FF1220BBE4FCFD9000ACA3A3E0FA01
:1013B800A3E090008875F004120F7CEA25E025E090
:1013C8002583F583120F3F9000ACA3A3E0FEA3E0B2
:1013D80090008875F004120F7CEE25E025E0258347
:1013E800F583E0FCA3E0FDA3E0FEA3E0FFE47BE4DB
:1013F8007A0CF9F8120E03E4FB7A10F9F8120E8E43
:101408009000ACA3A3E0FAA3E090008875F0041262
:101418000F7CEA25E025E02583F583120F3F900035
:10142800ACE0FCA3E0FDA3E0FEA3E02401FFE43E62
:10143800FEE43DFDE43CFC9000AC120F3FE47F0568
:10144800FEFDFC9000ACE0F8A3E0F9A3E0FAA3E00D
:10145800FBC3120F2E700A9000AC120F4B00000055
:1014680000900004E0600BA3E06007E4900004F043
:10147800A3F0900004E0FF60489000B1E02FF090E6
:1014880000B0E03400F0D3A3E094C29000B0E09440
:101498000140077401F0A374C2F09000B0E0FEA30D
:1014A800E0FFE4FCFD9000BF120F3F9000C37403FF
:1014B800F0A37408F0E4FD7F6612172BE490000493
:1014C800F0900005E0FF7003021140C39000B1E006
:1014D8009FFF9000B0E09400FEF0A3EFF0C3EE94FD
:1014E800005007E49000B0F0A3F09000B0E0FEA335
:1014F800E0FFE4FCFD9000BF120F3F9000C37403AF
:10150800F0A37408F0E4FD7F6612172BE490000541
:04151800F00211408C
:1021350043BA8043B26053B19F43923043913053C9
:1021450092FC43910353B2F353B1F3D2B3D2B2D25B
:0421550095D2942269
:0D22410090FEA8743FF075DE0F75BC802282
:1020BB0043BC4053BCF0EF42BC0000E5BC30E5FB39
:1020CB0053BCDF85BDA0AFBDEF75F010A4FFAEF024
:0A20DB00E5BEC4540FFDEF4DFF22D7
:08180A009000BDEEF0A3EFF029
:10181200E4A3F0F09000BFE0FFC39409504AEF75D3
:10182200F00CA42406F582E43400F583E0FEA3E084
:10183200FF9000BDE0FCA3E0FDC39FEC9E4021A30E
:10184200E075F00CA42412F582E43400F583E0FE86
:10185200A3E0FFC3ED9FEC9E50069000BDA3801055
:101862009000BFE004F080AC9000BDE0FCA3E0FD7E
:10187200E4120BA99000BFE075F00CA4240AF582D3
:10188200E43400F583E0F8A3E0F9A3E0FAA3E0FB77
:101892001209FE9000BFE075F00CA4240EF582E45C
:1018A2003400F583E0F8A3E0F9A3E0FAA3E0FB1229
:0518B200090D120BE21C
:0118B700220E
:0818B8009000BDEEF0A3EFF07B
:1018C000E4A3F0F09000BFE0FFC39409504AEF7525
:1018D000F00CA42408F582E43400F583E0FEA3E0D4
:1018E000FF9000BDE0FCA3E0FDC39FEC9E4021A360
:1018F000E075F00CA42414F582E43400F583E0FED6
:10190000A3E0FFC3ED9FEC9E50069000BDA38010A6
:101910009000BFE004F080AC9000BDE0FCA3E0FDCF
:10192000E4120BA99000BFE075F00CA4240EF58220
:10193000E43400F583E0F8A3E0F9A3E0FAA3E0FBC8
:101940001209099000BFE075F00CA4240AF582E4A6
:101950003400F583E0F8A3E0F9A3E0FAA3E0FB127A
:051960000B07120BE271
:01196500225F
:08151C009000BDEAF0A3EBF022
:10152400E4FBFAC3ED9FFFEC9EFEA3F0A3EFF09063
:101534000003E02FF0900002E03EF0D3A3E094DC3F
:10154400900002E06480948540077405F0A374DC85
:10155400F0C3900003E09424900002E06480947A45
:10156400500774FAF0A37424F0900000E0FEA3E0A6
:10157400FFC39000C0E09FFF9000BFE09E9000C1B9
:10158400F0A3EFF0900002E0FCA3E0FDEC120BA945
:101594007B857AEB7951783F1209FEC004C005C0FF
:1015A40006C0079000BFE0FCA3E0FDEC120BA9E429
:1015B400FBFA79C878411209FEA804A905AA06AB6A
:1015C40007D007D006D005D00412090DC004C00509
:1015D400C006C0079000C1E0FCA3E0FDEC120BA91B
:1015E4007B9A7A997999783F1209FEA804A905AAE9
:1015F40006AB07D007D006D005D00412090D120B94
:10160400E2AA06AB079000BFE0FFA3E0900000CF82
:10161400F0A3EFF09000BDE0FEA3E0FFC39BEE9AC1
:0A1624005004AA06AB07AE02AF03A4
:01162E002299
:03000B00021E4191
:101E4100C0E0C083C082C0D090007E20B305E00412
:101E5100F08002E4F090007F20B205E004F08002FF
:101E6100E4F090007EE0D394504008E4F090000448
:101E7100E004F090007FE0D394504008E4F090003B
:0D1E810005E004F0D0D0D082D083D0E03254
:10221D00438E805389F0758AC0758C63C28DD28CC4
:03222D00D2A92211
:10000E000000000000000000002F000000000700AC
:10001E00070000147F147F1400242A7F2A12006226
:10002E0064081323003649552250000005030000D2
:10003E0000001C224100000041221C000014083E5A
:10004E0008140008083E0808000000A06000000820
:10005E000808080800006060000000201008040274
:10006E00003E5149453E0000427F40000042615132
:10007E004946002141454B31001814127F100027CC
:10008E0045454539003C4A4949300001710905038F
:10009E0000364949493600064949291E00003636C0
:1000AE000000000056360000000814224100001423
:1000BE001414141400004122140800020151090600
:1000CE0000324959513E007C1211127C007F494981
:1000DE004936003E41414122007F4141221C007FB2
:1000EE0049494941007F09090901003E4149497AC0
:1000FE00007F0808087F0000417F4100002040413A
:10010E003F01007F08142241007F40404040007FA5
:10011E00020C027F007F0408107F003E4141413EE9
:10012E00007F09090906003E4151215E007F091931
:10013E0029460046494949310001017F0101003F2E
:10014E004040403F001F2040201F003F4038403FAE
:10015E000063140814630007087008070061514912
:10016E00454300007F41410000552A552A550000A5
:10017E0041417F0000040201020400404040404023
:10018E00000001020400002054545478007F4844BB
:10019E00443800384444442000384444487F0038F2
:1001AE005454541800087E0901020018A4A4A47C1B
:1001BE00007F080404780000447D400000408084E5
:1001CE007D00007F102844000000417F4000007C2D
:1001DE0004180478007C0804047800384444443839
:1001EE0000FC242424180018242418FC007C080485
:1001FE00040800485454542000043F444020003C5E
:10020E004040207C001C2040201C003C4030403CE4
:10021E00004428102844001CA0A0A07C0044645474
:10022E004C441414141414140000000000000000B8
:10023E000000000000000000000000F800000000B8
:10024E00000000333000000000100C06100C0600F9
:10025E00000000000000000040C07840C078400060
:10026E00043F04043F040400007088FC08300000C2
:10027E00001820FF211E0000F008F000E01800001A
:10028E0000211C031E211E0000F0088870000000D3
:10029E001E2123241927211010160E000000000025
:1002AE000000000000000000000000E01804020042
:1002BE00000000071820400000020418E0000000B3
:1002CE000040201807000000404080F080404000B1
:1002DE000202010F01020200000000F00000000007
:1002EE000101011F010101000000000000000000DB
:1002FE0080B0700000000000000000000000000050
:10030E0000010101010101010000000000000000D8
:10031E000030300000000000000000008060180473
:10032E00006018060100000000E010080810E00050
:10033E00000F102020100F00001010F80000000019
:10034E000020203F20200000007008080888700060
:10035E0000302824222130000030088888483000E0
:10036E000018202020110E000000C02010F8000000
:10037E0000070424243F240000F808888808080099
:10038E000019212020110E0000E0108888180000AE
:10039E00000F112020110E0000380808C838080080
:1003AE000000003F00000000007088080888700000
:1003BE00001C222121221C0000E010080810E00081
:1003CE000000312222110F00000000C0C00000000A
:1003DE00000000303000000000000080000000002F
:1003EE000000806000000000000080402010080027
:1003FE0000010204081020004040404040404000F0
:10040E0004040404040404000008102040800000CA
:10041E000020100804020100007048080808F000CF
:10042E000000003036010000C030C828E810E0009F
:10043E000718272423140B000000C038E00000002A
:10044E00203C23020227382008F888888870000094
:10045E00203F202020110E00C03008080808380068
:10046E00071820202010080008F808080810E000DF
:10047E00203F202020100F0008F88888E808100080
:10048E00203F20202320180008F88888E808100054
:10049E00203F200003000000C0300808083800008C
:1004AE0007182020221E020008F808000008F8088D
:1004BE00203F210101213F20000808F80808000014
:1004CE000020203F2020000000000808F808080047
:1004DE00C08080807F00000008F888C028180800BF
:1004EE00203F20012638200008F8080000000000F8
:1004FE00203F20202020300008F8F800F8F80800EF
:10050E00203F003F003F200008F830C00008F808E8
:10051E00203F200007183F00E01008080810E000F8
:10052E000F10202020100F0008F808080808F0000F
:10053E00203F210101010000E01008080810E00032
:10054E000F18242438504F0008F8888888887000C7
:10055E00203F2000030C3020007088080808380067
:10056E000038202121221C00180808F8080818005D
:10057E000000203F2000000008F808000008F808DE
:10058E00001F202020201F000878880000C838088F
:10059E00000007380E010000F80800F80008F80007
:1005AE00033C0700073C03000818688080681808A1
:1005BE0020302C03032C30200838C800C83808001F
:1005CE000000203F2000000010080808C83808006E
:1005DE002038262120201800000000FE0202020012
:1005EE000000007F40404000000C30C000000000C2
:1005FE00000000010638C00000020202FE000000EA
:10060E00004040407F00000000000402020204008F
:10061E0000000000000000000000000000000000CC
:10062E0080808080808080800002020400000000B4
:10063E0000000000000000000000808080800000AC
:10064E000019242222223F2008F80080800000009A
:10065E00003F112020110E0000000080808000005D
:10066E00000E112020201100000000808088F8006C
:10067E00000E112020103F2000008080808000009E
:10068E00001F222222221300008080F08888881802
:10069E000020203F2020000000008080808080000D
:1006AE00006B94949493600008F8008080800000A2
:1006BE00203F210000203F2000809898000000007D
:1006CE000020203F202000000000008098980000AD
:1006DE0000C08080807F000008F8000080808000CD
:1006EE00203F24022D302000000808F800000000F2
:1006FE000020203F202000008080808080808000AD
:10070E00203F20003F20003F80800080808000003E
:10071E00203F210000203F200000808080800000CC
:10072E00001F202020201F008080008080000000FD
:10073E0080FFA12020110E0000000080808080002C
:10074E00000E112020A0FF8080808000808080001D
:10075E0020203F212000010000008080808080004A
:10076E000033242424241900008080E080800000BF
:10077E000000001F2020000080800000008080000C
:10078E00001F202020103F2080808000008080806D
:10079E0000010E30080601008080008000808080FD
:1007AE000F300C030C300F00008080008080800022
:1007BE000020312E0E31200080808000008080804D
:1007CE0080818E70180601000080808080808000FD
:1007DE000021302C2221300000000000807C02021B
:1007EE0000000000003F404000000000FF0000003D
:1007FE0000000000FF0000000002027C80000000EC
:10080E000040403F00000000000601010202040407
:10081E0000000000000000000000F010101010FF9B
:10082E0010101010F000000000000F04040404FF6C
:10083E00040404040F0000004040405F55555575F8
:10084E005555555F404040000040200F09498979B9
:10085E000909090F2040000000FE02424ACA4A4A16
:10086E00CA4A4A4202FE000000FF40504C4340403C
:10087E004F50505C40FF00000000F888888888FFC9
:10088E0088888888F800000000001F080808087F84
:10089E00888888889F80F00080828282828282E2AD
:1008AE00A2928A8682808000000000000040807F35
:1008BE000000000000000000101010FF10900888CB
:1008CE008888FF88888808000444827F01808040E1
:1008DE00432C1028468180000010101010D030FFDD
:1008EE0030D0121C1010000010080402010000FF8E
:0808FE000000010204081000D3
:1021B100D295D2947F017E00122230C2947F017E9B
:0721C10000122230C295223A
:10220900C294D2957F017E00122230D2947F017E42
:04221900000222306D
:10219800C295A20192947F017E00122230D2957FCF
:0921A800017E00122230C29522D2
:101FAA00E49000D6F0A3F0D2947F01FE122230D240
:101FBA00957F017E0012223030941F9000D7E004F2
:101FCA00F070069000D6E004F0D39000D7E094E2D7
:0D1FDA009000D6E0940440E0D322C295C3ED
:011FE70022D7
:051D32009000D6EFF067
:101D3700C295C2947F017E001222309000D77407AB
:101D4700F09000D7E0FFC36480948040417E007428
:101D570001A807088005C333CE33CED8F9FF90001A
:101D6700D6E0FDEF5D6004D2948002C2947F017ECD
:101D770000122230D2957F017E00122230C2957F59
:0E1D8700017E001222309000D7E014F080B3ED
:011D9500222B
:101DF100E49000C1F0A37407F0C2957F017E001248
:101E01002230D2953094179000C1E0FFA3E0FEF894
:101E11007401088002C333D8FC4F9000C1F07F01E8
:101E21007E001222309000C2E014F0E0C36480947E
:0F1E31008050C6A20092011221989000C1E0FFDC
:011E4000227F
:101F6600F583E5822FF582E5833EF583E493FF7DD5
:011F76000169
:101F77009000D4EFF0A3EDF01221B17F78121D325B
:101F8700121FAA9000D5E060047F408002E4FF1290
:101F97001D32121FAA9000D4E0FF121D32121FAA91
:031FA7000222090A
:10217C009000EBEFF07006FD7FA6121F779000EB3E
:0C218C00E0B40107E4FD7FA7121F7722DA
:1020E5009000ECEFF0700DFD7FC8121F77E4FD7FC7
:1020F500A1121F779000ECE0B4010EE4FD7FC01241
:0A2105001F77E4FD7FA0121F772270
:07205A00E0FFA3E0FD04F02C
:102061009000D3EFF0ED24B0FFE4FD121F77900054
:10207100D3E054F0C4540F4410FFE4FD121F7790D5
:0B20810000D3E0540FFFE4FD021F77C6
:1021DF00E4FD7F8D121F77E4FD7F14121F77E4FD5E
:0521EF007FAF021F7725
:1021F400E4FD7F8D121F77E4FD7F10121F77E4FD4D
:052204007FAE021F7710
:101F2000E49000BDF09000BDE0FFC394085036EF90
:101F300024B0FFE4FD121F77E4FDFF121F77E4FDDC
:101F40007F10121F77E49000BEF07D01E4FF121FA6
:101F5000779000BEE004F0E0C3948040ED9000BDB7
:051F6000E004F080C068
:011F65002259
:08162F009000C9EFF0A3EDF0FB
:10163700E49000CDF09000CCE0FFC313FD9000CE06
:10164700F0E4A3F0A3F0EFB40809A3E4F0A3740651
:10165700F080319000CCE0FF131313541FF582750F
:101667008300EF54077E0060047F0180027F00EF54
:101677002582FFEE3583FE7C00120D869000D1EEA9
:10168700F0A3EFF0EB24E09000CDF09000C9E0FF6D
:10169700A3E0FD122061E49000CFF0A3F09000D109
:1016A700E0FCA3E0FD9000CFE0FEA3E0FFC39DEECA
:1016B7009C50709000CEE0FD7C00120D98ED4C70B0
:1016C7000E9000CCE0640860069000C912205A9082
:1016D70000CCE0B4081A9000CFE0FEA3E0FF900032
:1016E700CDE075F006A4240EF582E5F03400801FE6
:1016F7009000CCE0B4102C9000CFE0FEA3E0FF9068
:1017070000CDE075F010A42436F582E5F03402121E
:101717001F669000D0E004F070069000CFE004F060
:031727000216A403
:01172A00229C
:081E8E009000C9EFF0A3EDF094
:101E9600A3120F4B000000019000CAE0FF14F0EF00
:101EA6006020A3E0F8A3E0F9A3E0FAA3E0FB90002A
:101EB600C9E0FFE4FCFDFE120E039000CB120F3FBB
:101EC60080D69000CBE0FCA3E0FDA3E0FEA3E0FFFC
:011ED60022E9
:08172B009000BDEFF0A3EDF00A
:10173300E49000C7F0A3F09000C4E0B40806900062
:10174300C77402F0E49000C5F09000C3E0FF90007E
:10175300C5E0FEC39F4003021809C3EF9E14FD7F3B
:101763000A121E8EA804A905AA06AB079000BFE0C3
:10177300FCA3E0FDA3E0FEA3E0FF120E8EE47B0AD0
:10178300FAF9F8120E8E9000C6EBF09000C8E070E4
:101793003C9000C3E014FF9000C5E0FEC39F502DB2
:1017A300A3E070239000C4E0FCC313FF9000C7E0E4
:1017B3002F8EF0A4FF9000BDE02FFFA3E0FD90006B
:1017C300CCECF07B2080339000C87401F09000C40F
:1017D300E0FEC313FF9000C7E02FFF9000C5E0FDBC
:1017E300EF8DF0A4FF9000BDE02FFFA3E0FD90007C
:1017F300C6E02430FB9000CCEEF012162F9000C50B
:06180300E004F002174CA6
:0118090022BC
:101C5A009000BDEFF0A3EDF0A3EBF0A3EAF0A3E947
:011C6A00F089
:101C6B00E49000C3F09000BFE0FBA3E0FAA3E0F91F
:101C7B009000C3E0F582758300120D59604090000F
:101C8B00BDE0FFA3E0FD9000C3E0FE04F08E827583
:101C9B008300120D59FB9000C2E09000CCF012169D
:101CAB002F9000C2E0FFB408099000BDE02406F0BD
:0E1CBB0080B3EFC313FF9000BDE02FF080A7B1
:011CC90022F8
:0B1A08009000E3EFF0A3EDF0A3EBF083
:101A1300A3E0FF131313541FFD7C00EF54077E0054
:101A230060047F0180027F00EF2DFFEE3CFE9000FB
:101A3300E6E0FD7C00120D869000E9EEF0A3EFF0E6
:101A4300E49000E7F0A3F09000E9E0FCA3E0FD9050
:101A530000E7E0FEA3E0FFC39DEE9C50439000E649
:101A6300E0FD7C00120D98ED4C70069000E312200F
:101A73005A9000E6E0B41028A3E0FEA3E0FF900034
:101A8300E5E0C43354E02426F582E43408121F66EB
:101A93009000E8E004F070AF9000E7E004F080A766
:011AA3002220
:0B1B3B009000D8EFF0A3EDF0A3EBF05A
:101B4600E49000DFF0A3F09000DBE0FF13131354E2
:101B56001FFEEF540760047F0180027F00EE2F9086
:101B660000DBF0E49000E1F09000DBE0FF9000E1A4
:101B7600E0FEC39F50519000D8E0FFA3E0FDEE2D9C
:101B8600FD122061E49000E2F09000DAE0FF9000A0
:101B9600E2E0C39F50299000DCE0FBA3E0FAA3E05B
:101BA600F9A3E475F001120DED85F082F583120DAF
:101BB60059FF7D01121F779000E2E004F080CA9081
:071BC60000E1E004F080A142
:011BCD0022F5
:05000300E4FD021F777F
:101966007FC87E001221C87FAE1200037FA8120036
:10197600037F1F1200037FD3120003E4FF1200034C
:101986007F401200037FA01200037FC01200037F76
:10199600811200037F7F1200037FA41200037FA63B
:1019A6001200037FD51200037F801200037F8D1281
:1019B60000037F141200037F2E1200037F20120003
:1019C600037F101200037FDA1200037F0212000366
:1019D6007FD91200037F221200037FDB1200037FF0
:1019E600201200037FB0120003E4FF1200037F10F1
:1019F6001200037FAF1200037F2C7E011221C80262
:021A06001F209F
:1021C8007DA07C0FED1D70011C144C70F7EF1F7083
:0621D800011E144E70EA26
:0121DE0022DE
:102230007C007D0B120D86EF1F70011E144E70F78F
:01224000227B
:10208C009000C0EFF0A3EDF01221B17FD0121D3201
:10209C00121FAA9000C0E0FF121D32121FAA90005E
:0F20AC00C1E0FF121D32121FAA1222097F00226B
:051FE8009000BFEFF0C6
:101FED001221B17FD0121D32121FAA9000BFE0FF47
:101FFD00121D32121FAA1221B17FD1121D32121FD2
:10200D00AAD200121DF19000C0EFF012220990002B
:03201D00C0E0FF21
:01202000229D
:0C224E00EF33333354F8FD7F1B02208C6B
:0C225A00EF33333354F8FD7F1C02208C5E
:101ED700E4FDC3EF94BCEE940040030D8036C3EFDE
:101EE7009462EE940040047D028029C3EF942AEEA9
:101EF700940040047D03801CC3EF9414EE940040CB
:101F0700047D04800FC3EF940AEE940040047D051E
:091F170080027D067F1A02208C75
:081D96009000BDEEF0A3EFF098
:101D9E00D394E8EE9403400A9000BD7403F0A3744C
:101DAE00E8F0C39000BEE094049000BDE0940050B3
:101DBE0006E4F0A37404F09000BDE0FCA3E0FD7E09
:101DCE00037FE8120D98EF14A3F0FD7F1912208CFB
:101DDE009000BFEFF09000BDE0C313FEA3E013FF31
:031DEE00021ED7FB
:101CCA007D807F6B12208C7F647E001221C8E4FD28
:101CDA007F6B12208C7F0312224EE4FF12225A7F5E
:101CEA00327E00121D96E4FD7F3812208CE4FD7FBF
:101CFA006A12208C7DFF7F2312208C7D807F371211
:101D0A00208C7F75121FE8EFB468177D017F6B1274
:101D1A00208CE4FD7F6C12208C7FC87E00121D96F9
:071D2A0080037F01227F000E
:011D3100228F
:05210F009000BDEFF09F
:10211400121FE89000BEEFF09000BDE004FF121F14
:10212400E8AD079000BEE0FE7C00E42DFFEC3EFE2F
:012134002288
:102021007F41121FE89000EDEFF07F42121FE8ADF3
:10203100079000EDE0FE7C00E42DFFEC3EFEAD07D5
:10204100FC120BA9E4FBFA79AA7843120B077BB8BF
:092051007A1E7912784202090D91
:10090600020C4EE86480F8E933E83360110460F0C5
:10091600ED33EC337009E8FCE9FDEAFEEBFF220457
:1009260060DED3EB9FEA9EE99DE8C2E78CF0C2F752
:1009360095F0400CE8CCF8E9CDF9EACEFAEBCFFB1E
:10094600120C1985D0F05804700320D5B3E8047052
:10095600075002B2D5020C5892D5EC0460F7E4CCED
:10096600C0E0C398F8603B94186008400DD0E0FBE7
:10097600020C30E4FBFAC9FC8028E830E406E4C93E
:10098600FBE4CAFCE830E305E4C9CACBFCE854073B
:100996006010F8C3E913F9EA13FAEB13FBEC13FC46
:1009A600D8F130F52FC3E49CFCEF9BFFEE9AFEEDE9
:1009B60099FDD0E0FBEF4E4D4C701222DB03020C8A
:1009C60055EC2CFCEF33FFEE33FEED33FDED30E757
:1009D600EB020C30EF2BFFEE3AFEED39FDD0E0FBDB
:1009E60050130BBB0003020C58ED13FDEE13FEEF84
:0809F60013FFEC13FC020C30AE
:1009FE00EC4D6011E8497017ED33EC3304600DE4F3
:100A0E00FCFFFEFD22E933E8330470F8020C4E12AF
:100A1E000C1958046009E4CC2481500628500902B0
:100A2E000C58284003020C55C0E0EB4A7044B980C4
:100A3E0006D0E0FB020C44EF4E701CBD8008EBFFAD
:100A4E00EAFEE9FD80EBE98DF0A4FEE5F0020AE78F
:100A5E00E9CDF9EAFEEBFFEF89F0A4FCE5F0CE89D3
:100A6E00F0A42EFFE435F0CD89F0A42DFEE435F090
:100A7E008067EF4E7005BD80D780C3EF8BF0A4ACBE
:100A8E00F0EE8BF0A42CFCE435F0F8EF8AF0A42CF9
:100A9E00E5F038FCE433CB8DF0A42CFCE5F03BF80C
:100AAE00EE8AF0A42CFCE5F038F8E433CF89F0A4FC
:100ABE002CFCE5F038CF3400CE89F0A42FFFE5F002
:100ACE003EFEE433C98DF0A42EFEE5F039CD8AF05A
:100ADE00A42FFFE5F03EFEE43DFD33D0E0FB5007D2
:100AEE000BBB000F020C58EC2CFCEF33FFEE33FE69
:060AFE00ED33FD020C3097
:100B0400020C58EC5D046005E859047003020C4EB5
:100B1400120C19580460F6EC4860F2EC7004FDFE07
:100B2400FF22C860DB2481C85009C39860025006C4
:100B3400020C559850CAF582E9294B4A7005AB82DC
:100B4400020C4475F0007C1A7880C3EF9BEE9AED9A
:100B540099400DC3EF9BFFEE9AFEED99FDE842F03C
:100B6400DC23ACF0D0E0FFD0E0FED0E0FDAB82208F
:100B7400E7101BEB60BAEC2CFCEF33FFEE33FEED19
:100B840033FD020C30E803F830E705C0F075F000DF
:100B9400EF2FFFEE33FEED33FD40B830E7C280AAFD
:100BA40075F020800E75F010800575F0087D007ECC
:100BB400007F003392D530D503120F20EC33401060
:100BC400EF33FFEE33FEED33FDEC33FCD5F0ED22D5
:0E0BD400E5F0247EA2D513CC92E7CDCEFF2211
:100BE200EDD2E7CD33EC3392D524814006E4FFFE0B
:100BF200FDFC22FCE4CFCECDCC24E0501174FF806A
:100C0200EDC3CC13CCCD13CDCE13CECF13CF047006
:070C1200F030D5DE020F20D7
:100C1900E9D2E7C933E833F892D5EDD2E7CD33EC21
:070C290033FC5002B2D5229A
:100C3000EC30E7100FBF000C0EBE00080DBD000425
:100C40000BEB6014A2D5EB13FCED92E7FD2274FFD1
:100C5000FCFDFEFF22E480F8A2D574FF13FC7D802A
:030C6000E480EF3E
:03000000021BCE12
:0C1BCE00787FE4F6D8FD758120021C151C
:100C6300E709F608DFFA8046E709F208DFFA803E73
:100C730088828C83E709F0A3DFFA8032E309F60860
:100C8300DFFA8078E309F208DFFA807088828C83C8
:100C9300E309F0A3DFFA806489828A83E0A3F6087C
:100CA300DFFA805889828A83E0A3F208DFFA804C56
:100CB30080D280FA80C680D4806980F2803380102D
:100CC30080A680EA809A80A880DA80E280CA803396
:100CD30089828A83ECFAE493A3C8C582C8CCC5830E
:100CE300CCF0A3C8C582C8CCC583CCDFE9DEE780DE
:100CF3000D89828A83E493A3F608DFF9ECFAA9F05D
:100D0300EDFB2289828A83ECFAE0A3C8C582C8CCB2
:100D1300C583CCF0A3C8C582C8CCC583CCDFEADECB
:100D2300E880DB89828A83E493A3F208DFF980CC2D
:100D330088F0EF60010E4E60C388F0ED2402B40426
:100D43000050B9F582EB2402B4040050AF232345CD
:060D53008223900CB37333
:100D5900BB010CE58229F582E5833AF583E022504F
:100D690006E92582F8E622BBFE06E92582F8E22299
:0D0D7900E58229F582E5833AF583E49322B3
:100D8600EF8DF0A4A8F0CF8CF0A428CE8DF0A42E81
:020D9600FE223B
:100D9800BC000BBE0029EF8DF084FFADF022E4CC3F
:100DA800F875F008EF2FFFEE33FEEC33FCEE9DEC08
:100DB800984005FCEE9DFE0FD5F0E9E4CEFD22ED4E
:100DC800F8F5F0EE8420D21CFEADF075F008EF2F98
:100DD800FFED33FD4007985006D5F0F222C398FD89
:050DE8000FD5F0EA2226
:100DED00A3F8E0C5F025F0F0E582158270021583B9
:060DFD00E0C838F0E82216
:100E0300E88FF0A4CC8BF0A42CFCE98EF0A42CFC8E
:100E13008AF0EDA42CFCEA8EF0A4CDA8F08BF0A40C
:100E23002DCC3825F0FDE98FF0A42CCD35F0FCEB6B
:100E33008EF0A4FEA9F0EB8FF0A4CFC5F02ECD3930
:0F0E4300FEE43CFCEAA42DCE35F0FDE43CFC229D
:100E520075F008758200EF2FFFEE33FECD33CDCC57
:100E620033CCC58233C5829BED9AEC99E5829840DA
:100E72000CF582EE9BFEED9AFDEC99FC0FD5F0D6B7
:100E8200E4CEFBE4CDFAE4CCF9A88222B800C1B9E1
:100E92000059BA002DEC8BF084CFCECDFCE5F0CB1F
:100EA200F97818EF2FFFEE33FEED33FDEC33FCEB58
:100EB20033FB10D703994004EB99FB0FD8E5E4F913
:100EC200FA227818EF2FFFEE33FEED33FDEC33FC00
:100ED200C933C910D7059BE99A4007EC9BFCE99AF4
:100EE200F90FD8E0E4C9FAE4CCFB2275F010EF2F39
:100EF200FFEE33FEED33FDCC33CCC833C810D70739
:100F02009BEC9AE899400AED9BFDEC9AFCE899F873
:0E0F12000FD5F0DAE4CDFBE4CCFAE4C8F92206
:0E0F2000C3E49FFFE49EFEE49DFDE49CFC22E2
:100F2E00EB9FF5F0EA9E42F0E99D42F0E89C45F019
:010F3E002290
:0C0F3F00ECF0A3EDF0A3EEF0A3EFF02225
:100F4B00A8828583F0D083D082120F62120F6212B7
:100F5B000F62120F62E473E493A3C583C5F0C583DC
:100F6B00C8C582C8F0A3C583C5F0C583C8C582C8F0
:010F7B002253
:0C0F7C00A42582F582E5F03583F5832280
:101BDA00020F88E493A3F8E493A34003F68001F28A
:101BEA0008DFF48029E493A3F85407240CC8C3330C
:101BFA00C4540F4420C8834004F456800146F6DFDB
:101C0A00E4800B0102040810204080901AA4E47EAC
:101C1A00019360BCA3FF543F30E509541FFEE493CF
:101C2A00A360010ECF54C025E060A840B8E493A396
:101C3A00FAE493A3F8E493A3C8C582C8CAC583CAC1
:101C4A00F0A3C8C582C8CAC583CADFE9DEE780BE79
:011B3A0000AA
:00000001FF
